{
  "address": "0x210a5cebBa08e5fAA01b17974BE5a3C8f58E3d30",
  "abi": [
    {
      "inputs": [
        {
          "internalType": "bool",
          "name": "success",
          "type": "bool"
        },
        {
          "internalType": "bytes",
          "name": "ret",
          "type": "bytes"
        }
      ],
      "name": "DelegateAndRevert",
      "type": "error"
    },
    {
      "inputs": [
        {
          "internalType": "uint256",
          "name": "opIndex",
          "type": "uint256"
        },
        {
          "internalType": "string",
          "name": "reason",
          "type": "string"
        }
      ],
      "name": "FailedOp",
      "type": "error"
    },
    {
      "inputs": [
        {
          "internalType": "uint256",
          "name": "opIndex",
          "type": "uint256"
        },
        {
          "internalType": "string",
          "name": "reason",
          "type": "string"
        },
        {
          "internalType": "bytes",
          "name": "inner",
          "type": "bytes"
        }
      ],
      "name": "FailedOpWithRevert",
      "type": "error"
    },
    {
      "inputs": [
        {
          "internalType": "bytes",
          "name": "returnData",
          "type": "bytes"
        }
      ],
      "name": "PostOpReverted",
      "type": "error"
    },
    {
      "inputs": [],
      "name": "ReentrancyGuardReentrantCall",
      "type": "error"
    },
    {
      "inputs": [
        {
          "internalType": "address",
          "name": "sender",
          "type": "address"
        }
      ],
      "name": "SenderAddressResult",
      "type": "error"
    },
    {
      "inputs": [
        {
          "internalType": "address",
          "name": "aggregator",
          "type": "address"
        }
      ],
      "name": "SignatureValidationFailed",
      "type": "error"
    },
    {
      "anonymous": false,
      "inputs": [
        {
          "indexed": true,
          "internalType": "bytes32",
          "name": "userOpHash",
          "type": "bytes32"
        },
        {
          "indexed": true,
          "internalType": "address",
          "name": "sender",
          "type": "address"
        },
        {
          "indexed": false,
          "internalType": "address",
          "name": "factory",
          "type": "address"
        },
        {
          "indexed": false,
          "internalType": "address",
          "name": "paymaster",
          "type": "address"
        }
      ],
      "name": "AccountDeployed",
      "type": "event"
    },
    {
      "anonymous": false,
      "inputs": [],
      "name": "BeforeExecution",
      "type": "event"
    },
    {
      "anonymous": false,
      "inputs": [
        {
          "indexed": true,
          "internalType": "address",
          "name": "account",
          "type": "address"
        },
        {
          "indexed": false,
          "internalType": "uint256",
          "name": "totalDeposit",
          "type": "uint256"
        }
      ],
      "name": "Deposited",
      "type": "event"
    },
    {
      "anonymous": false,
      "inputs": [
        {
          "indexed": true,
          "internalType": "bytes32",
          "name": "userOpHash",
          "type": "bytes32"
        },
        {
          "indexed": true,
          "internalType": "address",
          "name": "sender",
          "type": "address"
        },
        {
          "indexed": false,
          "internalType": "uint256",
          "name": "nonce",
          "type": "uint256"
        },
        {
          "indexed": false,
          "internalType": "bytes",
          "name": "revertReason",
          "type": "bytes"
        }
      ],
      "name": "PostOpRevertReason",
      "type": "event"
    },
    {
      "anonymous": false,
      "inputs": [
        {
          "indexed": true,
          "internalType": "address",
          "name": "aggregator",
          "type": "address"
        }
      ],
      "name": "SignatureAggregatorChanged",
      "type": "event"
    },
    {
      "anonymous": false,
      "inputs": [
        {
          "indexed": true,
          "internalType": "address",
          "name": "account",
          "type": "address"
        },
        {
          "indexed": false,
          "internalType": "uint256",
          "name": "totalStaked",
          "type": "uint256"
        },
        {
          "indexed": false,
          "internalType": "uint256",
          "name": "unstakeDelaySec",
          "type": "uint256"
        }
      ],
      "name": "StakeLocked",
      "type": "event"
    },
    {
      "anonymous": false,
      "inputs": [
        {
          "indexed": true,
          "internalType": "address",
          "name": "account",
          "type": "address"
        },
        {
          "indexed": false,
          "internalType": "uint256",
          "name": "withdrawTime",
          "type": "uint256"
        }
      ],
      "name": "StakeUnlocked",
      "type": "event"
    },
    {
      "anonymous": false,
      "inputs": [
        {
          "indexed": true,
          "internalType": "address",
          "name": "account",
          "type": "address"
        },
        {
          "indexed": false,
          "internalType": "address",
          "name": "withdrawAddress",
          "type": "address"
        },
        {
          "indexed": false,
          "internalType": "uint256",
          "name": "amount",
          "type": "uint256"
        }
      ],
      "name": "StakeWithdrawn",
      "type": "event"
    },
    {
      "anonymous": false,
      "inputs": [
        {
          "indexed": true,
          "internalType": "bytes32",
          "name": "userOpHash",
          "type": "bytes32"
        },
        {
          "indexed": true,
          "internalType": "address",
          "name": "sender",
          "type": "address"
        },
        {
          "indexed": true,
          "internalType": "address",
          "name": "paymaster",
          "type": "address"
        },
        {
          "indexed": false,
          "internalType": "uint256",
          "name": "nonce",
          "type": "uint256"
        },
        {
          "indexed": false,
          "internalType": "bool",
          "name": "success",
          "type": "bool"
        },
        {
          "indexed": false,
          "internalType": "uint256",
          "name": "actualGasCost",
          "type": "uint256"
        },
        {
          "indexed": false,
          "internalType": "uint256",
          "name": "actualGasUsed",
          "type": "uint256"
        }
      ],
      "name": "UserOperationEvent",
      "type": "event"
    },
    {
      "anonymous": false,
      "inputs": [
        {
          "indexed": true,
          "internalType": "bytes32",
          "name": "userOpHash",
          "type": "bytes32"
        },
        {
          "indexed": true,
          "internalType": "address",
          "name": "sender",
          "type": "address"
        },
        {
          "indexed": false,
          "internalType": "uint256",
          "name": "nonce",
          "type": "uint256"
        }
      ],
      "name": "UserOperationPrefundTooLow",
      "type": "event"
    },
    {
      "anonymous": false,
      "inputs": [
        {
          "indexed": true,
          "internalType": "bytes32",
          "name": "userOpHash",
          "type": "bytes32"
        },
        {
          "indexed": true,
          "internalType": "address",
          "name": "sender",
          "type": "address"
        },
        {
          "indexed": false,
          "internalType": "uint256",
          "name": "nonce",
          "type": "uint256"
        },
        {
          "indexed": false,
          "internalType": "bytes",
          "name": "revertReason",
          "type": "bytes"
        }
      ],
      "name": "UserOperationRevertReason",
      "type": "event"
    },
    {
      "anonymous": false,
      "inputs": [
        {
          "indexed": true,
          "internalType": "address",
          "name": "account",
          "type": "address"
        },
        {
          "indexed": false,
          "internalType": "address",
          "name": "withdrawAddress",
          "type": "address"
        },
        {
          "indexed": false,
          "internalType": "uint256",
          "name": "amount",
          "type": "uint256"
        }
      ],
      "name": "Withdrawn",
      "type": "event"
    },
    {
      "inputs": [
        {
          "internalType": "uint32",
          "name": "unstakeDelaySec",
          "type": "uint32"
        }
      ],
      "name": "addStake",
      "outputs": [],
      "stateMutability": "payable",
      "type": "function"
    },
    {
      "inputs": [
        {
          "internalType": "address",
          "name": "account",
          "type": "address"
        }
      ],
      "name": "balanceOf",
      "outputs": [
        {
          "internalType": "uint256",
          "name": "",
          "type": "uint256"
        }
      ],
      "stateMutability": "view",
      "type": "function"
    },
    {
      "inputs": [
        {
          "internalType": "address",
          "name": "target",
          "type": "address"
        },
        {
          "internalType": "bytes",
          "name": "data",
          "type": "bytes"
        }
      ],
      "name": "delegateAndRevert",
      "outputs": [],
      "stateMutability": "nonpayable",
      "type": "function"
    },
    {
      "inputs": [
        {
          "internalType": "address",
          "name": "account",
          "type": "address"
        }
      ],
      "name": "depositTo",
      "outputs": [],
      "stateMutability": "payable",
      "type": "function"
    },
    {
      "inputs": [
        {
          "internalType": "address",
          "name": "",
          "type": "address"
        }
      ],
      "name": "deposits",
      "outputs": [
        {
          "internalType": "uint256",
          "name": "deposit",
          "type": "uint256"
        },
        {
          "internalType": "bool",
          "name": "staked",
          "type": "bool"
        },
        {
          "internalType": "uint112",
          "name": "stake",
          "type": "uint112"
        },
        {
          "internalType": "uint32",
          "name": "unstakeDelaySec",
          "type": "uint32"
        },
        {
          "internalType": "uint48",
          "name": "withdrawTime",
          "type": "uint48"
        }
      ],
      "stateMutability": "view",
      "type": "function"
    },
    {
      "inputs": [
        {
          "internalType": "address",
          "name": "account",
          "type": "address"
        }
      ],
      "name": "getDepositInfo",
      "outputs": [
        {
          "components": [
            {
              "internalType": "uint256",
              "name": "deposit",
              "type": "uint256"
            },
            {
              "internalType": "bool",
              "name": "staked",
              "type": "bool"
            },
            {
              "internalType": "uint112",
              "name": "stake",
              "type": "uint112"
            },
            {
              "internalType": "uint32",
              "name": "unstakeDelaySec",
              "type": "uint32"
            },
            {
              "internalType": "uint48",
              "name": "withdrawTime",
              "type": "uint48"
            }
          ],
          "internalType": "struct IStakeManager.DepositInfo",
          "name": "info",
          "type": "tuple"
        }
      ],
      "stateMutability": "view",
      "type": "function"
    },
    {
      "inputs": [
        {
          "internalType": "address",
          "name": "sender",
          "type": "address"
        },
        {
          "internalType": "uint192",
          "name": "key",
          "type": "uint192"
        }
      ],
      "name": "getNonce",
      "outputs": [
        {
          "internalType": "uint256",
          "name": "nonce",
          "type": "uint256"
        }
      ],
      "stateMutability": "view",
      "type": "function"
    },
    {
      "inputs": [
        {
          "internalType": "bytes",
          "name": "initCode",
          "type": "bytes"
        }
      ],
      "name": "getSenderAddress",
      "outputs": [],
      "stateMutability": "nonpayable",
      "type": "function"
    },
    {
      "inputs": [
        {
          "components": [
            {
              "internalType": "address",
              "name": "sender",
              "type": "address"
            },
            {
              "internalType": "uint256",
              "name": "nonce",
              "type": "uint256"
            },
            {
              "internalType": "bytes",
              "name": "initCode",
              "type": "bytes"
            },
            {
              "internalType": "bytes",
              "name": "callData",
              "type": "bytes"
            },
            {
              "internalType": "bytes32",
              "name": "accountGasLimits",
              "type": "bytes32"
            },
            {
              "internalType": "uint256",
              "name": "preVerificationGas",
              "type": "uint256"
            },
            {
              "internalType": "bytes32",
              "name": "gasFees",
              "type": "bytes32"
            },
            {
              "internalType": "bytes",
              "name": "paymasterAndData",
              "type": "bytes"
            },
            {
              "internalType": "bytes",
              "name": "signature",
              "type": "bytes"
            }
          ],
          "internalType": "struct PackedUserOperation",
          "name": "userOp",
          "type": "tuple"
        }
      ],
      "name": "getUserOpHash",
      "outputs": [
        {
          "internalType": "bytes32",
          "name": "",
          "type": "bytes32"
        }
      ],
      "stateMutability": "view",
      "type": "function"
    },
    {
      "inputs": [
        {
          "components": [
            {
              "components": [
                {
                  "internalType": "address",
                  "name": "sender",
                  "type": "address"
                },
                {
                  "internalType": "uint256",
                  "name": "nonce",
                  "type": "uint256"
                },
                {
                  "internalType": "bytes",
                  "name": "initCode",
                  "type": "bytes"
                },
                {
                  "internalType": "bytes",
                  "name": "callData",
                  "type": "bytes"
                },
                {
                  "internalType": "bytes32",
                  "name": "accountGasLimits",
                  "type": "bytes32"
                },
                {
                  "internalType": "uint256",
                  "name": "preVerificationGas",
                  "type": "uint256"
                },
                {
                  "internalType": "bytes32",
                  "name": "gasFees",
                  "type": "bytes32"
                },
                {
                  "internalType": "bytes",
                  "name": "paymasterAndData",
                  "type": "bytes"
                },
                {
                  "internalType": "bytes",
                  "name": "signature",
                  "type": "bytes"
                }
              ],
              "internalType": "struct PackedUserOperation[]",
              "name": "userOps",
              "type": "tuple[]"
            },
            {
              "internalType": "contract IAggregator",
              "name": "aggregator",
              "type": "address"
            },
            {
              "internalType": "bytes",
              "name": "signature",
              "type": "bytes"
            }
          ],
          "internalType": "struct IEntryPoint.UserOpsPerAggregator[]",
          "name": "opsPerAggregator",
          "type": "tuple[]"
        },
        {
          "internalType": "address payable",
          "name": "beneficiary",
          "type": "address"
        }
      ],
      "name": "handleAggregatedOps",
      "outputs": [],
      "stateMutability": "nonpayable",
      "type": "function"
    },
    {
      "inputs": [
        {
          "components": [
            {
              "internalType": "address",
              "name": "sender",
              "type": "address"
            },
            {
              "internalType": "uint256",
              "name": "nonce",
              "type": "uint256"
            },
            {
              "internalType": "bytes",
              "name": "initCode",
              "type": "bytes"
            },
            {
              "internalType": "bytes",
              "name": "callData",
              "type": "bytes"
            },
            {
              "internalType": "bytes32",
              "name": "accountGasLimits",
              "type": "bytes32"
            },
            {
              "internalType": "uint256",
              "name": "preVerificationGas",
              "type": "uint256"
            },
            {
              "internalType": "bytes32",
              "name": "gasFees",
              "type": "bytes32"
            },
            {
              "internalType": "bytes",
              "name": "paymasterAndData",
              "type": "bytes"
            },
            {
              "internalType": "bytes",
              "name": "signature",
              "type": "bytes"
            }
          ],
          "internalType": "struct PackedUserOperation[]",
          "name": "ops",
          "type": "tuple[]"
        },
        {
          "internalType": "address payable",
          "name": "beneficiary",
          "type": "address"
        }
      ],
      "name": "handleOps",
      "outputs": [],
      "stateMutability": "nonpayable",
      "type": "function"
    },
    {
      "inputs": [
        {
          "internalType": "uint192",
          "name": "key",
          "type": "uint192"
        }
      ],
      "name": "incrementNonce",
      "outputs": [],
      "stateMutability": "nonpayable",
      "type": "function"
    },
    {
      "inputs": [
        {
          "internalType": "bytes",
          "name": "callData",
          "type": "bytes"
        },
        {
          "components": [
            {
              "components": [
                {
                  "internalType": "address",
                  "name": "sender",
                  "type": "address"
                },
                {
                  "internalType": "uint256",
                  "name": "nonce",
                  "type": "uint256"
                },
                {
                  "internalType": "uint256",
                  "name": "verificationGasLimit",
                  "type": "uint256"
                },
                {
                  "internalType": "uint256",
                  "name": "callGasLimit",
                  "type": "uint256"
                },
                {
                  "internalType": "uint256",
                  "name": "paymasterVerificationGasLimit",
                  "type": "uint256"
                },
                {
                  "internalType": "uint256",
                  "name": "paymasterPostOpGasLimit",
                  "type": "uint256"
                },
                {
                  "internalType": "uint256",
                  "name": "preVerificationGas",
                  "type": "uint256"
                },
                {
                  "internalType": "address",
                  "name": "paymaster",
                  "type": "address"
                },
                {
                  "internalType": "uint256",
                  "name": "maxFeePerGas",
                  "type": "uint256"
                },
                {
                  "internalType": "uint256",
                  "name": "maxPriorityFeePerGas",
                  "type": "uint256"
                }
              ],
              "internalType": "struct EntryPoint.MemoryUserOp",
              "name": "mUserOp",
              "type": "tuple"
            },
            {
              "internalType": "bytes32",
              "name": "userOpHash",
              "type": "bytes32"
            },
            {
              "internalType": "uint256",
              "name": "prefund",
              "type": "uint256"
            },
            {
              "internalType": "uint256",
              "name": "contextOffset",
              "type": "uint256"
            },
            {
              "internalType": "uint256",
              "name": "preOpGas",
              "type": "uint256"
            }
          ],
          "internalType": "struct EntryPoint.UserOpInfo",
          "name": "opInfo",
          "type": "tuple"
        },
        {
          "internalType": "bytes",
          "name": "context",
          "type": "bytes"
        }
      ],
      "name": "innerHandleOp",
      "outputs": [
        {
          "internalType": "uint256",
          "name": "actualGasCost",
          "type": "uint256"
        }
      ],
      "stateMutability": "nonpayable",
      "type": "function"
    },
    {
      "inputs": [
        {
          "internalType": "address",
          "name": "",
          "type": "address"
        },
        {
          "internalType": "uint192",
          "name": "",
          "type": "uint192"
        }
      ],
      "name": "nonceSequenceNumber",
      "outputs": [
        {
          "internalType": "uint256",
          "name": "",
          "type": "uint256"
        }
      ],
      "stateMutability": "view",
      "type": "function"
    },
    {
      "inputs": [
        {
          "internalType": "bytes4",
          "name": "interfaceId",
          "type": "bytes4"
        }
      ],
      "name": "supportsInterface",
      "outputs": [
        {
          "internalType": "bool",
          "name": "",
          "type": "bool"
        }
      ],
      "stateMutability": "view",
      "type": "function"
    },
    {
      "inputs": [],
      "name": "unlockStake",
      "outputs": [],
      "stateMutability": "nonpayable",
      "type": "function"
    },
    {
      "inputs": [
        {
          "internalType": "address payable",
          "name": "withdrawAddress",
          "type": "address"
        }
      ],
      "name": "withdrawStake",
      "outputs": [],
      "stateMutability": "nonpayable",
      "type": "function"
    },
    {
      "inputs": [
        {
          "internalType": "address payable",
          "name": "withdrawAddress",
          "type": "address"
        },
        {
          "internalType": "uint256",
          "name": "withdrawAmount",
          "type": "uint256"
        }
      ],
      "name": "withdrawTo",
      "outputs": [],
      "stateMutability": "nonpayable",
      "type": "function"
    },
    {
      "stateMutability": "payable",
      "type": "receive"
    }
  ],
  "transactionHash": "0xdbcf61ef2a5c5783b753cc2f3fb323d0d9e042325470e388f6443e6b018726dd",
  "args": [],
  "numDeployments": 1,
  "solcInputHash": "bfd87a590ee9e25eb8fc77ae634356ac",
  "bytecode": "0x60a0604052604051600e90604b565b604051809103906000f0801580156029573d6000803e3d6000fd5b506001600160a01b0316608052348015604157600080fd5b5060016002556058565b610215806137e083390190565b60805161376d6100736000396000611f49015261376d6000f3fe6080604052600436106100dc5760003560e01c806242dc53146100f157806301ffc9a7146101245780630396cb60146101545780630bd28e3b146101675780631b2e01b814610187578063205c2878146101bf57806322cdde4c146101df57806335567e1a146101ff5780635287ce121461025e57806370a0823114610371578063765e827f14610391578063850aaf62146103b15780639b249f69146103d1578063b760faf9146103f1578063bb9fe6bf14610404578063c23a5cea14610419578063dbed18e014610439578063fc7e286d1461045957600080fd5b366100ec576100ea33610501565b005b600080fd5b3480156100fd57600080fd5b5061011161010c366004612c66565b610556565b6040519081526020015b60405180910390f35b34801561013057600080fd5b5061014461013f366004612d26565b6106d9565b604051901515815260200161011b565b6100ea610162366004612d50565b610761565b34801561017357600080fd5b506100ea610182366004612d8d565b6109da565b34801561019357600080fd5b506101116101a2366004612da8565b600160209081526000928352604080842090915290825290205481565b3480156101cb57600080fd5b506100ea6101da366004612ddd565b610a11565b3480156101eb57600080fd5b506101116101fa366004612e09565b610b56565b34801561020b57600080fd5b5061011161021a366004612da8565b6001600160a01b03821660009081526001602090815260408083206001600160c01b038516845290915290819020549082901b6001600160401b0319161792915050565b34801561026a57600080fd5b5061031b610279366004612e44565b6040805160a081018252600080825260208201819052918101829052606081018290526080810191909152506001600160a01b031660009081526020818152604091829020825160a0810184528154815260019091015460ff811615159282019290925261010082046001600160701b031692810192909252600160781b810463ffffffff166060830152600160981b900465ffffffffffff16608082015290565b60405161011b9190815181526020808301511515908201526040808301516001600160701b03169082015260608083015163ffffffff169082015260809182015165ffffffffffff169181019190915260a00190565b34801561037d57600080fd5b5061011161038c366004612e44565b610b98565b34801561039d57600080fd5b506100ea6103ac366004612ea5565b610bb3565b3480156103bd57600080fd5b506100ea6103cc366004612efb565b610d2f565b3480156103dd57600080fd5b506100ea6103ec366004612f4f565b610dae565b6100ea6103ff366004612e44565b610501565b34801561041057600080fd5b506100ea610e45565b34801561042557600080fd5b506100ea610434366004612e44565b610f71565b34801561044557600080fd5b506100ea610454366004612ea5565b611186565b34801561046557600080fd5b506104be610474366004612e44565b6000602081905290815260409020805460019091015460ff81169061010081046001600160701b031690600160781b810463ffffffff1690600160981b900465ffffffffffff1685565b6040805195865293151560208601526001600160701b039092169284019290925263ffffffff909116606083015265ffffffffffff16608082015260a00161011b565b600061050d8234611590565b9050816001600160a01b03167f2da466a7b24304f47e87fa2e1e5a81b9831ce54fec19055ce277ca2f39ba42c48260405161054a91815260200190565b60405180910390a25050565b6000805a90503330146105aa5760405162461bcd60e51b81526020600482015260176024820152764141393220696e7465726e616c2063616c6c206f6e6c7960481b60448201526064015b60405180910390fd5b8451606081015160a082015181016127100160405a603f02816105cf576105cf612f90565b0410156105e75763deaddead60e01b60005260206000fd5b87516000901561067b576000610604846000015160008c866115c3565b9050806106795760006106186108006115db565b8051909150156106735784600001516001600160a01b03168a602001517f1c4fada7374c0a9ee8841fc38afe82932dc0f8e69012e927f061a8bae611a20187602001518460405161066a929190612ff6565b60405180910390a35b60019250505b505b600088608001515a86030190506106cb828a8a8a8080601f016020809104026020016040519081016040528093929190818152602001838380828437600092019190915250879250611607915050565b9a9950505050505050505050565b60006001600160e01b0319821663307e35b760e11b148061070a57506001600160e01b0319821663122a0e9b60e31b145b8061072557506001600160e01b0319821663cf28ef9760e01b145b8061074057506001600160e01b03198216633e84f02160e01b145b8061075b57506301ffc9a760e01b6001600160e01b03198316145b92915050565b33600090815260208190526040902063ffffffff82166107c05760405162461bcd60e51b815260206004820152601a6024820152796d757374207370656369667920756e7374616b652064656c617960301b60448201526064016105a1565b600181015463ffffffff600160781b909104811690831610156108245760405162461bcd60e51b815260206004820152601c60248201527b63616e6e6f7420646563726561736520756e7374616b652074696d6560201b60448201526064016105a1565b600181015460009061084590349061010090046001600160701b0316613025565b90506000811161088c5760405162461bcd60e51b81526020600482015260126024820152711b9bc81cdd185ad9481cdc1958da599a595960721b60448201526064016105a1565b6001600160701b038111156108d45760405162461bcd60e51b815260206004820152600e60248201526d7374616b65206f766572666c6f7760901b60448201526064016105a1565b6040805160a08101825283548152600160208083018281526001600160701b0386811685870190815263ffffffff8a811660608801818152600060808a0181815233808352828a52918c90209a518b55965199909801805494519151965165ffffffffffff16600160981b0265ffffffffffff60981b1997909416600160781b0296909616600160781b600160c81b03199190951661010002610100600160781b0319991515999099166001600160781b031990941693909317979097179190911691909117179055835185815290810192909252917fa5ae833d0bb1dcd632d98a8b70973e8516812898e19bf27b70071ebc8dc52c01910160405180910390a2505050565b3360009081526001602090815260408083206001600160c01b03851684529091528120805491610a0983613038565b919050555050565b3360009081526020819052604090208054821115610a6d5760405162461bcd60e51b8152602060048201526019602482015278576974686472617720616d6f756e7420746f6f206c6172676560381b60448201526064016105a1565b8054610a7a908390613051565b815560405133907fd1c19fbcd4551a5edfb66d43d2e337c04837afda3482b42bdf569a8fccdae5fb90610ab09086908690613064565b60405180910390a26000836001600160a01b03168360405160006040518083038185875af1925050503d8060008114610b05576040519150601f19603f3d011682016040523d82523d6000602084013e610b0a565b606091505b5050905080610b505760405162461bcd60e51b81526020600482015260126024820152716661696c656420746f20776974686472617760701b60448201526064016105a1565b50505050565b6000610b61826117ca565b6040805160208101929092523090820152466060820152608001604051602081830303815290604052805190602001209050919050565b6001600160a01b031660009081526020819052604090205490565b610bbb6117e3565b816000816001600160401b03811115610bd657610bd6612a66565b604051908082528060200260200182016040528015610c0f57816020015b610bfc6129ce565b815260200190600190039081610bf45790505b50905060005b82811015610c88576000828281518110610c3157610c3161308a565b60200260200101519050600080610c6c848a8a87818110610c5457610c5461308a565b9050602002810190610c6691906130a0565b8561180b565b91509150610c7d8483836000611a01565b505050600101610c15565b506040516000907fbb47ee3e183a558b1a2ff0874b079f3fc5478b7454eacf2bfc5af2ff5878f972908290a160005b83811015610d1257610d0681888884818110610cd557610cd561308a565b9050602002810190610ce791906130a0565b858481518110610cf957610cf961308a565b6020026020010151611b97565b90910190600101610cb7565b50610d1d8482611e53565b505050610d2a6001600255565b505050565b600080846001600160a01b03168484604051610d4c9291906130c1565b600060405180830381855af49150503d8060008114610d87576040519150601f19603f3d011682016040523d82523d6000602084013e610d8c565b606091505b50915091508181604051632650415560e21b81526004016105a19291906130d1565b6000610db8611f47565b6001600160a01b031663570e1a3684846040518363ffffffff1660e01b8152600401610de5929190613115565b6020604051808303816000875af1158015610e04573d6000803e3d6000fd5b505050506040513d601f19601f82011682018060405250810190610e289190613129565b905080604051633653dc0360e11b81526004016105a19190613146565b33600090815260208190526040812060018101549091600160781b90910463ffffffff169003610ea45760405162461bcd60e51b815260206004820152600a6024820152691b9bdd081cdd185ad95960b21b60448201526064016105a1565b600181015460ff16610eec5760405162461bcd60e51b8152602060048201526011602482015270616c726561647920756e7374616b696e6760781b60448201526064016105a1565b6001810154600090610f0b90600160781b900463ffffffff164261315a565b60018301805460ff65ffffffffffff60981b011916600160981b65ffffffffffff841690810260ff19169190911790915560405190815290915033907ffa9b3c14cc825c412c9ed81b3ba365a5b459439403f18829e572ed53a4180f0a9060200161054a565b336000908152602081905260409020600181015461010090046001600160701b031680610fd75760405162461bcd60e51b81526020600482015260146024820152734e6f207374616b6520746f20776974686472617760601b60448201526064016105a1565b6001820154600160981b900465ffffffffffff166110375760405162461bcd60e51b815260206004820152601d60248201527f6d7573742063616c6c20756e6c6f636b5374616b65282920666972737400000060448201526064016105a1565b600182015442600160981b90910465ffffffffffff1611156110995760405162461bcd60e51b815260206004820152601b60248201527a5374616b65207769746864726177616c206973206e6f742064756560281b60448201526064016105a1565b600182018054610100600160c81b031916905560405133907fb7c918e0e249f999e965cafeb6c664271b3f4317d296461500e71da39f0cbda3906110e09086908590613064565b60405180910390a26000836001600160a01b03168260405160006040518083038185875af1925050503d8060008114611135576040519150601f19603f3d011682016040523d82523d6000602084013e61113a565b606091505b5050905080610b505760405162461bcd60e51b81526020600482015260186024820152776661696c656420746f207769746864726177207374616b6560401b60448201526064016105a1565b61118e6117e3565b816000805b828110156112ec57368686838181106111ae576111ae61308a565b90506020028101906111c09190613178565b90503660006111cf838061318e565b909250905060006111e66040850160208601612e44565b90506000196001600160a01b0382160161123c5760405162461bcd60e51b815260206004820152601760248201527620a09c9b1034b73b30b634b21030b3b3b932b3b0ba37b960491b60448201526064016105a1565b6001600160a01b038116156112d0576001600160a01b038116632dd81133848461126960408901896131d7565b6040518563ffffffff1660e01b8152600401611288949392919061333a565b60006040518083038186803b1580156112a057600080fd5b505afa9250505080156112b1575060015b6112d0578060405163086a9f7560e41b81526004016105a19190613146565b6112da8287613025565b95505060019093019250611193915050565b506000816001600160401b0381111561130757611307612a66565b60405190808252806020026020018201604052801561134057816020015b61132d6129ce565b8152602001906001900390816113255790505b5090506000805b8481101561141d57368888838181106113625761136261308a565b90506020028101906113749190613178565b9050366000611383838061318e565b9092509050600061139a6040850160208601612e44565b90508160005b8181101561140b5760008989815181106113bc576113bc61308a565b602002602001015190506000806113df8b898987818110610c5457610c5461308a565b915091506113ef84838389611a01565b8a6113f981613038565b9b5050600190930192506113a0915050565b50506001909401935061134792505050565b506040517fbb47ee3e183a558b1a2ff0874b079f3fc5478b7454eacf2bfc5af2ff5878f97290600090a150600080805b8581101561154b57368989838181106114685761146861308a565b905060200281019061147a9190613178565b905061148c6040820160208301612e44565b6001600160a01b03167f575ff3acadd5ab348fe1855e217e0f3678f8d767d7494c9f9fefbee2e17cca4d60405160405180910390a23660006114ce838061318e565b90925090508060005b8181101561153a57611519888585848181106114f5576114f561308a565b905060200281019061150791906130a0565b8b8b81518110610cf957610cf961308a565b6115239088613025565b96508761152f81613038565b9850506001016114d7565b50506001909301925061144d915050565b506040516000907f575ff3acadd5ab348fe1855e217e0f3678f8d767d7494c9f9fefbee2e17cca4d908290a26115818682611e53565b5050505050610d2a6001600255565b6001600160a01b0382166000908152602081905260408120805482906115b7908590613025565b91829055509392505050565b6000806000845160208601878987f195945050505050565b60603d828111156115e95750815b604051602082018101604052818152816000602083013e9392505050565b6000805a85519091506000908161161d82611f6b565b60e08301519091506001600160a01b03811661163c57825193506116f8565b8093506000885111156116f857868202955060028a6002811115611662576116626133c7565b146116f85760a0830151604051637c627b2160e01b81526001600160a01b03831691637c627b219161169e908e908d908c9089906004016133dd565b600060405180830381600088803b1580156116b857600080fd5b5087f1935050505080156116ca575060015b6116f85760006116db6108006115db565b905080604051632b5e552f60e21b81526004016105a19190613427565b5a60a0840151606085015160808c01519288039990990198019088038082111561172b576064600a828403020498909801975b505060408901518783029650868110156117875760028b6002811115611753576117536133c7565b03611776578096506117648a611f9d565b6117718a6000898b611fec565b6117bc565b63deadaa5160e01b60005260206000fd5b8681036117948682611590565b506000808d60028111156117aa576117aa6133c7565b1490506117b98c828b8d611fec565b50505b505050505050949350505050565b60006117d582612067565b805190602001209050919050565b600280540361180557604051633ee5aeb560e01b815260040160405180910390fd5b60028055565b60008060005a8451909150611820868261211f565b61182986610b56565b6020860152604081015161012082015161010083015160a08401516080850151606086015160c0870151861717171717176001600160781b038111156118ac5760405162461bcd60e51b815260206004820152601860248201527741413934206761732076616c756573206f766572666c6f7760401b60448201526064016105a1565b60006118db8460c081015160a08201516080830151606084015160408501516101009095015194010101010290565b90506118ea8a8a8a848761222c565b96506118fe846000015185602001516123b1565b6119515789604051631101335b60e11b81526004016105a1918152604060208201819052601a90820152794141323520696e76616c6964206163636f756e74206e6f6e636560301b606082015260800190565b825a860311156119ad5789604051631101335b60e11b81526004016105a1918152604060208201819052601e908201527f41413236206f76657220766572696669636174696f6e4761734c696d69740000606082015260800190565b60e08401516060906001600160a01b0316156119d4576119cf8b8b8b856123fe565b975090505b604089018290528060608a015260a08a01355a870301896080018181525050505050505050935093915050565b600080611a0d856125bc565b91509150816001600160a01b0316836001600160a01b031614611a735785604051631101335b60e11b81526004016105a19181526040602082018190526014908201527320a0991a1039b4b3b730ba3ab9329032b93937b960611b606082015260800190565b8015611ac55785604051631101335b60e11b81526004016105a191815260406020820181905260179082015276414132322065787069726564206f72206e6f742064756560481b606082015260800190565b6000611ad0856125bc565b925090506001600160a01b03811615611b2c5786604051631101335b60e11b81526004016105a19181526040602082018190526014908201527320a0999a1039b4b3b730ba3ab9329032b93937b960611b606082015260800190565b8115611b8e5786604051631101335b60e11b81526004016105a19181526040602082018190526021908201527f41413332207061796d61737465722065787069726564206f72206e6f742064756060820152606560f81b608082015260a00190565b50505050505050565b6000805a90506000611baa846060015190565b6040519091506000903682611bc260608a018a6131d7565b9150915060606000826003811115611bd957843591505b506372288ed160e01b6001600160e01b0319821601611c875760008b8b60200151604051602401611c0b92919061343a565b60408051601f198184030181529181526020820180516001600160e01b0316638dd7712f60e01b1790525190915030906242dc5390611c529084908f908d906024016134fc565b604051602081830303815290604052915060e01b6020820180516001600160e01b038381831617835250505050925050611cdc565b306001600160a01b03166242dc5385858d8b604051602401611cac9493929190613531565b604051602081830303815290604052915060e01b6020820180516001600160e01b03838183161783525050505091505b602060008351602085016000305af19550600051985084604052505050505080611e495760003d80602003611d175760206000803e60005191505b5063deaddead60e01b8103611d6a5787604051631101335b60e11b81526004016105a1918152604060208201819052600f908201526e41413935206f7574206f662067617360881b606082015260800190565b63deadaa5160e01b8103611dbb57600086608001515a611d8a9087613051565b611d949190613025565b6040880151909150611da588611f9d565b611db28860008385611fec565b9550611e479050565b855180516020808901519201516001600160a01b0390911691907ff62676f440ff169a3a9afdbf812e89e7f95975ee8e5c31214ffdef631c5f479290611e026108006115db565b604051611e10929190612ff6565b60405180910390a3600086608001515a611e2a9087613051565b611e349190613025565b9050611e436002888684611607565b9550505b505b5050509392505050565b6001600160a01b038216611ea45760405162461bcd60e51b81526020600482015260186024820152774141393020696e76616c69642062656e656669636961727960401b60448201526064016105a1565b6000826001600160a01b03168260405160006040518083038185875af1925050503d8060008114611ef1576040519150601f19603f3d011682016040523d82523d6000602084013e611ef6565b606091505b5050905080610d2a5760405162461bcd60e51b815260206004820152601f60248201527f41413931206661696c65642073656e6420746f2062656e65666963696172790060448201526064016105a1565b7f000000000000000000000000000000000000000000000000000000000000000090565b61010081015161012082015160009190808203611f89575092915050565b611f958248830161260f565b949350505050565b80518051602080840151928101516040519081526001600160a01b0390921692917f67b4fa9642f42120bf031f3051d1824b0fe25627945b27b8a6a65d5761d5482e910160405180910390a350565b835160e081015181516020808801519301516040516001600160a01b039384169492909316927f49628fd1471006c1482da88028e9ce4dbb080b815c9b0344d39e5a8e6ec1419f916120599189908990899093845291151560208401526040830152606082015260800190565b60405180910390a450505050565b606081356020830135600061208761208260408701876131d7565b612627565b9050600061209b61208260608801886131d7565b9050608086013560a087013560c088013560006120be61208260e08c018c6131d7565b604080516001600160a01b039a909a1660208b015289810198909852606089019690965250608087019390935260a086019190915260c085015260e08401526101008084019190915281518084039091018152610120909201905292915050565b61212c6020830183612e44565b6001600160a01b031681526020808301359082015261214e608083013561263a565b6060830152604082015260a082013560c0808301919091526121729083013561263a565b61010083015261012082015236600061218e60e08501856131d7565b909250905080156122115760348110156121ea5760405162461bcd60e51b815260206004820152601d60248201527f4141393320696e76616c6964207061796d6173746572416e644461746100000060448201526064016105a1565b6121f4828261264e565b60a086015260808501526001600160a01b031660e0840152610b50565b600060e084018190526080840181905260a084015250505050565b825180516000919061224b888761224660408b018b6131d7565b6126b6565b60e082015160006001600160a01b03821661228357600061226b84610b98565b905087811161227c5780880361227f565b60005b9150505b60208801516040516306608bdf60e21b81526001600160a01b038516916319822f7c9189916122b9918e91908790600401613567565b60206040518083038160008887f1935050505080156122f5575060408051601f3d908101601f191682019092526122f29181019061358c565b60015b61232057896123056108006115db565b6040516365c8fd4d60e01b81526004016105a19291906135a5565b94506001600160a01b0382166123a4576001600160a01b038316600090815260208190526040902080548089111561239e578b604051631101335b60e11b81526004016105a19181526040602082018190526017908201527610504c8c48191a591b89dd081c185e481c1c99599d5b99604a1b606082015260800190565b88900390555b5050505095945050505050565b6001600160a01b038216600090815260016020908152604080832084821c80855292528220805484916001600160401b0383169190856123f083613038565b909155501495945050505050565b60606000805a855160e08101516001600160a01b03811660009081526020819052604090208054939450919290919087811015612487578a604051631101335b60e11b81526004016105a1918152604060208201819052601e908201527f41413331207061796d6173746572206465706f73697420746f6f206c6f770000606082015260800190565b8781038260000181905550600084608001519050836001600160a01b03166352b7512c828d8d602001518d6040518563ffffffff1660e01b81526004016124d093929190613567565b60006040518083038160008887f19350505050801561251157506040513d6000823e601f3d908101601f1916820160405261250e91908101906135e2565b60015b61253c578b6125216108006115db565b6040516365c8fd4d60e01b81526004016105a1929190613662565b9098509650805a870311156125ad578b604051631101335b60e11b81526004016105a19181526040602082018190526027908201527f41413336206f766572207061796d6173746572566572696669636174696f6e47606082015266185cd31a5b5a5d60ca1b608082015260a00190565b50505050505094509492505050565b600080826000036125d257506000928392509050565b60006125dd8461295d565b9050806040015165ffffffffffff164211806126045750806020015165ffffffffffff1642105b905194909350915050565b600081831061261e5781612620565b825b9392505050565b6000604051828085833790209392505050565b608081901c916001600160801b0390911690565b6000808061265f601482868861369f565b612668916136c9565b60601c61267960246014878961369f565b61268291613701565b60801c61269360346024888a61369f565b61269c91613701565b9194506001600160801b0316925060801c90509250925092565b8015610b50578251516001600160a01b0381163b156127215784604051631101335b60e11b81526004016105a1918152604060208201819052601f908201527f414131302073656e64657220616c726561647920636f6e737472756374656400606082015260800190565b600061272b611f47565b6001600160a01b031663570e1a3686600001516040015186866040518463ffffffff1660e01b8152600401612761929190613115565b60206040518083038160008887f1158015612780573d6000803e3d6000fd5b50505050506040513d601f19601f820116820180604052508101906127a59190613129565b90506001600160a01b0381166128055785604051631101335b60e11b81526004016105a1918152604060208201819052601b908201527a4141313320696e6974436f6465206661696c6564206f72204f4f4760281b606082015260800190565b816001600160a01b0316816001600160a01b03161461286f5785604051631101335b60e11b81526004016105a191815260406020808301829052908201527f4141313420696e6974436f6465206d7573742072657475726e2073656e646572606082015260800190565b806001600160a01b03163b6000036128d25785604051631101335b60e11b81526004016105a191815260406020808301829052908201527f4141313520696e6974436f6465206d757374206372656174652073656e646572606082015260800190565b60006128e1601482868861369f565b6128ea916136c9565b60601c9050826001600160a01b031686602001517fd51a9c61267aa6196961883ecf5ff2da6619c37dac0fa92122513fb32c032d2d83896000015160e0015160405161294c9291906001600160a01b0392831681529116602082015260400190565b60405180910390a350505050505050565b60408051606081018252600080825260208201819052918101919091528160a081901c65ffffffffffff8116600003612999575065ffffffffffff5b604080516060810182526001600160a01b03909316835260d09490941c602083015265ffffffffffff16928101929092525090565b6040518060a00160405280612a4160405180610140016040528060006001600160a01b0316815260200160008152602001600081526020016000815260200160008152602001600081526020016000815260200160006001600160a01b0316815260200160008152602001600081525090565b8152602001600080191681526020016000815260200160008152602001600081525090565b634e487b7160e01b600052604160045260246000fd5b60405160a081016001600160401b0381118282101715612a9e57612a9e612a66565b60405290565b60405161014081016001600160401b0381118282101715612a9e57612a9e612a66565b604051601f8201601f191681016001600160401b0381118282101715612aef57612aef612a66565b604052919050565b60006001600160401b03821115612b1057612b10612a66565b50601f01601f191660200190565b6001600160a01b0381168114612b3357600080fd5b50565b8035612b4181612b1e565b919050565b60008183036101c0811215612b5a57600080fd5b612b62612a7c565b9150610140811215612b7357600080fd5b50612b7c612aa4565b612b8583612b36565b81526020838101359082015260408084013590820152606080840135908201526080808401359082015260a0808401359082015260c08084013590820152612bcf60e08401612b36565b60e08201526101008381013590820152610120808401359082015281526101408201356020820152610160820135604082015261018082013560608201526101a0909101356080820152919050565b60008083601f840112612c3057600080fd5b5081356001600160401b03811115612c4757600080fd5b602083019150836020828501011115612c5f57600080fd5b9250929050565b6000806000806102008587031215612c7d57600080fd5b84356001600160401b03811115612c9357600080fd5b8501601f81018713612ca457600080fd5b8035612cb7612cb282612af7565b612ac7565b818152886020838501011115612ccc57600080fd5b81602084016020830137600060208383010152809650505050612cf28660208701612b46565b92506101e08501356001600160401b03811115612d0e57600080fd5b612d1a87828801612c1e565b95989497509550505050565b600060208284031215612d3857600080fd5b81356001600160e01b03198116811461262057600080fd5b600060208284031215612d6257600080fd5b813563ffffffff8116811461262057600080fd5b80356001600160c01b0381168114612b4157600080fd5b600060208284031215612d9f57600080fd5b61262082612d76565b60008060408385031215612dbb57600080fd5b8235612dc681612b1e565b9150612dd460208401612d76565b90509250929050565b60008060408385031215612df057600080fd5b8235612dfb81612b1e565b946020939093013593505050565b600060208284031215612e1b57600080fd5b81356001600160401b03811115612e3157600080fd5b8201610120818503121561262057600080fd5b600060208284031215612e5657600080fd5b813561262081612b1e565b60008083601f840112612e7357600080fd5b5081356001600160401b03811115612e8a57600080fd5b6020830191508360208260051b8501011115612c5f57600080fd5b600080600060408486031215612eba57600080fd5b83356001600160401b03811115612ed057600080fd5b612edc86828701612e61565b9094509250506020840135612ef081612b1e565b809150509250925092565b600080600060408486031215612f1057600080fd5b8335612f1b81612b1e565b925060208401356001600160401b03811115612f3657600080fd5b612f4286828701612c1e565b9497909650939450505050565b60008060208385031215612f6257600080fd5b82356001600160401b03811115612f7857600080fd5b612f8485828601612c1e565b90969095509350505050565b634e487b7160e01b600052601260045260246000fd5b60005b83811015612fc1578181015183820152602001612fa9565b50506000910152565b60008151808452612fe2816020860160208601612fa6565b601f01601f19169290920160200192915050565b828152604060208201526000611f956040830184612fca565b634e487b7160e01b600052601160045260246000fd5b8082018082111561075b5761075b61300f565b60006001820161304a5761304a61300f565b5060010190565b8181038181111561075b5761075b61300f565b6001600160a01b03929092168252602082015260400190565b6001600160a01b03169052565b634e487b7160e01b600052603260045260246000fd5b6000823561011e198336030181126130b757600080fd5b9190910192915050565b8183823760009101908152919050565b8215158152604060208201526000611f956040830184612fca565b81835281816020850137506000828201602090810191909152601f909101601f19169091010190565b602081526000611f956020830184866130ec565b60006020828403121561313b57600080fd5b815161262081612b1e565b6001600160a01b0391909116815260200190565b65ffffffffffff818116838216019081111561075b5761075b61300f565b60008235605e198336030181126130b757600080fd5b6000808335601e198436030181126131a557600080fd5b8301803591506001600160401b038211156131bf57600080fd5b6020019150600581901b3603821315612c5f57600080fd5b6000808335601e198436030181126131ee57600080fd5b8301803591506001600160401b0382111561320857600080fd5b602001915036819003821315612c5f57600080fd5b6000808335601e1984360301811261323457600080fd5b83016020810192503590506001600160401b0381111561325357600080fd5b803603821315612c5f57600080fd5b6132748261326f83612b36565b61307d565b60208181013590830152600061328d604083018361321d565b61012060408601526132a4610120860182846130ec565b9150506132b4606084018461321d565b85830360608701526132c78382846130ec565b6080868101359088015260a0808701359088015260c0808701359088015292506132f791505060e084018461321d565b85830360e087015261330a8382846130ec565b9250505061331c61010084018461321d565b8583036101008701526133308382846130ec565b9695505050505050565b6040808252810184905260006060600586901b83018101908301878361011e1936839003015b898210156133a557868503605f19018452823581811261337f57600080fd5b61338b868d8301613262565b955050602083019250602084019350600182019150613360565b5050505082810360208401526133bc8185876130ec565b979650505050505050565b634e487b7160e01b600052602160045260246000fd5b6000600386106133fd57634e487b7160e01b600052602160045260246000fd5b858252608060208301526134146080830186612fca565b6040830194909452506060015292915050565b6020815260006126206020830184612fca565b60408152600061344d6040830185613262565b90508260208301529392505050565b805161346983825161307d565b6020810151602084015260408101516040840152606081015160608401526080810151608084015260a081015160a084015260c081015160c084015260e08101516134b760e085018261307d565b5061010081810151908401526101209081015190830152602081015161014083015260408101516101608301526060810151610180830152608001516101a090910152565b61020081526000613511610200830186612fca565b61351e602084018661345c565b8281036101e08401526133308185612fca565b61020081526000613547610200830186886130ec565b613554602084018661345c565b8281036101e08401526133bc8185612fca565b60608152600061357a6060830186613262565b60208301949094525060400152919050565b60006020828403121561359e57600080fd5b5051919050565b82815260606020820152600d60608201526c10504c8cc81c995d995c9d1959609a1b608082015260a060408201526000611f9560a0830184612fca565b600080604083850312156135f557600080fd5b82516001600160401b0381111561360b57600080fd5b8301601f8101851361361c57600080fd5b805161362a612cb282612af7565b81815286602083850101111561363f57600080fd5b613650826020830160208601612fa6565b60209590950151949694955050505050565b82815260606020820152600d60608201526c10504cccc81c995d995c9d1959609a1b608082015260a060408201526000611f9560a0830184612fca565b600080858511156136af57600080fd5b838611156136bc57600080fd5b5050820193919092039150565b80356001600160601b031981169060148410156136fa576001600160601b0319601485900360031b81901b82161691505b5092915050565b80356001600160801b031981169060108410156136fa576001600160801b031960109490940360031b84901b169092169291505056fea2646970667358221220ac5943bc76e867a17ea313be9c47e2177754387e51a7300070b616fcc1dce5a364736f6c634300081c00336080604052348015600f57600080fd5b506101f68061001f6000396000f3fe608060405234801561001057600080fd5b506004361061002b5760003560e01c8063570e1a3614610030575b600080fd5b61004361003e3660046100ec565b61005f565b6040516001600160a01b03909116815260200160405180910390f35b60008061006f601482858761015e565b61007891610188565b60601c9050600061008c846014818861015e565b8080601f016020809104026020016040519081016040528093929190818152602001838380828437600092018290525084519495509360209350849250905082850182875af190506000519350806100e357600093505b50505092915050565b600080602083850312156100ff57600080fd5b82356001600160401b0381111561011557600080fd5b8301601f8101851361012657600080fd5b80356001600160401b0381111561013c57600080fd5b85602082840101111561014e57600080fd5b6020919091019590945092505050565b6000808585111561016e57600080fd5b8386111561017b57600080fd5b5050820193919092039150565b80356001600160601b031981169060148410156101b9576001600160601b0319601485900360031b81901b82161691505b509291505056fea2646970667358221220c62e9ff16057810558039f07ac3c6b1b06c757217be0572d2ad8155943cb945e64736f6c634300081c0033",
  "devdoc": {
    "custom:security-contact": "https://bounty.ethereum.org",
    "errors": {
      "FailedOp(uint256,string)": [
        {
          "params": {
            "opIndex": "- Index into the array of ops to the failed one (in simulateValidation, this is always zero).",
            "reason": "- Revert reason. The string starts with a unique code \"AAmn\",                  where \"m\" is \"1\" for factory, \"2\" for account and \"3\" for paymaster issues,                  so a failure can be attributed to the correct entity."
          }
        }
      ],
      "FailedOpWithRevert(uint256,string,bytes)": [
        {
          "details": "note that inner is truncated to 2048 bytes",
          "params": {
            "inner": "- data from inner cought revert reason",
            "opIndex": "- Index into the array of ops to the failed one (in simulateValidation, this is always zero).",
            "reason": "- Revert reason. see FailedOp(uint256,string), above"
          }
        }
      ],
      "ReentrancyGuardReentrantCall()": [
        {
          "details": "Unauthorized reentrant call."
        }
      ],
      "SignatureValidationFailed(address)": [
        {
          "params": {
            "aggregator": "The aggregator that failed to verify the signature"
          }
        }
      ]
    },
    "events": {
      "AccountDeployed(bytes32,address,address,address)": {
        "params": {
          "factory": "- The factory used to deploy this account (in the initCode)",
          "paymaster": "- The paymaster used by this UserOp",
          "sender": "- The account that is deployed",
          "userOpHash": "- The userOp that deployed this account. UserOperationEvent will follow."
        }
      },
      "PostOpRevertReason(bytes32,address,uint256,bytes)": {
        "params": {
          "nonce": "- The nonce used in the request.",
          "revertReason": "- The return bytes from the (reverted) call to \"callData\".",
          "sender": "- The sender of this request.",
          "userOpHash": "- The request unique identifier."
        }
      },
      "SignatureAggregatorChanged(address)": {
        "params": {
          "aggregator": "- The aggregator used for the following UserOperationEvents."
        }
      },
      "UserOperationPrefundTooLow(bytes32,address,uint256)": {
        "params": {
          "nonce": "- The nonce used in the request.",
          "sender": "- The sender of this request.",
          "userOpHash": "- The request unique identifier."
        }
      },
      "UserOperationRevertReason(bytes32,address,uint256,bytes)": {
        "params": {
          "nonce": "- The nonce used in the request.",
          "revertReason": "- The return bytes from the (reverted) call to \"callData\".",
          "sender": "- The sender of this request.",
          "userOpHash": "- The request unique identifier."
        }
      }
    },
    "kind": "dev",
    "methods": {
      "addStake(uint32)": {
        "params": {
          "unstakeDelaySec": "The new lock duration before the deposit can be withdrawn."
        }
      },
      "balanceOf(address)": {
        "params": {
          "account": "- The account to query."
        },
        "returns": {
          "_0": "- The deposit (for gas payment) of the account."
        }
      },
      "delegateAndRevert(address,bytes)": {
        "details": "calling this method, the EntryPoint will make a delegatecall to the given data, and report (via revert) the result.  The method always revert, so is only useful off-chain for dry run calls, in cases where state-override to replace  actual EntryPoint code is less convenient.",
        "params": {
          "data": "data to pass to target in a delegatecall",
          "target": "a target contract to make a delegatecall from entrypoint"
        }
      },
      "depositTo(address)": {
        "params": {
          "account": "- The account to add to."
        }
      },
      "getDepositInfo(address)": {
        "params": {
          "account": "- The account to query."
        },
        "returns": {
          "info": "  - Full deposit information of given account."
        }
      },
      "getNonce(address,uint192)": {
        "params": {
          "key": "the high 192 bit of the nonce",
          "sender": "the account address"
        },
        "returns": {
          "nonce": "a full nonce to pass for next UserOp with this sender."
        }
      },
      "getSenderAddress(bytes)": {
        "params": {
          "initCode": "- The constructor code to be passed into the UserOperation."
        }
      },
      "getUserOpHash((address,uint256,bytes,bytes,bytes32,uint256,bytes32,bytes,bytes))": {
        "params": {
          "userOp": "- The user operation to generate the request ID for."
        },
        "returns": {
          "_0": "hash the hash of this UserOperation"
        }
      },
      "handleAggregatedOps(((address,uint256,bytes,bytes,bytes32,uint256,bytes32,bytes,bytes)[],address,bytes)[],address)": {
        "params": {
          "beneficiary": "- The address to receive the fees.",
          "opsPerAggregator": "- The operations to execute, grouped by aggregator (or address(0) for no-aggregator accounts)."
        }
      },
      "handleOps((address,uint256,bytes,bytes,bytes32,uint256,bytes32,bytes,bytes)[],address)": {
        "params": {
          "beneficiary": "- The address to receive the fees.",
          "ops": "- The operations to execute."
        }
      },
      "innerHandleOp(bytes,((address,uint256,uint256,uint256,uint256,uint256,uint256,address,uint256,uint256),bytes32,uint256,uint256,uint256),bytes)": {
        "params": {
          "callData": "- The callData to execute.",
          "context": "- The context bytes.",
          "opInfo": "- The UserOpInfo struct."
        },
        "returns": {
          "actualGasCost": "- the actual cost in eth this UserOperation paid for gas"
        }
      },
      "supportsInterface(bytes4)": {
        "details": "Returns true if this contract implements the interface defined by `interfaceId`. See the corresponding https://eips.ethereum.org/EIPS/eip-165#how-interfaces-are-identified[ERC section] to learn more about how these ids are created. This function call must use less than 30 000 gas."
      },
      "withdrawStake(address)": {
        "params": {
          "withdrawAddress": "- The address to send withdrawn value."
        }
      },
      "withdrawTo(address,uint256)": {
        "params": {
          "withdrawAddress": "- The address to send withdrawn value.",
          "withdrawAmount": "- The amount to withdraw."
        }
      }
    },
    "version": 1
  },
  "userdoc": {
    "errors": {
      "FailedOp(uint256,string)": [
        {
          "notice": "A custom revert error of handleOps, to identify the offending op. Should be caught in off-chain handleOps simulation and not happen on-chain. Useful for mitigating DoS attempts against batchers or for troubleshooting of factory/account/paymaster reverts. NOTE: If simulateValidation passes successfully, there should be no reason for handleOps to fail on it."
        }
      ],
      "FailedOpWithRevert(uint256,string,bytes)": [
        {
          "notice": "A custom revert error of handleOps, to report a revert by account or paymaster."
        }
      ],
      "SignatureValidationFailed(address)": [
        {
          "notice": "Error case when a signature aggregator fails to verify the aggregated signature it had created."
        }
      ]
    },
    "events": {
      "AccountDeployed(bytes32,address,address,address)": {
        "notice": "Account \"sender\" was deployed."
      },
      "BeforeExecution()": {
        "notice": "An event emitted by handleOps(), before starting the execution loop. Any event emitted before this event, is part of the validation."
      },
      "PostOpRevertReason(bytes32,address,uint256,bytes)": {
        "notice": "An event emitted if the UserOperation Paymaster's \"postOp\" call reverted with non-zero length."
      },
      "SignatureAggregatorChanged(address)": {
        "notice": "Signature aggregator used by the following UserOperationEvents within this bundle."
      },
      "UserOperationPrefundTooLow(bytes32,address,uint256)": {
        "notice": "UserOp consumed more than prefund. The UserOperation is reverted, and no refund is made."
      },
      "UserOperationRevertReason(bytes32,address,uint256,bytes)": {
        "notice": "An event emitted if the UserOperation \"callData\" reverted with non-zero length."
      }
    },
    "kind": "user",
    "methods": {
      "addStake(uint32)": {
        "notice": "Add to the account's stake - amount and delay any pending unstake is first cancelled."
      },
      "balanceOf(address)": {
        "notice": "Get account balance."
      },
      "delegateAndRevert(address,bytes)": {
        "notice": "Helper method for dry-run testing."
      },
      "depositTo(address)": {
        "notice": "Add to the deposit of the given account."
      },
      "deposits(address)": {
        "notice": "maps paymaster to their deposits and stakes"
      },
      "getDepositInfo(address)": {
        "notice": "Get deposit info."
      },
      "getNonce(address,uint192)": {
        "notice": "Return the next nonce for this sender. Within a given key, the nonce values are sequenced (starting with zero, and incremented by one on each userop) But UserOp with different keys can come with arbitrary order."
      },
      "getSenderAddress(bytes)": {
        "notice": "Get counterfactual sender address. Calculate the sender contract address that will be generated by the initCode and salt in the UserOperation. This method always revert, and returns the address in SenderAddressResult error"
      },
      "getUserOpHash((address,uint256,bytes,bytes,bytes32,uint256,bytes32,bytes,bytes))": {
        "notice": "Generate a request Id - unique identifier for this request. The request ID is a hash over the content of the userOp (except the signature), the entrypoint and the chainid."
      },
      "handleAggregatedOps(((address,uint256,bytes,bytes,bytes32,uint256,bytes32,bytes,bytes)[],address,bytes)[],address)": {
        "notice": "Execute a batch of UserOperation with Aggregators"
      },
      "handleOps((address,uint256,bytes,bytes,bytes32,uint256,bytes32,bytes,bytes)[],address)": {
        "notice": "Execute a batch of UserOperations. No signature aggregator is used. If any account requires an aggregator (that is, it returned an aggregator when performing simulateValidation), then handleAggregatedOps() must be used instead."
      },
      "incrementNonce(uint192)": {
        "notice": "Manually increment the nonce of the sender. This method is exposed just for completeness.. Account does NOT need to call it, neither during validation, nor elsewhere, as the EntryPoint will update the nonce regardless. Possible use-case is call it with various keys to \"initialize\" their nonces to one, so that future UserOperations will not pay extra for the first transaction with a given key."
      },
      "innerHandleOp(bytes,((address,uint256,uint256,uint256,uint256,uint256,uint256,address,uint256,uint256),bytes32,uint256,uint256,uint256),bytes)": {
        "notice": "Inner function to handle a UserOperation. Must be declared \"external\" to open a call context, but it can only be called by handleOps."
      },
      "nonceSequenceNumber(address,uint192)": {
        "notice": "The next valid sequence number for a given nonce key."
      },
      "unlockStake()": {
        "notice": "Attempt to unlock the stake. The value can be withdrawn (using withdrawStake) after the unstake delay."
      },
      "withdrawStake(address)": {
        "notice": "Withdraw from the (unlocked) stake. Must first call unlockStake and wait for the unstakeDelay to pass."
      },
      "withdrawTo(address,uint256)": {
        "notice": "Withdraw from the deposit."
      }
    },
    "version": 1
  },
  "storageLayout": {
    "storage": [
      {
        "astId": 12450,
        "contract": "contracts/smart-accounts/core/EntryPoint.sol:EntryPoint",
        "label": "deposits",
        "offset": 0,
        "slot": "0",
        "type": "t_mapping(t_address,t_struct(DepositInfo)13619_storage)"
      },
      {
        "astId": 12313,
        "contract": "contracts/smart-accounts/core/EntryPoint.sol:EntryPoint",
        "label": "nonceSequenceNumber",
        "offset": 0,
        "slot": "1",
        "type": "t_mapping(t_address,t_mapping(t_uint192,t_uint256))"
      },
      {
        "astId": 3478,
        "contract": "contracts/smart-accounts/core/EntryPoint.sol:EntryPoint",
        "label": "_status",
        "offset": 0,
        "slot": "2",
        "type": "t_uint256"
      }
    ],
    "types": {
      "t_address": {
        "encoding": "inplace",
        "label": "address",
        "numberOfBytes": "20"
      },
      "t_bool": {
        "encoding": "inplace",
        "label": "bool",
        "numberOfBytes": "1"
      },
      "t_mapping(t_address,t_mapping(t_uint192,t_uint256))": {
        "encoding": "mapping",
        "key": "t_address",
        "label": "mapping(address => mapping(uint192 => uint256))",
        "numberOfBytes": "32",
        "value": "t_mapping(t_uint192,t_uint256)"
      },
      "t_mapping(t_address,t_struct(DepositInfo)13619_storage)": {
        "encoding": "mapping",
        "key": "t_address",
        "label": "mapping(address => struct IStakeManager.DepositInfo)",
        "numberOfBytes": "32",
        "value": "t_struct(DepositInfo)13619_storage"
      },
      "t_mapping(t_uint192,t_uint256)": {
        "encoding": "mapping",
        "key": "t_uint192",
        "label": "mapping(uint192 => uint256)",
        "numberOfBytes": "32",
        "value": "t_uint256"
      },
      "t_struct(DepositInfo)13619_storage": {
        "encoding": "inplace",
        "label": "struct IStakeManager.DepositInfo",
        "members": [
          {
            "astId": 13610,
            "contract": "contracts/smart-accounts/core/EntryPoint.sol:EntryPoint",
            "label": "deposit",
            "offset": 0,
            "slot": "0",
            "type": "t_uint256"
          },
          {
            "astId": 13612,
            "contract": "contracts/smart-accounts/core/EntryPoint.sol:EntryPoint",
            "label": "staked",
            "offset": 0,
            "slot": "1",
            "type": "t_bool"
          },
          {
            "astId": 13614,
            "contract": "contracts/smart-accounts/core/EntryPoint.sol:EntryPoint",
            "label": "stake",
            "offset": 1,
            "slot": "1",
            "type": "t_uint112"
          },
          {
            "astId": 13616,
            "contract": "contracts/smart-accounts/core/EntryPoint.sol:EntryPoint",
            "label": "unstakeDelaySec",
            "offset": 15,
            "slot": "1",
            "type": "t_uint32"
          },
          {
            "astId": 13618,
            "contract": "contracts/smart-accounts/core/EntryPoint.sol:EntryPoint",
            "label": "withdrawTime",
            "offset": 19,
            "slot": "1",
            "type": "t_uint48"
          }
        ],
        "numberOfBytes": "64"
      },
      "t_uint112": {
        "encoding": "inplace",
        "label": "uint112",
        "numberOfBytes": "14"
      },
      "t_uint192": {
        "encoding": "inplace",
        "label": "uint192",
        "numberOfBytes": "24"
      },
      "t_uint256": {
        "encoding": "inplace",
        "label": "uint256",
        "numberOfBytes": "32"
      },
      "t_uint32": {
        "encoding": "inplace",
        "label": "uint32",
        "numberOfBytes": "4"
      },
      "t_uint48": {
        "encoding": "inplace",
        "label": "uint48",
        "numberOfBytes": "6"
      }
    }
  }
}