{
  "address": "0x380e319530d39CD7a5c8B6E398BbDCBa577Cc870",
  "abi": [
    {
      "inputs": [
        {
          "internalType": "contract IEntryPoint",
          "name": "_entryPoint",
          "type": "address"
        }
      ],
      "stateMutability": "nonpayable",
      "type": "constructor"
    },
    {
      "inputs": [],
      "name": "accountImplementation",
      "outputs": [
        {
          "internalType": "contract SimpleAccount",
          "name": "",
          "type": "address"
        }
      ],
      "stateMutability": "view",
      "type": "function"
    },
    {
      "inputs": [
        {
          "internalType": "address",
          "name": "owner",
          "type": "address"
        },
        {
          "internalType": "uint256",
          "name": "salt",
          "type": "uint256"
        }
      ],
      "name": "createAccount",
      "outputs": [
        {
          "internalType": "contract SimpleAccount",
          "name": "ret",
          "type": "address"
        }
      ],
      "stateMutability": "nonpayable",
      "type": "function"
    },
    {
      "inputs": [
        {
          "internalType": "address",
          "name": "owner",
          "type": "address"
        },
        {
          "internalType": "uint256",
          "name": "salt",
          "type": "uint256"
        }
      ],
      "name": "getAddress",
      "outputs": [
        {
          "internalType": "address",
          "name": "",
          "type": "address"
        }
      ],
      "stateMutability": "view",
      "type": "function"
    }
  ],
  "transactionHash": "0xb4c8bfdf4f364e2c2f64d22e603184e1b80483359cb126083319b0f3a2de5621",
  "args": [
    "0x210a5cebBa08e5fAA01b17974BE5a3C8f58E3d30"
  ],
  "numDeployments": 1,
  "solcInputHash": "bfd87a590ee9e25eb8fc77ae634356ac",
  "bytecode": "0x60a060405234801561001057600080fd5b506040516129f53803806129f583398101604081905261002f91610088565b8060405161003c9061007b565b6001600160a01b039091168152602001604051809103906000f080158015610068573d6000803e3d6000fd5b506001600160a01b0316608052506100b8565b61215d8061089883390190565b60006020828403121561009a57600080fd5b81516001600160a01b03811681146100b157600080fd5b9392505050565b6080516107b96100df60003960008181604b0152818160d701526101a101526107b96000f3fe608060405234801561001057600080fd5b50600436106100415760003560e01c806311464fbe146100465780635fbfb9cf146100835780638cb84e1814610096575b600080fd5b61006d7f000000000000000000000000000000000000000000000000000000000000000081565b60405161007a9190610292565b60405180910390f35b61006d6100913660046102a6565b6100a9565b61006d6100a43660046102a6565b610172565b6000806100b68484610172565b90506001600160a01b0381163b80156100d15750905061016c565b8360001b7f0000000000000000000000000000000000000000000000000000000000000000866040516024016101079190610292565b60408051601f198184030181529181526020820180516001600160e01b031663189acdbd60e31b1790525161013b90610285565b610146929190610302565b8190604051809103906000f5905080158015610166573d6000803e3d6000fd5b50925050505b92915050565b60006102438260001b6040518060200161018b90610285565b6020820181038252601f19601f820116604052507f0000000000000000000000000000000000000000000000000000000000000000866040516024016101d19190610292565b60408051601f19818403018152918152602080830180516001600160e01b031663189acdbd60e31b179052905161020a93929101610302565b60408051601f19818403018152908290526102289291602001610344565b6040516020818303038152906040528051906020012061024a565b9392505050565b60006102438383306000604051836040820152846020820152828152600b8101905060ff8153605590206001600160a01b0316949350505050565b6104108061037483390190565b6001600160a01b0391909116815260200190565b600080604083850312156102b957600080fd5b82356001600160a01b03811681146102d057600080fd5b946020939093013593505050565b60005b838110156102f95781810151838201526020016102e1565b50506000910152565b60018060a01b0383168152604060208201526000825180604084015261032f8160608501602087016102de565b601f01601f1916919091016060019392505050565b600083516103568184602088016102de565b83519083019061036a8183602088016102de565b0194935050505056fe608060405260405161041038038061041083398101604081905261002291610268565b61002c8282610033565b5050610358565b61003c82610092565b6040516001600160a01b038316907fbc7cd75a20ee27fd9adebab32041f755214dbc6bffa90cc0225b39da2e5c2d3b90600090a280511561008657610081828261010e565b505050565b61008e610185565b5050565b806001600160a01b03163b6000036100cd57604051634c9c8ce360e01b81526001600160a01b03821660048201526024015b60405180910390fd5b7f360894a13ba1a3210667c828492db98dca3e2076cc3735a920a3ca505d382bbc80546001600160a01b0319166001600160a01b0392909216919091179055565b6060600080846001600160a01b03168460405161012b919061033c565b600060405180830381855af49150503d8060008114610166576040519150601f19603f3d011682016040523d82523d6000602084013e61016b565b606091505b50909250905061017c8583836101a6565b95945050505050565b34156101a45760405163b398979f60e01b815260040160405180910390fd5b565b6060826101bb576101b682610205565b6101fe565b81511580156101d257506001600160a01b0384163b155b156101fb57604051639996b31560e01b81526001600160a01b03851660048201526024016100c4565b50805b9392505050565b8051156102155780518082602001fd5b60405163d6bda27560e01b815260040160405180910390fd5b634e487b7160e01b600052604160045260246000fd5b60005b8381101561025f578181015183820152602001610247565b50506000910152565b6000806040838503121561027b57600080fd5b82516001600160a01b038116811461029257600080fd5b60208401519092506001600160401b038111156102ae57600080fd5b8301601f810185136102bf57600080fd5b80516001600160401b038111156102d8576102d861022e565b604051601f8201601f19908116603f011681016001600160401b03811182821017156103065761030661022e565b60405281815282820160200187101561031e57600080fd5b61032f826020830160208601610244565b8093505050509250929050565b6000825161034e818460208701610244565b9190910192915050565b60aa806103666000396000f3fe6080604052600a600c565b005b60186014601a565b6051565b565b6000604c7f360894a13ba1a3210667c828492db98dca3e2076cc3735a920a3ca505d382bbc546001600160a01b031690565b905090565b3660008037600080366000845af43d6000803e808015606f573d6000f35b3d6000fdfea2646970667358221220c76f28ab2766423a441af0960cbe119e736b1cf9c801e3a517f87774e0490a5164736f6c634300081c0033a26469706673582212209110cd573b9dec6891c521a04c9e949d91f12bad00ebfbe9d1271b543119e10964736f6c634300081c003360c06040523060805234801561001457600080fd5b5060405161215d38038061215d83398101604081905261003391610100565b6001600160a01b03811660a05261004861004e565b50610130565b7ff0c57e16840df040f15088dc2f81fe391c3923bec73e23a9662efc9c229c6a00805468010000000000000000900460ff161561009e5760405163f92ee8a960e01b815260040160405180910390fd5b80546001600160401b03908116146100fd5780546001600160401b0319166001600160401b0390811782556040519081527fc7f505b2f371ae2175ee4913f4499e1f2633a7b5936321eed1cdaeb6115181d29060200160405180910390a15b50565b60006020828403121561011257600080fd5b81516001600160a01b038116811461012957600080fd5b9392505050565b60805160a051611ff361016a600039600081816109600152611197015260008181610ec801528181610ef1015261102e0152611ff36000f3fe6080604052600436106100e85760003560e01c806301ffc9a7146100f4578063150b7a021461012957806319822f7c1461016e578063275573541461019c57806347e1da2a146101b15780634a58db19146101d15780634d44560d146101d95780634f1ef286146101f957806352d1902d1461020c57806384b0196e146102215780638da5cb5b14610249578063ad3cb1cc14610276578063b0d691fe146102b4578063b61d27f6146102c9578063bc197c81146102e9578063c399ec8814610318578063c4d66de81461032d578063d087d2881461034d578063f23a6e611461036257600080fd5b366100ef57005b600080fd5b34801561010057600080fd5b5061011461010f36600461172f565b61038f565b60405190151581526020015b60405180910390f35b34801561013557600080fd5b506101556101443660046117b6565b630a85bd0160e11b95945050505050565b6040516001600160e01b03199091168152602001610120565b34801561017a57600080fd5b5061018e610189366004611828565b6103e1565b604051908152602001610120565b6101af6101aa36600461187b565b610407565b005b3480156101bd57600080fd5b506101af6101cc366004611961565b610623565b6101af6107a1565b3480156101e557600080fd5b506101af6101f4366004611a04565b610809565b6101af610207366004611a46565b610879565b34801561021857600080fd5b5061018e610898565b34801561022d57600080fd5b506102366108b5565b6040516101209796959493929190611b5f565b34801561025557600080fd5b50600054610269906001600160a01b031681565b6040516101209190611bf7565b34801561028257600080fd5b506102a7604051806040016040528060058152602001640352e302e360dc1b81525081565b6040516101209190611c0b565b3480156102c057600080fd5b5061026961095e565b3480156102d557600080fd5b506101af6102e4366004611c1e565b610982565b3480156102f557600080fd5b50610155610304366004611c79565b63bc197c8160e01b98975050505050505050565b34801561032457600080fd5b5061018e6109d1565b34801561033957600080fd5b506101af610348366004611d21565b610a4c565b34801561035957600080fd5b5061018e610b8d565b34801561036e57600080fd5b5061015561037d366004611d3e565b63f23a6e6160e01b9695505050505050565b60006001600160e01b03198216630a85bd0160e11b14806103c057506001600160e01b03198216630271189760e51b145b806103db57506001600160e01b031982166301ffc9a760e01b145b92915050565b60006103eb610bcc565b6103f58484610c35565b905061040082610cdb565b9392505050565b8342116104595760405162461bcd60e51b815260206004820152601b60248201527a105d5d1a1bdc9a5e985d1a5bdb881b9bdd081e595d081d985b1a59602a1b60448201526064015b60405180910390fd5b8242106104a05760405162461bcd60e51b8152602060048201526015602482015274105d5d1a1bdc9a5e985d1a5bdb88195e1c1a5c9959605a1b6044820152606401610450565b60007f7032ab04021a3b51f8b532963600986c79192b2787e1b469d2ea7458cf9d8f44898989896040516104d5929190611da7565b60405190819003812061051d949392918a908a906020019586526001600160a01b0394909416602086015260408501929092526060840152608083015260a082015260c00190565b604051602081830303815290604052805190602001209050600061054082610d28565b905060006105848286868080601f016020809104026020016040519081016040528093929190818152602001838380828437600092019190915250610d5592505050565b6000549091506001600160a01b038083169116146105d55760405162461bcd60e51b815260206004820152600e60248201526d24b73b30b634b21039b4b3b732b960911b6044820152606401610450565b6106168b8b8b8b8080601f016020809104026020016040519081016040528093929190818152602001838380828437600092019190915250610d7f92505050565b5050505050505050505050565b61062b610def565b8481148015610641575082158061064157508281145b6106835760405162461bcd60e51b815260206004820152601360248201527277726f6e67206172726179206c656e6774687360681b6044820152606401610450565b600083900361072f5760005b85811015610729576107218787838181106106ac576106ac611db7565b90506020020160208101906106c19190611d21565b60008585858181106106d5576106d5611db7565b90506020028101906106e79190611dcd565b8080601f016020809104026020016040519081016040528093929190818152602001838380828437600092019190915250610d7f92505050565b60010161068f565b50610799565b60005b858110156107975761078f87878381811061074f5761074f611db7565b90506020020160208101906107649190611d21565b86868481811061077657610776611db7565b905060200201358585858181106106d5576106d5611db7565b600101610732565b505b505050505050565b6107a961095e565b6001600160a01b031663b760faf934306040518363ffffffff1660e01b81526004016107d59190611bf7565b6000604051808303818588803b1580156107ee57600080fd5b505af1158015610802573d6000803e3d6000fd5b5050505050565b610811610e6c565b61081961095e565b60405163040b850f60e31b81526001600160a01b03848116600483015260248201849052919091169063205c287890604401600060405180830381600087803b15801561086557600080fd5b505af1158015610799573d6000803e3d6000fd5b610881610ebd565b61088a82610f62565b6108948282610f6a565b5050565b60006108a2611023565b50600080516020611f9e83398151915290565b60006060806000806000606060006108cb61106c565b80549091501580156108df57506001810154155b6109235760405162461bcd60e51b81526020600482015260156024820152741152540dcc4c8e88155b9a5b9a5d1a585b1a5e9959605a1b6044820152606401610450565b61092b611090565b610933611131565b60408051600080825260208201909252600f60f81b9c939b5091995046985030975095509350915050565b7f000000000000000000000000000000000000000000000000000000000000000090565b61098a610def565b6109cb848484848080601f016020809104026020016040519081016040528093929190818152602001838380828437600092019190915250610d7f92505050565b50505050565b60006109db61095e565b6001600160a01b03166370a08231306040518263ffffffff1660e01b8152600401610a069190611bf7565b602060405180830381865afa158015610a23573d6000803e3d6000fd5b505050506040513d601f19601f82011682018060405250810190610a479190611e13565b905090565b6000610a5661114e565b805490915060ff600160401b82041615906001600160401b0316600081158015610a7d5750825b90506000826001600160401b03166001148015610a995750303b155b905081158015610aa7575080155b15610ac55760405163f92ee8a960e01b815260040160405180910390fd5b84546001600160401b03191660011785558315610aee57845460ff60401b1916600160401b1785555b610af786611172565b610b386040518060400160405280600681526020016515d85b1b195d60d21b815250604051806040016040528060018152602001603160f81b8152506111e1565b610b406111f3565b831561079957845460ff60401b19168555604051600181527fc7f505b2f371ae2175ee4913f4499e1f2633a7b5936321eed1cdaeb6115181d29060200160405180910390a1505050505050565b6000610b9761095e565b604051631aab3f0d60e11b8152306004820152600060248201526001600160a01b0391909116906335567e1a90604401610a06565b610bd461095e565b6001600160a01b0316336001600160a01b031614610c335760405162461bcd60e51b815260206004820152601c60248201527b1858d8dbdd5b9d0e881b9bdd08199c9bdb48115b9d1c9e541bda5b9d60221b6044820152606401610450565b565b7b0ca2ba3432b932bab69029b4b3b732b21026b2b9b9b0b3b29d05199960211b6000908152601c829052603c8120610caf81610c75610100870187611dcd565b8080601f016020809104026020016040519081016040528093929190818152602001838380828437600092019190915250610d5592505050565b6000546001600160a01b03908116911614610cce5760019150506103db565b5060009392505050565b50565b8015610cd857604051600090339060001990849084818181858888f193505050503d8060008114610802576040519150601f19603f3d011682016040523d82523d6000602084013e610802565b60006103db610d356111fb565b8360405161190160f01b8152600281019290925260228201526042902090565b600080600080610d658686611205565b925092509250610d758282611252565b5090949350505050565b600080846001600160a01b03168484604051610d9b9190611e2c565b60006040518083038185875af1925050503d8060008114610dd8576040519150601f19603f3d011682016040523d82523d6000602084013e610ddd565b606091505b50915091508161080257805160208201fd5b610df761095e565b6001600160a01b0316336001600160a01b03161480610e2057506000546001600160a01b031633145b610c335760405162461bcd60e51b815260206004820181905260248201527f6163636f756e743a206e6f74204f776e6572206f7220456e747279506f696e746044820152606401610450565b6000546001600160a01b0316331480610e8457503330145b610c335760405162461bcd60e51b815260206004820152600a60248201526937b7363c9037bbb732b960b11b6044820152606401610450565b306001600160a01b037f0000000000000000000000000000000000000000000000000000000000000000161480610f4457507f00000000000000000000000000000000000000000000000000000000000000006001600160a01b0316610f38600080516020611f9e833981519152546001600160a01b031690565b6001600160a01b031614155b15610c335760405163703e46dd60e11b815260040160405180910390fd5b610cd8610e6c565b816001600160a01b03166352d1902d6040518163ffffffff1660e01b8152600401602060405180830381865afa925050508015610fc4575060408051601f3d908101601f19168201909252610fc191810190611e13565b60015b610fe35781604051634c9c8ce360e01b81526004016104509190611bf7565b600080516020611f9e833981519152811461101457604051632a87526960e21b815260048101829052602401610450565b61101e838361130b565b505050565b306001600160a01b037f00000000000000000000000000000000000000000000000000000000000000001614610c335760405163703e46dd60e11b815260040160405180910390fd5b7fa16a46d94261c7517cc8ff89f61c0ce93598e3c849801011dee649a6a557d10090565b6060600061109c61106c565b90508060020180546110ad90611e48565b80601f01602080910402602001604051908101604052809291908181526020018280546110d990611e48565b80156111265780601f106110fb57610100808354040283529160200191611126565b820191906000526020600020905b81548152906001019060200180831161110957829003601f168201915b505050505091505090565b6060600061113d61106c565b90508060030180546110ad90611e48565b7ff0c57e16840df040f15088dc2f81fe391c3923bec73e23a9662efc9c229c6a0090565b600080546001600160a01b0319166001600160a01b03838116918217835560405191927f0000000000000000000000000000000000000000000000000000000000000000909116917f47e55c76e7a6f1fd8996a1da8008c1ea29699cca35e7bcd057f2dec313b6e5de9190a350565b6111e9611361565b6108948282611386565b610c33611361565b6000610a476113c7565b6000806000835160410361123f5760208401516040850151606086015160001a6112318882858561143b565b95509550955050505061124b565b50508151600091506002905b9250925092565b600082600381111561126657611266611e82565b0361126f575050565b600182600381111561128357611283611e82565b036112a15760405163f645eedf60e01b815260040160405180910390fd5b60028260038111156112b5576112b5611e82565b036112d65760405163fce698f760e01b815260048101829052602401610450565b60038260038111156112ea576112ea611e82565b03610894576040516335e2f38360e21b815260048101829052602401610450565b61131482611500565b6040516001600160a01b038316907fbc7cd75a20ee27fd9adebab32041f755214dbc6bffa90cc0225b39da2e5c2d3b90600090a28051156113595761101e828261155c565b6108946115d2565b6113696115f1565b610c3357604051631afcd79f60e31b815260040160405180910390fd5b61138e611361565b600061139861106c565b9050600281016113a88482611edf565b50600381016113b78382611edf565b5060008082556001909101555050565b60007f8b73c3c69bb8fe3d512ecc4cf759cc79239f7b179b0ffacaa9a75d522b39400f6113f261160b565b6113fa611672565b60408051602081019490945283019190915260608201524660808201523060a082015260c00160405160208183030381529060405280519060200120905090565b600080806fa2a8918ca85bafe22016d0b997e4df60600160ff1b0384111561146c57506000915060039050826114f6565b604080516000808252602082018084528a905260ff891692820192909252606081018790526080810186905260019060a0016020604051602081039080840390855afa1580156114c0573d6000803e3d6000fd5b5050604051601f1901519150506001600160a01b0381166114ec575060009250600191508290506114f6565b9250600091508190505b9450945094915050565b806001600160a01b03163b60000361152d5780604051634c9c8ce360e01b81526004016104509190611bf7565b600080516020611f9e83398151915280546001600160a01b0319166001600160a01b0392909216919091179055565b6060600080846001600160a01b0316846040516115799190611e2c565b600060405180830381855af49150503d80600081146115b4576040519150601f19603f3d011682016040523d82523d6000602084013e6115b9565b606091505b50915091506115c98583836116b3565b95945050505050565b3415610c335760405163b398979f60e01b815260040160405180910390fd5b60006115fb61114e565b54600160401b900460ff16919050565b60008061161661106c565b90506000611622611090565b80519091501561163a57805160209091012092915050565b81548015611649579392505050565b7fc5d2460186f7233c927e7db2dcc703c0e500b653ca82273b7bfad8045d85a470935050505090565b60008061167d61106c565b90506000611689611131565b8051909150156116a157805160209091012092915050565b60018201548015611649579392505050565b6060826116c8576116c382611706565b610400565b81511580156116df57506001600160a01b0384163b155b156116ff5783604051639996b31560e01b81526004016104509190611bf7565b5080610400565b8051156117165780518082602001fd5b60405163d6bda27560e01b815260040160405180910390fd5b60006020828403121561174157600080fd5b81356001600160e01b03198116811461040057600080fd5b6001600160a01b0381168114610cd857600080fd5b60008083601f84011261178057600080fd5b5081356001600160401b0381111561179757600080fd5b6020830191508360208285010111156117af57600080fd5b9250929050565b6000806000806000608086880312156117ce57600080fd5b85356117d981611759565b945060208601356117e981611759565b93506040860135925060608601356001600160401b0381111561180b57600080fd5b6118178882890161176e565b969995985093965092949392505050565b60008060006060848603121561183d57600080fd5b83356001600160401b0381111561185357600080fd5b8401610120818703121561186657600080fd5b95602085013595506040909401359392505050565b60008060008060008060008060c0898b03121561189757600080fd5b88356118a281611759565b97506020890135965060408901356001600160401b038111156118c457600080fd5b6118d08b828c0161176e565b909750955050606089013593506080890135925060a08901356001600160401b038111156118fd57600080fd5b6119098b828c0161176e565b999c989b5096995094979396929594505050565b60008083601f84011261192f57600080fd5b5081356001600160401b0381111561194657600080fd5b6020830191508360208260051b85010111156117af57600080fd5b6000806000806000806060878903121561197a57600080fd5b86356001600160401b0381111561199057600080fd5b61199c89828a0161191d565b90975095505060208701356001600160401b038111156119bb57600080fd5b6119c789828a0161191d565b90955093505060408701356001600160401b038111156119e657600080fd5b6119f289828a0161191d565b979a9699509497509295939492505050565b60008060408385031215611a1757600080fd5b8235611a2281611759565b946020939093013593505050565b634e487b7160e01b600052604160045260246000fd5b60008060408385031215611a5957600080fd5b8235611a6481611759565b915060208301356001600160401b03811115611a7f57600080fd5b8301601f81018513611a9057600080fd5b80356001600160401b03811115611aa957611aa9611a30565b604051601f8201601f19908116603f011681016001600160401b0381118282101715611ad757611ad7611a30565b604052818152828201602001871015611aef57600080fd5b816020840160208301376000602083830101528093505050509250929050565b60005b83811015611b2a578181015183820152602001611b12565b50506000910152565b60008151808452611b4b816020860160208601611b0f565b601f01601f19169290920160200192915050565b60ff60f81b8816815260e060208201526000611b7e60e0830189611b33565b8281036040840152611b908189611b33565b606084018890526001600160a01b038716608085015260a0840186905283810360c08501528451808252602080870193509091019060005b81811015611be6578351835260209384019390920191600101611bc8565b50909b9a5050505050505050505050565b6001600160a01b0391909116815260200190565b6020815260006104006020830184611b33565b60008060008060608587031215611c3457600080fd5b8435611c3f81611759565b93506020850135925060408501356001600160401b03811115611c6157600080fd5b611c6d8782880161176e565b95989497509550505050565b60008060008060008060008060a0898b031215611c9557600080fd5b8835611ca081611759565b97506020890135611cb081611759565b965060408901356001600160401b03811115611ccb57600080fd5b611cd78b828c0161191d565b90975095505060608901356001600160401b03811115611cf657600080fd5b611d028b828c0161191d565b90955093505060808901356001600160401b038111156118fd57600080fd5b600060208284031215611d3357600080fd5b813561040081611759565b60008060008060008060a08789031215611d5757600080fd5b8635611d6281611759565b95506020870135611d7281611759565b9450604087013593506060870135925060808701356001600160401b03811115611d9b57600080fd5b6119f289828a0161176e565b8183823760009101908152919050565b634e487b7160e01b600052603260045260246000fd5b6000808335601e19843603018112611de457600080fd5b8301803591506001600160401b03821115611dfe57600080fd5b6020019150368190038213156117af57600080fd5b600060208284031215611e2557600080fd5b5051919050565b60008251611e3e818460208701611b0f565b9190910192915050565b600181811c90821680611e5c57607f821691505b602082108103611e7c57634e487b7160e01b600052602260045260246000fd5b50919050565b634e487b7160e01b600052602160045260246000fd5b601f82111561101e57806000526020600020601f840160051c81016020851015611ebf5750805b601f840160051c820191505b818110156108025760008155600101611ecb565b81516001600160401b03811115611ef857611ef8611a30565b611f0c81611f068454611e48565b84611e98565b6020601f821160018114611f405760008315611f285750848201515b600019600385901b1c1916600184901b178455610802565b600084815260208120601f198516915b82811015611f705787850151825560209485019460019092019101611f50565b5084821015611f8e5786840151600019600387901b60f8161c191681555b50505050600190811b0190555056fe360894a13ba1a3210667c828492db98dca3e2076cc3735a920a3ca505d382bbca26469706673582212206ad3aa80917b530249b8fea15ca78d4f37b54e5ca8beb7d79e1970372556fafa64736f6c634300081c0033",
  "devdoc": {
    "kind": "dev",
    "methods": {},
    "version": 1
  },
  "userdoc": {
    "kind": "user",
    "methods": {
      "createAccount(address,uint256)": {
        "notice": "create an account, and return its address. returns the address even if the account is already deployed. Note that during UserOperation execution, this method is called only if the account is not deployed. This method returns an existing account address so that entryPoint.getSenderAddress() would work even after account creation"
      },
      "getAddress(address,uint256)": {
        "notice": "calculate the counterfactual address of this account as it would be returned by createAccount()"
      }
    },
    "notice": "A sample factory contract for SimpleAccount A UserOperations \"initCode\" holds the address of the factory, and a method call (to createAccount, in this sample factory). The factory's createAccount returns the target account address even if it is already installed. This way, the entryPoint.getSenderAddress() can be called either before or after the account is created.",
    "version": 1
  },
  "storageLayout": {
    "storage": [],
    "types": null
  }
}