{
  "address": "0xa0755f9e54E4708a9b95fC2bF3C0a965461ACc6c",
  "abi": [
    {
      "inputs": [],
      "stateMutability": "nonpayable",
      "type": "constructor"
    },
    {
      "inputs": [],
      "name": "AccessControlBadConfirmation",
      "type": "error"
    },
    {
      "inputs": [
        {
          "internalType": "address",
          "name": "account",
          "type": "address"
        },
        {
          "internalType": "bytes32",
          "name": "neededRole",
          "type": "bytes32"
        }
      ],
      "name": "AccessControlUnauthorizedAccount",
      "type": "error"
    },
    {
      "inputs": [
        {
          "internalType": "address",
          "name": "target",
          "type": "address"
        }
      ],
      "name": "AddressEmptyCode",
      "type": "error"
    },
    {
      "inputs": [
        {
          "internalType": "address",
          "name": "implementation",
          "type": "address"
        }
      ],
      "name": "ERC1967InvalidImplementation",
      "type": "error"
    },
    {
      "inputs": [],
      "name": "ERC1967NonPayable",
      "type": "error"
    },
    {
      "inputs": [],
      "name": "FailedCall",
      "type": "error"
    },
    {
      "inputs": [],
      "name": "InvalidInitialization",
      "type": "error"
    },
    {
      "inputs": [],
      "name": "NotInitializing",
      "type": "error"
    },
    {
      "inputs": [],
      "name": "UUPSUnauthorizedCallContext",
      "type": "error"
    },
    {
      "inputs": [
        {
          "internalType": "bytes32",
          "name": "slot",
          "type": "bytes32"
        }
      ],
      "name": "UUPSUnsupportedProxiableUUID",
      "type": "error"
    },
    {
      "anonymous": false,
      "inputs": [
        {
          "indexed": false,
          "internalType": "uint64",
          "name": "version",
          "type": "uint64"
        }
      ],
      "name": "Initialized",
      "type": "event"
    },
    {
      "anonymous": false,
      "inputs": [
        {
          "indexed": true,
          "internalType": "bytes32",
          "name": "role",
          "type": "bytes32"
        },
        {
          "indexed": true,
          "internalType": "bytes32",
          "name": "previousAdminRole",
          "type": "bytes32"
        },
        {
          "indexed": true,
          "internalType": "bytes32",
          "name": "newAdminRole",
          "type": "bytes32"
        }
      ],
      "name": "RoleAdminChanged",
      "type": "event"
    },
    {
      "anonymous": false,
      "inputs": [
        {
          "indexed": true,
          "internalType": "bytes32",
          "name": "role",
          "type": "bytes32"
        },
        {
          "indexed": true,
          "internalType": "address",
          "name": "account",
          "type": "address"
        },
        {
          "indexed": true,
          "internalType": "address",
          "name": "sender",
          "type": "address"
        }
      ],
      "name": "RoleGranted",
      "type": "event"
    },
    {
      "anonymous": false,
      "inputs": [
        {
          "indexed": true,
          "internalType": "bytes32",
          "name": "role",
          "type": "bytes32"
        },
        {
          "indexed": true,
          "internalType": "address",
          "name": "account",
          "type": "address"
        },
        {
          "indexed": true,
          "internalType": "address",
          "name": "sender",
          "type": "address"
        }
      ],
      "name": "RoleRevoked",
      "type": "event"
    },
    {
      "anonymous": false,
      "inputs": [
        {
          "indexed": true,
          "internalType": "address",
          "name": "implementation",
          "type": "address"
        }
      ],
      "name": "Upgraded",
      "type": "event"
    },
    {
      "inputs": [],
      "name": "DEFAULT_ADMIN_ROLE",
      "outputs": [
        {
          "internalType": "bytes32",
          "name": "",
          "type": "bytes32"
        }
      ],
      "stateMutability": "view",
      "type": "function"
    },
    {
      "inputs": [],
      "name": "REWARDER_ROLE",
      "outputs": [
        {
          "internalType": "bytes32",
          "name": "",
          "type": "bytes32"
        }
      ],
      "stateMutability": "view",
      "type": "function"
    },
    {
      "inputs": [],
      "name": "UPGRADER_ROLE",
      "outputs": [
        {
          "internalType": "bytes32",
          "name": "",
          "type": "bytes32"
        }
      ],
      "stateMutability": "view",
      "type": "function"
    },
    {
      "inputs": [],
      "name": "UPGRADE_INTERFACE_VERSION",
      "outputs": [
        {
          "internalType": "string",
          "name": "",
          "type": "string"
        }
      ],
      "stateMutability": "view",
      "type": "function"
    },
    {
      "inputs": [
        {
          "internalType": "bytes32",
          "name": "role",
          "type": "bytes32"
        }
      ],
      "name": "getRoleAdmin",
      "outputs": [
        {
          "internalType": "bytes32",
          "name": "",
          "type": "bytes32"
        }
      ],
      "stateMutability": "view",
      "type": "function"
    },
    {
      "inputs": [
        {
          "internalType": "bytes32",
          "name": "role",
          "type": "bytes32"
        },
        {
          "internalType": "address",
          "name": "account",
          "type": "address"
        }
      ],
      "name": "grantRole",
      "outputs": [],
      "stateMutability": "nonpayable",
      "type": "function"
    },
    {
      "inputs": [
        {
          "internalType": "bytes32",
          "name": "role",
          "type": "bytes32"
        },
        {
          "internalType": "address",
          "name": "account",
          "type": "address"
        }
      ],
      "name": "hasRole",
      "outputs": [
        {
          "internalType": "bool",
          "name": "",
          "type": "bool"
        }
      ],
      "stateMutability": "view",
      "type": "function"
    },
    {
      "inputs": [
        {
          "internalType": "address",
          "name": "defaultAdmin",
          "type": "address"
        },
        {
          "internalType": "address",
          "name": "upgrader",
          "type": "address"
        },
        {
          "internalType": "contract IX2EarnRewardsPool",
          "name": "_rewardsPool",
          "type": "address"
        }
      ],
      "name": "initialize",
      "outputs": [],
      "stateMutability": "nonpayable",
      "type": "function"
    },
    {
      "inputs": [],
      "name": "proxiableUUID",
      "outputs": [
        {
          "internalType": "bytes32",
          "name": "",
          "type": "bytes32"
        }
      ],
      "stateMutability": "view",
      "type": "function"
    },
    {
      "inputs": [
        {
          "internalType": "bytes32",
          "name": "role",
          "type": "bytes32"
        },
        {
          "internalType": "address",
          "name": "callerConfirmation",
          "type": "address"
        }
      ],
      "name": "renounceRole",
      "outputs": [],
      "stateMutability": "nonpayable",
      "type": "function"
    },
    {
      "inputs": [
        {
          "internalType": "bytes32",
          "name": "role",
          "type": "bytes32"
        },
        {
          "internalType": "address",
          "name": "account",
          "type": "address"
        }
      ],
      "name": "revokeRole",
      "outputs": [],
      "stateMutability": "nonpayable",
      "type": "function"
    },
    {
      "inputs": [],
      "name": "reward",
      "outputs": [],
      "stateMutability": "nonpayable",
      "type": "function"
    },
    {
      "inputs": [
        {
          "internalType": "uint256",
          "name": "amount",
          "type": "uint256"
        },
        {
          "internalType": "address",
          "name": "receiver",
          "type": "address"
        }
      ],
      "name": "rewardAmountTo",
      "outputs": [],
      "stateMutability": "nonpayable",
      "type": "function"
    },
    {
      "inputs": [
        {
          "internalType": "uint256",
          "name": "amount",
          "type": "uint256"
        },
        {
          "internalType": "address",
          "name": "receiver",
          "type": "address"
        },
        {
          "internalType": "string[]",
          "name": "proofTypes",
          "type": "string[]"
        },
        {
          "internalType": "string[]",
          "name": "proofValues",
          "type": "string[]"
        },
        {
          "internalType": "string[]",
          "name": "impactCodes",
          "type": "string[]"
        },
        {
          "internalType": "uint256[]",
          "name": "impactValues",
          "type": "uint256[]"
        },
        {
          "internalType": "string",
          "name": "description",
          "type": "string"
        }
      ],
      "name": "rewardAmountWithProofTo",
      "outputs": [],
      "stateMutability": "nonpayable",
      "type": "function"
    },
    {
      "inputs": [
        {
          "internalType": "address",
          "name": "receiver",
          "type": "address"
        }
      ],
      "name": "rewardTo",
      "outputs": [],
      "stateMutability": "nonpayable",
      "type": "function"
    },
    {
      "inputs": [],
      "name": "rewardsPool",
      "outputs": [
        {
          "internalType": "contract IX2EarnRewardsPool",
          "name": "",
          "type": "address"
        }
      ],
      "stateMutability": "view",
      "type": "function"
    },
    {
      "inputs": [
        {
          "internalType": "bytes4",
          "name": "interfaceId",
          "type": "bytes4"
        }
      ],
      "name": "supportsInterface",
      "outputs": [
        {
          "internalType": "bool",
          "name": "",
          "type": "bool"
        }
      ],
      "stateMutability": "view",
      "type": "function"
    },
    {
      "inputs": [
        {
          "internalType": "address",
          "name": "newImplementation",
          "type": "address"
        },
        {
          "internalType": "bytes",
          "name": "data",
          "type": "bytes"
        }
      ],
      "name": "upgradeToAndCall",
      "outputs": [],
      "stateMutability": "payable",
      "type": "function"
    }
  ],
  "transactionHash": "0x3e4fd79457c63bd8c519ae47d03787ff8acd2cb4505a857732cf49e45c7ebc29",
  "args": [],
  "numDeployments": 2,
  "solcInputHash": "f3693986e84186a89f319f5e844af32d",
  "bytecode": "0x60a06040523060805234801561001457600080fd5b5061001d610022565b6100d4565b7ff0c57e16840df040f15088dc2f81fe391c3923bec73e23a9662efc9c229c6a00805468010000000000000000900460ff16156100725760405163f92ee8a960e01b815260040160405180910390fd5b80546001600160401b03908116146100d15780546001600160401b0319166001600160401b0390811782556040519081527fc7f505b2f371ae2175ee4913f4499e1f2633a7b5936321eed1cdaeb6115181d29060200160405180910390a15b50565b6080516113e46100fd600039600081816109230152818161094c0152610a9f01526113e46000f3fe6080604052600436106100d95760003560e01c806301ffc9a7146100de5780630359fea91461011357806315808ed314610140578063228cb73314610162578063248a9ca3146101775780632f2ff15d146101a557806336568abe146101c55780634f1ef286146101e557806352d1902d146101f85780637582a2f01461020d5780638580cf761461022d57806391d148541461024f578063a217fddf1461026f578063a6e784e514610284578063ad3cb1cc146102a4578063c0c53b8b146102e2578063d547741f14610302578063f72c0d8b14610322575b600080fd5b3480156100ea57600080fd5b506100fe6100f9366004610d47565b610344565b60405190151581526020015b60405180910390f35b34801561011f57600080fd5b50600054610133906001600160a01b031681565b60405161010a9190610d71565b34801561014c57600080fd5b5061016061015b366004610f78565b61037b565b005b34801561016e57600080fd5b5061016061040d565b34801561018357600080fd5b50610197610192366004611063565b61047d565b60405190815260200161010a565b3480156101b157600080fd5b506101606101c036600461107c565b61049d565b3480156101d157600080fd5b506101606101e036600461107c565b6104b9565b6101606101f33660046110ac565b6104f1565b34801561020457600080fd5b50610197610510565b34801561021957600080fd5b5061016061022836600461110f565b61052d565b34801561023957600080fd5b5061019760008051602061134f83398151915281565b34801561025b57600080fd5b506100fe61026a36600461107c565b6105b7565b34801561027b57600080fd5b50610197600081565b34801561029057600080fd5b5061016061029f36600461107c565b6105ed565b3480156102b057600080fd5b506102d5604051806040016040528060058152602001640352e302e360dc1b81525081565b60405161010a919061117c565b3480156102ee57600080fd5b506101606102fd36600461118f565b610670565b34801561030e57600080fd5b5061016061031d36600461107c565b6107b2565b34801561032e57600080fd5b5061019760008051602061136f83398151915281565b60006001600160e01b03198216637965db0b60e01b148061037557506301ffc9a760e01b6001600160e01b03198316145b92915050565b60008051602061134f833981519152610393816107ce565b60008054604051633dc9229960e11b81526001600160a01b0390911691637b924532916103d191908c908c908c908c908c908c908c90600401611234565b600060405180830381600087803b1580156103eb57600080fd5b505af11580156103ff573d6000803e3d6000fd5b505050505050505050505050565b6000805460405163f7335f1160e01b81526001600160a01b039091169163f7335f11916104499190670de0b6b3a76400009033906004016112eb565b600060405180830381600087803b15801561046357600080fd5b505af1158015610477573d6000803e3d6000fd5b50505050565b6000806104886107db565b60009384526020525050604090206001015490565b6104a68261047d565b6104af816107ce565b61047783836107ff565b6001600160a01b03811633146104e25760405163334bd91960e11b815260040160405180910390fd5b6104ec82826108a0565b505050565b6104f9610918565b610502826109bf565b61050c82826109d7565b5050565b600061051a610a94565b5060008051602061138f83398151915290565b60008051602061134f833981519152610545816107ce565b6000805460405163f7335f1160e01b81526001600160a01b039091169163f7335f11916105819190671bc16d674ec800009087906004016112eb565b600060405180830381600087803b15801561059b57600080fd5b505af11580156105af573d6000803e3d6000fd5b505050505050565b6000806105c26107db565b6000948552602090815260408086206001600160a01b03959095168652939052505090205460ff1690565b60008051602061134f833981519152610605816107ce565b6000805460405163f7335f1160e01b81526001600160a01b039091169163f7335f11916106399190879087906004016112eb565b600060405180830381600087803b15801561065357600080fd5b505af1158015610667573d6000803e3d6000fd5b50505050505050565b600061067a610add565b805490915060ff600160401b82041615906001600160401b03166000811580156106a15750825b90506000826001600160401b031660011480156106bd5750303b155b9050811580156106cb575080155b156106e95760405163f92ee8a960e01b815260040160405180910390fd5b84546001600160401b0319166001178555831561071257845460ff60401b1916600160401b1785555b61071a610b01565b610722610b01565b61072d6000896107ff565b5061074660008051602061136f833981519152886107ff565b50600080546001600160a01b0319166001600160a01b03881617905583156107a857845460ff60401b19168555604051600181527fc7f505b2f371ae2175ee4913f4499e1f2633a7b5936321eed1cdaeb6115181d29060200160405180910390a15b5050505050505050565b6107bb8261047d565b6107c4816107ce565b61047783836108a0565b6107d88133610b09565b50565b7f02dd7bc7dec4dceedda775e58dd541e08a116c6c53815c0bd028192f7b62680090565b60008061080a6107db565b905061081684846105b7565b610896576000848152602082815260408083206001600160a01b03871684529091529020805460ff1916600117905561084c3390565b6001600160a01b0316836001600160a01b0316857f2f8788117e7eff1d82e926ec794901d17c78024a50270940304540a733656f0d60405160405180910390a46001915050610375565b6000915050610375565b6000806108ab6107db565b90506108b784846105b7565b15610896576000848152602082815260408083206001600160a01b0387168085529252808320805460ff1916905551339287917ff6391f5c32d9c69d2a47ea670b442974b53935d1edc7fd64eb21e047a839171b9190a46001915050610375565b306001600160a01b037f000000000000000000000000000000000000000000000000000000000000000016148061099f57507f00000000000000000000000000000000000000000000000000000000000000006001600160a01b031661099360008051602061138f833981519152546001600160a01b031690565b6001600160a01b031614155b156109bd5760405163703e46dd60e11b815260040160405180910390fd5b565b60008051602061136f83398151915261050c816107ce565b816001600160a01b03166352d1902d6040518163ffffffff1660e01b8152600401602060405180830381865afa925050508015610a31575060408051601f3d908101601f19168201909252610a2e91810190611319565b60015b610a595781604051634c9c8ce360e01b8152600401610a509190610d71565b60405180910390fd5b60008051602061138f8339815191528114610a8a57604051632a87526960e21b815260048101829052602401610a50565b6104ec8383610b42565b306001600160a01b037f000000000000000000000000000000000000000000000000000000000000000016146109bd5760405163703e46dd60e11b815260040160405180910390fd5b7ff0c57e16840df040f15088dc2f81fe391c3923bec73e23a9662efc9c229c6a0090565b6109bd610b98565b610b1382826105b7565b61050c5760405163e2517d3f60e01b81526001600160a01b038216600482015260248101839052604401610a50565b610b4b82610bbd565b6040516001600160a01b038316907fbc7cd75a20ee27fd9adebab32041f755214dbc6bffa90cc0225b39da2e5c2d3b90600090a2805115610b90576104ec8282610c19565b61050c610c8f565b610ba0610cae565b6109bd57604051631afcd79f60e31b815260040160405180910390fd5b806001600160a01b03163b600003610bea5780604051634c9c8ce360e01b8152600401610a509190610d71565b60008051602061138f83398151915280546001600160a01b0319166001600160a01b0392909216919091179055565b6060600080846001600160a01b031684604051610c369190611332565b600060405180830381855af49150503d8060008114610c71576040519150601f19603f3d011682016040523d82523d6000602084013e610c76565b606091505b5091509150610c86858383610cc8565b95945050505050565b34156109bd5760405163b398979f60e01b815260040160405180910390fd5b6000610cb8610add565b54600160401b900460ff16919050565b606082610cdd57610cd882610d1e565b610d17565b8151158015610cf457506001600160a01b0384163b155b15610d145783604051639996b31560e01b8152600401610a509190610d71565b50805b9392505050565b805115610d2e5780518082602001fd5b60405163d6bda27560e01b815260040160405180910390fd5b600060208284031215610d5957600080fd5b81356001600160e01b031981168114610d1757600080fd5b6001600160a01b0391909116815260200190565b6001600160a01b03811681146107d857600080fd5b8035610da581610d85565b919050565b634e487b7160e01b600052604160045260246000fd5b604051601f8201601f191681016001600160401b0381118282101715610de857610de8610daa565b604052919050565b60006001600160401b03821115610e0957610e09610daa565b5060051b60200190565b60006001600160401b03831115610e2c57610e2c610daa565b610e3f601f8401601f1916602001610dc0565b9050828152838383011115610e5357600080fd5b828260208301376000602084830101529392505050565b600082601f830112610e7b57600080fd5b610d1783833560208501610e13565b600082601f830112610e9b57600080fd5b81356020610eb0610eab83610df0565b610dc0565b82815260059290921b84018101918181019086841115610ecf57600080fd5b8286015b84811015610f0e5780356001600160401b03811115610ef25760008081fd5b610f008986838b0101610e6a565b845250918301918301610ed3565b509695505050505050565b600082601f830112610f2a57600080fd5b81356020610f3a610eab83610df0565b8083825260208201915060208460051b870101935086841115610f5c57600080fd5b602086015b84811015610f0e5780358352918301918301610f61565b600080600080600080600060e0888a031215610f9357600080fd5b87359650610fa360208901610d9a565b955060408801356001600160401b0380821115610fbf57600080fd5b610fcb8b838c01610e8a565b965060608a0135915080821115610fe157600080fd5b610fed8b838c01610e8a565b955060808a013591508082111561100357600080fd5b61100f8b838c01610e8a565b945060a08a013591508082111561102557600080fd5b6110318b838c01610f19565b935060c08a013591508082111561104757600080fd5b506110548a828b01610e6a565b91505092959891949750929550565b60006020828403121561107557600080fd5b5035919050565b6000806040838503121561108f57600080fd5b8235915060208301356110a181610d85565b809150509250929050565b600080604083850312156110bf57600080fd5b82356110ca81610d85565b915060208301356001600160401b038111156110e557600080fd5b8301601f810185136110f657600080fd5b61110585823560208401610e13565b9150509250929050565b60006020828403121561112157600080fd5b8135610d1781610d85565b60005b8381101561114757818101518382015260200161112f565b50506000910152565b6000815180845261116881602086016020860161112c565b601f01601f19169290920160200192915050565b602081526000610d176020830184611150565b6000806000606084860312156111a457600080fd5b83356111af81610d85565b925060208401356111bf81610d85565b915060408401356111cf81610d85565b809150509250925092565b60008282518085526020808601955060208260051b8401016020860160005b8481101561122757601f19868403018952611215838351611150565b988401989250908301906001016111f9565b5090979650505050505050565b88815260208082018990526001600160a01b0388166040830152610100606083018190526000916112678483018a6111da565b9150838203608085015261127b82896111da565b915083820360a085015261128f82886111da565b84810360c08601528651808252602080890194509091019060005b818110156112c6578451835293830193918301916001016112aa565b505084810360e08601526112da8187611150565b9d9c50505050505050505050505050565b92835260208301919091526001600160a01b0316604082015260806060820181905260009082015260a00190565b60006020828403121561132b57600080fd5b5051919050565b6000825161134481846020870161112c565b919091019291505056febeec13769b5f410b0584f69811bfd923818456d5edcf426b0e31cf90eed7a3f6189ab7a9244df0848122154315af71fe140f3db0fe014031783b0946b8c9d2e3360894a13ba1a3210667c828492db98dca3e2076cc3735a920a3ca505d382bbca2646970667358221220c087013402fc5a398ecf1083dd291b9fa4a12322b905da911918fd4188c24dd864736f6c63430008170033",
  "devdoc": {
    "errors": {
      "AccessControlBadConfirmation()": [
        {
          "details": "The caller of a function is not the expected one. NOTE: Don't confuse with {AccessControlUnauthorizedAccount}."
        }
      ],
      "AccessControlUnauthorizedAccount(address,bytes32)": [
        {
          "details": "The `account` is missing a role."
        }
      ],
      "AddressEmptyCode(address)": [
        {
          "details": "There's no code at `target` (it is not a contract)."
        }
      ],
      "ERC1967InvalidImplementation(address)": [
        {
          "details": "The `implementation` of the proxy is invalid."
        }
      ],
      "ERC1967NonPayable()": [
        {
          "details": "An upgrade function sees `msg.value > 0` that may be lost."
        }
      ],
      "FailedCall()": [
        {
          "details": "A call to an address target failed. The target may have reverted."
        }
      ],
      "InvalidInitialization()": [
        {
          "details": "The contract is already initialized."
        }
      ],
      "NotInitializing()": [
        {
          "details": "The contract is not initializing."
        }
      ],
      "UUPSUnauthorizedCallContext()": [
        {
          "details": "The call is from an unauthorized context."
        }
      ],
      "UUPSUnsupportedProxiableUUID(bytes32)": [
        {
          "details": "The storage `slot` is unsupported as a UUID."
        }
      ]
    },
    "events": {
      "Initialized(uint64)": {
        "details": "Triggered when the contract has been initialized or reinitialized."
      },
      "RoleAdminChanged(bytes32,bytes32,bytes32)": {
        "details": "Emitted when `newAdminRole` is set as ``role``'s admin role, replacing `previousAdminRole` `DEFAULT_ADMIN_ROLE` is the starting admin for all roles, despite {RoleAdminChanged} not being emitted signaling this."
      },
      "RoleGranted(bytes32,address,address)": {
        "details": "Emitted when `account` is granted `role`. `sender` is the account that originated the contract call. This account bears the admin role (for the granted role). Expected in cases where the role was granted using the internal {AccessControl-_grantRole}."
      },
      "RoleRevoked(bytes32,address,address)": {
        "details": "Emitted when `account` is revoked `role`. `sender` is the account that originated the contract call:   - if using `revokeRole`, it is the admin role bearer   - if using `renounceRole`, it is the role bearer (i.e. `account`)"
      },
      "Upgraded(address)": {
        "details": "Emitted when the implementation is upgraded."
      }
    },
    "kind": "dev",
    "methods": {
      "constructor": {
        "custom:oz-upgrades-unsafe-allow": "constructor"
      },
      "getRoleAdmin(bytes32)": {
        "details": "Returns the admin role that controls `role`. See {grantRole} and {revokeRole}. To change a role's admin, use {_setRoleAdmin}."
      },
      "grantRole(bytes32,address)": {
        "details": "Grants `role` to `account`. If `account` had not been already granted `role`, emits a {RoleGranted} event. Requirements: - the caller must have ``role``'s admin role. May emit a {RoleGranted} event."
      },
      "hasRole(bytes32,address)": {
        "details": "Returns `true` if `account` has been granted `role`."
      },
      "proxiableUUID()": {
        "details": "Implementation of the ERC-1822 {proxiableUUID} function. This returns the storage slot used by the implementation. It is used to validate the implementation's compatibility when performing an upgrade. IMPORTANT: A proxy pointing at a proxiable contract should not be considered proxiable itself, because this risks bricking a proxy that upgrades to it, by delegating to itself until out of gas. Thus it is critical that this function revert if invoked through a proxy. This is guaranteed by the `notDelegated` modifier."
      },
      "renounceRole(bytes32,address)": {
        "details": "Revokes `role` from the calling account. Roles are often managed via {grantRole} and {revokeRole}: this function's purpose is to provide a mechanism for accounts to lose their privileges if they are compromised (such as when a trusted device is misplaced). If the calling account had been revoked `role`, emits a {RoleRevoked} event. Requirements: - the caller must be `callerConfirmation`. May emit a {RoleRevoked} event."
      },
      "revokeRole(bytes32,address)": {
        "details": "Revokes `role` from `account`. If `account` had been granted `role`, emits a {RoleRevoked} event. Requirements: - the caller must have ``role``'s admin role. May emit a {RoleRevoked} event."
      },
      "supportsInterface(bytes4)": {
        "details": "See {IERC165-supportsInterface}."
      },
      "upgradeToAndCall(address,bytes)": {
        "custom:oz-upgrades-unsafe-allow-reachable": "delegatecall",
        "details": "Upgrade the implementation of the proxy to `newImplementation`, and subsequently execute the function call encoded in `data`. Calls {_authorizeUpgrade}. Emits an {Upgraded} event."
      }
    },
    "version": 1
  },
  "userdoc": {
    "kind": "user",
    "methods": {},
    "version": 1
  },
  "storageLayout": {
    "storage": [
      {
        "astId": 7978,
        "contract": "contracts/X2EarnApp.sol:X2EarnApp",
        "label": "rewardsPool",
        "offset": 0,
        "slot": "0",
        "type": "t_contract(IX2EarnRewardsPool)8273"
      }
    ],
    "types": {
      "t_contract(IX2EarnRewardsPool)8273": {
        "encoding": "inplace",
        "label": "contract IX2EarnRewardsPool",
        "numberOfBytes": "20"
      }
    }
  }
}