{
  "address": "0xaA3Bd236D8c4d0fCdb02146b14BFd8D35272F437",
  "abi": [
    {
      "inputs": [
        {
          "internalType": "contract B3TRMock",
          "name": "_b3tr",
          "type": "address"
        }
      ],
      "stateMutability": "nonpayable",
      "type": "constructor"
    },
    {
      "anonymous": false,
      "inputs": [
        {
          "indexed": false,
          "internalType": "uint256",
          "name": "amount",
          "type": "uint256"
        },
        {
          "indexed": true,
          "internalType": "bytes32",
          "name": "appId",
          "type": "bytes32"
        },
        {
          "indexed": true,
          "internalType": "address",
          "name": "receiver",
          "type": "address"
        },
        {
          "indexed": false,
          "internalType": "string",
          "name": "proof",
          "type": "string"
        },
        {
          "indexed": true,
          "internalType": "address",
          "name": "distributor",
          "type": "address"
        }
      ],
      "name": "RewardDistributed",
      "type": "event"
    },
    {
      "inputs": [],
      "name": "b3tr",
      "outputs": [
        {
          "internalType": "contract B3TRMock",
          "name": "",
          "type": "address"
        }
      ],
      "stateMutability": "view",
      "type": "function"
    },
    {
      "inputs": [
        {
          "internalType": "string[]",
          "name": "proofTypes",
          "type": "string[]"
        },
        {
          "internalType": "string[]",
          "name": "proofValues",
          "type": "string[]"
        },
        {
          "internalType": "string[]",
          "name": "impactCodes",
          "type": "string[]"
        },
        {
          "internalType": "uint256[]",
          "name": "impactValues",
          "type": "uint256[]"
        },
        {
          "internalType": "string",
          "name": "description",
          "type": "string"
        }
      ],
      "name": "buildProof",
      "outputs": [
        {
          "internalType": "string",
          "name": "",
          "type": "string"
        }
      ],
      "stateMutability": "view",
      "type": "function"
    },
    {
      "inputs": [
        {
          "internalType": "bytes32",
          "name": "appId",
          "type": "bytes32"
        },
        {
          "internalType": "uint256",
          "name": "amount",
          "type": "uint256"
        },
        {
          "internalType": "address",
          "name": "receiver",
          "type": "address"
        },
        {
          "internalType": "string",
          "name": "",
          "type": "string"
        }
      ],
      "name": "distributeReward",
      "outputs": [],
      "stateMutability": "nonpayable",
      "type": "function"
    },
    {
      "inputs": [
        {
          "internalType": "bytes32",
          "name": "appId",
          "type": "bytes32"
        },
        {
          "internalType": "uint256",
          "name": "amount",
          "type": "uint256"
        },
        {
          "internalType": "address",
          "name": "receiver",
          "type": "address"
        },
        {
          "internalType": "string[]",
          "name": "proofTypes",
          "type": "string[]"
        },
        {
          "internalType": "string[]",
          "name": "proofValues",
          "type": "string[]"
        },
        {
          "internalType": "string[]",
          "name": "impactCodes",
          "type": "string[]"
        },
        {
          "internalType": "uint256[]",
          "name": "impactValues",
          "type": "uint256[]"
        },
        {
          "internalType": "string",
          "name": "description",
          "type": "string"
        }
      ],
      "name": "distributeRewardWithProof",
      "outputs": [],
      "stateMutability": "nonpayable",
      "type": "function"
    }
  ],
  "transactionHash": "0x3c893215e42faa56d32e8a3704699f7b66a9663e14c45a0bdcb5c2af03ac09aa",
  "args": [
    "0x5C65C93eC85099d624224f69e599A29aA9d2a8C8"
  ],
  "numDeployments": 3,
  "solcInputHash": "bfd87a590ee9e25eb8fc77ae634356ac",
  "bytecode": "0x6080604052348015600f57600080fd5b50604051611067380380611067833981016040819052602c916050565b600080546001600160a01b0319166001600160a01b0392909216919091179055607e565b600060208284031215606157600080fd5b81516001600160a01b0381168114607757600080fd5b9392505050565b610fda8061008d6000396000f3fe608060405234801561001057600080fd5b506004361061004c5760003560e01c80634879ed0814610051578063582a486a1461007a5780637b924532146100a5578063f7335f11146100ba575b600080fd5b61006461005f366004610a25565b6100cd565b6040516100719190610b5c565b60405180910390f35b60005461008d906001600160a01b031681565b6040516001600160a01b039091168152602001610071565b6100b86100b3366004610b92565b610225565b005b6100b86100c8366004610c9d565b61024a565b606060008087511180156100e2575060008651115b905060008086511180156100f7575060008551115b845190915015158215801561010a575081155b156101295760405180602001604052806000815250935050505061021c565b604080516c3d913b32b939b4b7b7111d101960991b60208201528151600d818303018152602d909101909152811561018057808660405160200161016e929190610cfd565b60405160208183030381529060405290505b83156101ba5760006101928b8b61030b565b905081816040516020016101a7929190610d57565b6040516020818303038152906040529150505b82156101f45760006101cc8989610473565b905081816040516020016101e1929190610d9c565b6040516020818303038152906040529150505b806040516020016102059190610de2565b60408051601f198184030181529190529450505050505b95945050505050565b6102308888886105b3565b610240888888888888888861068c565b5050505050505050565b6102558484846105b3565b610305848484600060405190808252806020026020018201604052801561029057816020015b606081526020019060019003908161027b5790505b5060408051600080825260208201909252906102bc565b60608152602001906001900390816102a75790505b5060408051600080825260208201909252906102e8565b60608152602001906001900390816102d35790505b50604080516000808252818301909252602081019182529061068c565b50505050565b606081518351146103815760405162461bcd60e51b815260206004820152603560248201527f58324561726e52657761726473506f6f6c3a204d69736d61746368656420696e604482015274383aba103632b733ba3439903337b910283937b7b360591b60648201526084015b60405180910390fd5b600060405160200161039290610e07565b604051602081830303815290604052905060005b845181101561044757818582815181106103c2576103c2610e14565b60200260200101518583815181106103dc576103dc610e14565b60200260200101516040516020016103f693929190610e2a565b6040516020818303038152906040529150600185516104159190610ea2565b81101561043f578160405160200161042d9190610ec3565b60405160208183030381529060405291505b6001016103a6565b50806040516020016104599190610de2565b60408051601f198184030181529190529150505b92915050565b606081518351146104e55760405162461bcd60e51b815260206004820152603660248201527f58324561726e52657761726473506f6f6c3a204d69736d61746368656420696e6044820152751c1d5d081b195b99dd1a1cc8199bdc88125b5c1858dd60521b6064820152608401610378565b60006040516020016104f690610e07565b604051602081830303815290604052905060005b8351811015610447578185828151811061052657610526610e14565b602002602001015161055086848151811061054357610543610e14565b60200260200101516106f6565b60405160200161056293929190610ee8565b6040516020818303038152906040529150600184516105819190610ea2565b8110156105ab57816040516020016105999190610ec3565b60405160208183030381529060405291505b60010161050a565b6000546040516340c10f1960e01b81526001600160a01b03909116906340c10f19906105e59030908690600401610f48565b600060405180830381600087803b1580156105ff57600080fd5b505af1158015610613573d6000803e3d6000fd5b505060005460405163a9059cbb60e01b81526001600160a01b03909116925063a9059cbb91506106499084908690600401610f48565b6020604051808303816000875af1158015610668573d6000803e3d6000fd5b505050506040513d601f19601f820116820180604052508101906103059190610f61565b600061069b86868686866100cd565b9050336001600160a01b0316876001600160a01b03168a7f4811710b0c25cc7e05baf214b3a939cf893f1cbff4d0b219e680f069a4f204a28b856040516106e3929190610f83565b60405180910390a4505050505050505050565b6060600061070383610788565b60010190506000816001600160401b038111156107225761072261085e565b6040519080825280601f01601f19166020018201604052801561074c576020820181803683370190505b5090508181016020015b600019016f181899199a1a9b1b9c1cb0b131b232b360811b600a86061a8153600a850494508461075657509392505050565b60008072184f03e93ff9f4daa797ed6e38ed64bf6a1f0160401b83106107c75772184f03e93ff9f4daa797ed6e38ed64bf6a1f0160401b830492506040015b6904ee2d6d415b85acef8160201b83106107f1576904ee2d6d415b85acef8160201b830492506020015b662386f26fc10000831061080f57662386f26fc10000830492506010015b6305f5e1008310610827576305f5e100830492506008015b612710831061083b57612710830492506004015b6064831061084d576064830492506002015b600a831061046d5760010192915050565b634e487b7160e01b600052604160045260246000fd5b604051601f8201601f191681016001600160401b038111828210171561089c5761089c61085e565b604052919050565b60006001600160401b038211156108bd576108bd61085e565b5060051b60200190565b600082601f8301126108d857600080fd5b81356001600160401b038111156108f1576108f161085e565b610904601f8201601f1916602001610874565b81815284602083860101111561091957600080fd5b816020850160208301376000918101602001919091529392505050565b600082601f83011261094757600080fd5b813561095a610955826108a4565b610874565b8082825260208201915060208360051b86010192508583111561097c57600080fd5b602085015b838110156109bd5780356001600160401b0381111561099f57600080fd5b6109ae886020838a01016108c7565b84525060209283019201610981565b5095945050505050565b600082601f8301126109d857600080fd5b81356109e6610955826108a4565b8082825260208201915060208360051b860101925085831115610a0857600080fd5b602085015b838110156109bd578035835260209283019201610a0d565b600080600080600060a08688031215610a3d57600080fd5b85356001600160401b03811115610a5357600080fd5b610a5f88828901610936565b95505060208601356001600160401b03811115610a7b57600080fd5b610a8788828901610936565b94505060408601356001600160401b03811115610aa357600080fd5b610aaf88828901610936565b93505060608601356001600160401b03811115610acb57600080fd5b610ad7888289016109c7565b92505060808601356001600160401b03811115610af357600080fd5b610aff888289016108c7565b9150509295509295909350565b60005b83811015610b27578181015183820152602001610b0f565b50506000910152565b60008151808452610b48816020860160208601610b0c565b601f01601f19169290920160200192915050565b602081526000610b6f6020830184610b30565b9392505050565b80356001600160a01b0381168114610b8d57600080fd5b919050565b600080600080600080600080610100898b031215610baf57600080fd5b8835975060208901359650610bc660408a01610b76565b955060608901356001600160401b03811115610be157600080fd5b610bed8b828c01610936565b95505060808901356001600160401b03811115610c0957600080fd5b610c158b828c01610936565b94505060a08901356001600160401b03811115610c3157600080fd5b610c3d8b828c01610936565b93505060c08901356001600160401b03811115610c5957600080fd5b610c658b828c016109c7565b92505060e08901356001600160401b03811115610c8157600080fd5b610c8d8b828c016108c7565b9150509295985092959890939650565b60008060008060808587031215610cb357600080fd5b8435935060208501359250610cca60408601610b76565b915060608501356001600160401b03811115610ce557600080fd5b610cf1878288016108c7565b91505092959194509250565b60008351610d0f818460208801610b0c565b7016113232b9b1b934b83a34b7b7111d101160791b9083019081528351610d3d816011840160208801610b0c565b601160f91b60119290910191820152601201949350505050565b60008351610d69818460208801610b0c565b6901611383937b7b3111d160b51b9083019081528351610d9081600a840160208801610b0c565b01600a01949350505050565b60008351610dae818460208801610b0c565b6a0161134b6b830b1ba111d160ad1b9083019081528351610dd681600b840160208801610b0c565b01600b01949350505050565b60008251610df4818460208701610b0c565b607d60f81b920191825250600101919050565b607b60f81b815260010190565b634e487b7160e01b600052603260045260246000fd5b60008451610e3c818460208901610b0c565b601160f91b9083019081528451610e5a816001840160208901610b0c565b61111d60f11b60019290910191820152601160f91b60038201528351610e87816004840160208801610b0c565b601160f91b6004929091019182015260050195945050505050565b8181038181111561046d57634e487b7160e01b600052601160045260246000fd5b60008251610ed5818460208701610b0c565b600b60fa1b920191825250600101919050565b60008451610efa818460208901610b0c565b601160f91b9083019081528451610f18816001840160208901610b0c565b61111d60f11b600192909101918201528351610f3b816003840160208801610b0c565b0160030195945050505050565b6001600160a01b03929092168252602082015260400190565b600060208284031215610f7357600080fd5b81518015158114610b6f57600080fd5b828152604060208201526000610f9c6040830184610b30565b94935050505056fea2646970667358221220e105f0f24108ebcaf2de93d8650236aecadac6e43c886691a640e847ec407cc964736f6c634300081c0033",
  "devdoc": {
    "details": "This contract is used by x2Earn apps to reward users that performed sustainable actions. The XAllocationPool contract or other contracts/users can deposit funds into this contract by specifying the app that can access the funds. Admins of x2EarnApps can withdraw funds from the rewards pool, whihch are sent to the team wallet. Reward distributors of a x2Earn app can distribute rewards to users that performed sustainable actions or withdraw funds to the team wallet.",
    "kind": "dev",
    "methods": {
      "buildProof(string[],string[],string[],uint256[],string)": {
        "details": "see {IX2EarnRewardsPool-buildProof}"
      },
      "distributeReward(bytes32,uint256,address,string)": {
        "details": "See {IX2EarnRewardsPool-distributeReward}"
      },
      "distributeRewardWithProof(bytes32,uint256,address,string[],string[],string[],uint256[],string)": {
        "details": "See {IX2EarnRewardsPool-distributeRewardWithProof}"
      }
    },
    "title": "X2EarnRewardsPool",
    "version": 1
  },
  "userdoc": {
    "kind": "user",
    "methods": {},
    "notice": "Mock contract forked from vebetterdao-contracts.",
    "version": 1
  },
  "storageLayout": {
    "storage": [
      {
        "astId": 7994,
        "contract": "contracts/mocks/X2EarnRewardsPool.sol:X2EarnRewardsPoolMock",
        "label": "b3tr",
        "offset": 0,
        "slot": "0",
        "type": "t_contract(B3TRMock)7980"
      }
    ],
    "types": {
      "t_contract(B3TRMock)7980": {
        "encoding": "inplace",
        "label": "contract B3TRMock",
        "numberOfBytes": "20"
      }
    }
  }
}