{
  "address": "0x119565E41B9c640DA3E046197ac816D39D5eEd9b",
  "abi": [
    {
      "inputs": [
        {
          "internalType": "contract IX2EarnRewardsPool",
          "name": "_rewardsPool",
          "type": "address"
        }
      ],
      "stateMutability": "nonpayable",
      "type": "constructor"
    },
    {
      "inputs": [],
      "name": "reward",
      "outputs": [],
      "stateMutability": "nonpayable",
      "type": "function"
    },
    {
      "inputs": [],
      "name": "rewardsPool",
      "outputs": [
        {
          "internalType": "contract IX2EarnRewardsPool",
          "name": "",
          "type": "address"
        }
      ],
      "stateMutability": "view",
      "type": "function"
    }
  ],
  "transactionHash": "0x64a124b9e39c5a03254532d5a227e02d760bf9c110c83d34e4c594caca1f3f5c",
  "args": [
    "0x8947FD34c54254569A3551E77F7Ed0058e3d55A6"
  ],
  "numDeployments": 2,
  "solcInputHash": "544c2e7f5e3fde76be0c9ebfdbae2382",
  "bytecode": "0x608060405234801561001057600080fd5b50604051610415380380610415833981810160405281019061003291906100ed565b806000806101000a81548173ffffffffffffffffffffffffffffffffffffffff021916908373ffffffffffffffffffffffffffffffffffffffff1602179055505061011a565b600080fd5b600073ffffffffffffffffffffffffffffffffffffffff82169050919050565b60006100a88261007d565b9050919050565b60006100ba8261009d565b9050919050565b6100ca816100af565b81146100d557600080fd5b50565b6000815190506100e7816100c1565b92915050565b60006020828403121561010357610102610078565b5b6000610111848285016100d8565b91505092915050565b6102ec806101296000396000f3fe608060405234801561001057600080fd5b50600436106100365760003560e01c80630359fea91461003b578063228cb73314610059575b600080fd5b610043610063565b604051610050919061019b565b60405180910390f35b610061610087565b005b60008054906101000a900473ffffffffffffffffffffffffffffffffffffffff1681565b60008054906101000a900473ffffffffffffffffffffffffffffffffffffffff1673ffffffffffffffffffffffffffffffffffffffff1663f7335f116000801b6001336040518463ffffffff1660e01b81526004016100e89392919061026c565b600060405180830381600087803b15801561010257600080fd5b505af1158015610116573d6000803e3d6000fd5b50505050565b600073ffffffffffffffffffffffffffffffffffffffff82169050919050565b6000819050919050565b600061016161015c6101578461011c565b61013c565b61011c565b9050919050565b600061017382610146565b9050919050565b600061018582610168565b9050919050565b6101958161017a565b82525050565b60006020820190506101b0600083018461018c565b92915050565b6000819050919050565b6101c9816101b6565b82525050565b6000819050919050565b6000819050919050565b60006101fe6101f96101f4846101cf565b61013c565b6101d9565b9050919050565b61020e816101e3565b82525050565b600061021f8261011c565b9050919050565b61022f81610214565b82525050565b600082825260208201905092915050565b50565b6000610256600083610235565b915061026182610246565b600082019050919050565b600060808201905061028160008301866101c0565b61028e6020830185610205565b61029b6040830184610226565b81810360608301526102ac81610249565b905094935050505056fea26469706673582212200ae4f2865b5d01a01c5a88f4e7775b43ca840069f71421cf8870abc9c996cbbf64736f6c63430008140033",
  "devdoc": {
    "kind": "dev",
    "methods": {},
    "version": 1
  },
  "userdoc": {
    "kind": "user",
    "methods": {},
    "version": 1
  },
  "storageLayout": {
    "storage": [
      {
        "astId": 2409,
        "contract": "contracts/X2EarnApp.sol:X2EarnApp",
        "label": "rewardsPool",
        "offset": 0,
        "slot": "0",
        "type": "t_contract(IX2EarnRewardsPool)2579"
      }
    ],
    "types": {
      "t_contract(IX2EarnRewardsPool)2579": {
        "encoding": "inplace",
        "label": "contract IX2EarnRewardsPool",
        "numberOfBytes": "20"
      }
    }
  }
}