{
  "address": "0xdD0E8A706Cb3E0eE1C5490e561c9584EB2BdddA2",
  "abi": [
    {
      "inputs": [],
      "stateMutability": "nonpayable",
      "type": "constructor"
    },
    {
      "anonymous": false,
      "inputs": [
        {
          "indexed": false,
          "internalType": "address",
          "name": "previousAdmin",
          "type": "address"
        },
        {
          "indexed": false,
          "internalType": "address",
          "name": "newAdmin",
          "type": "address"
        }
      ],
      "name": "AdminChanged",
      "type": "event"
    },
    {
      "anonymous": false,
      "inputs": [
        {
          "indexed": true,
          "internalType": "address",
          "name": "beacon",
          "type": "address"
        }
      ],
      "name": "BeaconUpgraded",
      "type": "event"
    },
    {
      "anonymous": false,
      "inputs": [
        {
          "indexed": false,
          "internalType": "uint8",
          "name": "version",
          "type": "uint8"
        }
      ],
      "name": "Initialized",
      "type": "event"
    },
    {
      "anonymous": false,
      "inputs": [
        {
          "indexed": true,
          "internalType": "bytes32",
          "name": "role",
          "type": "bytes32"
        },
        {
          "indexed": true,
          "internalType": "bytes32",
          "name": "previousAdminRole",
          "type": "bytes32"
        },
        {
          "indexed": true,
          "internalType": "bytes32",
          "name": "newAdminRole",
          "type": "bytes32"
        }
      ],
      "name": "RoleAdminChanged",
      "type": "event"
    },
    {
      "anonymous": false,
      "inputs": [
        {
          "indexed": true,
          "internalType": "bytes32",
          "name": "role",
          "type": "bytes32"
        },
        {
          "indexed": true,
          "internalType": "address",
          "name": "account",
          "type": "address"
        },
        {
          "indexed": true,
          "internalType": "address",
          "name": "sender",
          "type": "address"
        }
      ],
      "name": "RoleGranted",
      "type": "event"
    },
    {
      "anonymous": false,
      "inputs": [
        {
          "indexed": true,
          "internalType": "bytes32",
          "name": "role",
          "type": "bytes32"
        },
        {
          "indexed": true,
          "internalType": "address",
          "name": "account",
          "type": "address"
        },
        {
          "indexed": true,
          "internalType": "address",
          "name": "sender",
          "type": "address"
        }
      ],
      "name": "RoleRevoked",
      "type": "event"
    },
    {
      "anonymous": false,
      "inputs": [
        {
          "indexed": true,
          "internalType": "address",
          "name": "implementation",
          "type": "address"
        }
      ],
      "name": "Upgraded",
      "type": "event"
    },
    {
      "inputs": [],
      "name": "DEFAULT_ADMIN_ROLE",
      "outputs": [
        {
          "internalType": "bytes32",
          "name": "",
          "type": "bytes32"
        }
      ],
      "stateMutability": "view",
      "type": "function"
    },
    {
      "inputs": [],
      "name": "REWARDER_ROLE",
      "outputs": [
        {
          "internalType": "bytes32",
          "name": "",
          "type": "bytes32"
        }
      ],
      "stateMutability": "view",
      "type": "function"
    },
    {
      "inputs": [],
      "name": "UPGRADER_ROLE",
      "outputs": [
        {
          "internalType": "bytes32",
          "name": "",
          "type": "bytes32"
        }
      ],
      "stateMutability": "view",
      "type": "function"
    },
    {
      "inputs": [
        {
          "internalType": "bytes32",
          "name": "role",
          "type": "bytes32"
        }
      ],
      "name": "getRoleAdmin",
      "outputs": [
        {
          "internalType": "bytes32",
          "name": "",
          "type": "bytes32"
        }
      ],
      "stateMutability": "view",
      "type": "function"
    },
    {
      "inputs": [
        {
          "internalType": "bytes32",
          "name": "role",
          "type": "bytes32"
        },
        {
          "internalType": "address",
          "name": "account",
          "type": "address"
        }
      ],
      "name": "grantRole",
      "outputs": [],
      "stateMutability": "nonpayable",
      "type": "function"
    },
    {
      "inputs": [
        {
          "internalType": "bytes32",
          "name": "role",
          "type": "bytes32"
        },
        {
          "internalType": "address",
          "name": "account",
          "type": "address"
        }
      ],
      "name": "hasRole",
      "outputs": [
        {
          "internalType": "bool",
          "name": "",
          "type": "bool"
        }
      ],
      "stateMutability": "view",
      "type": "function"
    },
    {
      "inputs": [
        {
          "internalType": "address",
          "name": "defaultAdmin",
          "type": "address"
        },
        {
          "internalType": "address",
          "name": "upgrader",
          "type": "address"
        },
        {
          "internalType": "contract IX2EarnRewardsPool",
          "name": "_rewardsPool",
          "type": "address"
        }
      ],
      "name": "initialize",
      "outputs": [],
      "stateMutability": "nonpayable",
      "type": "function"
    },
    {
      "inputs": [],
      "name": "proxiableUUID",
      "outputs": [
        {
          "internalType": "bytes32",
          "name": "",
          "type": "bytes32"
        }
      ],
      "stateMutability": "view",
      "type": "function"
    },
    {
      "inputs": [
        {
          "internalType": "bytes32",
          "name": "role",
          "type": "bytes32"
        },
        {
          "internalType": "address",
          "name": "account",
          "type": "address"
        }
      ],
      "name": "renounceRole",
      "outputs": [],
      "stateMutability": "nonpayable",
      "type": "function"
    },
    {
      "inputs": [
        {
          "internalType": "bytes32",
          "name": "role",
          "type": "bytes32"
        },
        {
          "internalType": "address",
          "name": "account",
          "type": "address"
        }
      ],
      "name": "revokeRole",
      "outputs": [],
      "stateMutability": "nonpayable",
      "type": "function"
    },
    {
      "inputs": [],
      "name": "reward",
      "outputs": [],
      "stateMutability": "nonpayable",
      "type": "function"
    },
    {
      "inputs": [
        {
          "internalType": "uint256",
          "name": "amount",
          "type": "uint256"
        },
        {
          "internalType": "address",
          "name": "receiver",
          "type": "address"
        }
      ],
      "name": "rewardAmountTo",
      "outputs": [],
      "stateMutability": "nonpayable",
      "type": "function"
    },
    {
      "inputs": [
        {
          "internalType": "uint256",
          "name": "amount",
          "type": "uint256"
        },
        {
          "internalType": "address",
          "name": "receiver",
          "type": "address"
        },
        {
          "internalType": "string[]",
          "name": "proofTypes",
          "type": "string[]"
        },
        {
          "internalType": "string[]",
          "name": "proofValues",
          "type": "string[]"
        },
        {
          "internalType": "string[]",
          "name": "impactCodes",
          "type": "string[]"
        },
        {
          "internalType": "uint256[]",
          "name": "impactValues",
          "type": "uint256[]"
        },
        {
          "internalType": "string",
          "name": "description",
          "type": "string"
        }
      ],
      "name": "rewardAmountWithProofTo",
      "outputs": [],
      "stateMutability": "nonpayable",
      "type": "function"
    },
    {
      "inputs": [
        {
          "internalType": "address",
          "name": "receiver",
          "type": "address"
        }
      ],
      "name": "rewardTo",
      "outputs": [],
      "stateMutability": "nonpayable",
      "type": "function"
    },
    {
      "inputs": [],
      "name": "rewardsPool",
      "outputs": [
        {
          "internalType": "contract IX2EarnRewardsPool",
          "name": "",
          "type": "address"
        }
      ],
      "stateMutability": "view",
      "type": "function"
    },
    {
      "inputs": [
        {
          "internalType": "bytes4",
          "name": "interfaceId",
          "type": "bytes4"
        }
      ],
      "name": "supportsInterface",
      "outputs": [
        {
          "internalType": "bool",
          "name": "",
          "type": "bool"
        }
      ],
      "stateMutability": "view",
      "type": "function"
    },
    {
      "inputs": [
        {
          "internalType": "address",
          "name": "newImplementation",
          "type": "address"
        }
      ],
      "name": "upgradeTo",
      "outputs": [],
      "stateMutability": "nonpayable",
      "type": "function"
    },
    {
      "inputs": [
        {
          "internalType": "address",
          "name": "newImplementation",
          "type": "address"
        },
        {
          "internalType": "bytes",
          "name": "data",
          "type": "bytes"
        }
      ],
      "name": "upgradeToAndCall",
      "outputs": [],
      "stateMutability": "payable",
      "type": "function"
    }
  ],
  "transactionHash": "0xa9e425cb358c2cb12ffcb2db23f5abdbdd9c49d8d267f9992863c5f86eec7fa5",
  "args": [],
  "numDeployments": 1,
  "solcInputHash": "9d77cdcd034792aee7f5054fca93e303",
  "bytecode": "0x60a06040523073ffffffffffffffffffffffffffffffffffffffff1660809073ffffffffffffffffffffffffffffffffffffffff168152503480156200004457600080fd5b50620000556200005b60201b60201c565b62000205565b600060019054906101000a900460ff1615620000ae576040517f08c379a0000000000000000000000000000000000000000000000000000000008152600401620000a590620001a8565b60405180910390fd5b60ff801660008054906101000a900460ff1660ff16146200011f5760ff6000806101000a81548160ff021916908360ff1602179055507f7f26b83ff96e1f2b6a682f133852f6798a09c465da95921460cefb384740249860ff604051620001169190620001e8565b60405180910390a15b565b600082825260208201905092915050565b7f496e697469616c697a61626c653a20636f6e747261637420697320696e69746960008201527f616c697a696e6700000000000000000000000000000000000000000000000000602082015250565b60006200019060278362000121565b91506200019d8262000132565b604082019050919050565b60006020820190508181036000830152620001c38162000181565b9050919050565b600060ff82169050919050565b620001e281620001ca565b82525050565b6000602082019050620001ff6000830184620001d7565b92915050565b60805161300b6200023d600039600081816106ed0152818161077b015281816108750152818161090301526109b3015261300b6000f3fe6080604052600436106101095760003560e01c806352d1902d11610095578063a217fddf11610064578063a217fddf14610346578063a6e784e514610371578063c0c53b8b1461039a578063d547741f146103c3578063f72c0d8b146103ec57610109565b806352d1902d1461028a5780637582a2f0146102b55780638580cf76146102de57806391d148541461030957610109565b8063248a9ca3116100dc578063248a9ca3146101b65780632f2ff15d146101f357806336568abe1461021c5780633659cfe6146102455780634f1ef2861461026e57610109565b806301ffc9a71461010e5780630359fea91461014b57806315808ed314610176578063228cb7331461019f575b600080fd5b34801561011a57600080fd5b50610135600480360381019061013091906119ac565b610417565b60405161014291906119f4565b60405180910390f35b34801561015757600080fd5b50610160610491565b60405161016d9190611a8e565b60405180910390f35b34801561018257600080fd5b5061019d60048036038101906101989190611e0c565b6104b7565b005b3480156101ab57600080fd5b506101b4610589565b005b3480156101c257600080fd5b506101dd60048036038101906101d89190611f70565b610627565b6040516101ea9190611fac565b60405180910390f35b3480156101ff57600080fd5b5061021a60048036038101906102159190611fc7565b610647565b005b34801561022857600080fd5b50610243600480360381019061023e9190611fc7565b610668565b005b34801561025157600080fd5b5061026c60048036038101906102679190612007565b6106eb565b005b610288600480360381019061028391906120d5565b610873565b005b34801561029657600080fd5b5061029f6109af565b6040516102ac9190611fac565b60405180910390f35b3480156102c157600080fd5b506102dc60048036038101906102d79190612007565b610a68565b005b3480156102ea57600080fd5b506102f3610b32565b6040516103009190611fac565b60405180910390f35b34801561031557600080fd5b50610330600480360381019061032b9190611fc7565b610b56565b60405161033d91906119f4565b60405180910390f35b34801561035257600080fd5b5061035b610bc1565b6040516103689190611fac565b60405180910390f35b34801561037d57600080fd5b5061039860048036038101906103939190612131565b610bc8565b005b3480156103a657600080fd5b506103c160048036038101906103bc91906121af565b610c8b565b005b3480156103cf57600080fd5b506103ea60048036038101906103e59190611fc7565b610e4c565b005b3480156103f857600080fd5b50610401610e6d565b60405161040e9190611fac565b60405180910390f35b60007f7965db0b000000000000000000000000000000000000000000000000000000007bffffffffffffffffffffffffffffffffffffffffffffffffffffffff1916827bffffffffffffffffffffffffffffffffffffffffffffffffffffffff1916148061048a575061048982610e91565b5b9050919050565b60fb60009054906101000a900473ffffffffffffffffffffffffffffffffffffffff1681565b7fbeec13769b5f410b0584f69811bfd923818456d5edcf426b0e31cf90eed7a3f66104e181610efb565b60fb60009054906101000a900473ffffffffffffffffffffffffffffffffffffffff1673ffffffffffffffffffffffffffffffffffffffff16637b9245326000801b8a8a8a8a8a8a8a6040518963ffffffff1660e01b815260040161054d989796959493929190612469565b600060405180830381600087803b15801561056757600080fd5b505af115801561057b573d6000803e3d6000fd5b505050505050505050505050565b60fb60009054906101000a900473ffffffffffffffffffffffffffffffffffffffff1673ffffffffffffffffffffffffffffffffffffffff1663f7335f116000801b670de0b6b3a7640000336040518463ffffffff1660e01b81526004016105f39392919061256b565b600060405180830381600087803b15801561060d57600080fd5b505af1158015610621573d6000803e3d6000fd5b50505050565b600060656000838152602001908152602001600020600101549050919050565b61065082610627565b61065981610efb565b6106638383610f0f565b505050565b610670610ff0565b73ffffffffffffffffffffffffffffffffffffffff168173ffffffffffffffffffffffffffffffffffffffff16146106dd576040517f08c379a00000000000000000000000000000000000000000000000000000000081526004016106d490612627565b60405180910390fd5b6106e78282610ff8565b5050565b7f000000000000000000000000000000000000000000000000000000000000000073ffffffffffffffffffffffffffffffffffffffff163073ffffffffffffffffffffffffffffffffffffffff1603610779576040517f08c379a0000000000000000000000000000000000000000000000000000000008152600401610770906126b9565b60405180910390fd5b7f000000000000000000000000000000000000000000000000000000000000000073ffffffffffffffffffffffffffffffffffffffff166107b86110da565b73ffffffffffffffffffffffffffffffffffffffff161461080e576040517f08c379a00000000000000000000000000000000000000000000000000000000081526004016108059061274b565b60405180910390fd5b61081781611131565b61087081600067ffffffffffffffff81111561083657610835611b33565b5b6040519080825280601f01601f1916602001820160405280156108685781602001600182028036833780820191505090505b50600061115f565b50565b7f000000000000000000000000000000000000000000000000000000000000000073ffffffffffffffffffffffffffffffffffffffff163073ffffffffffffffffffffffffffffffffffffffff1603610901576040517f08c379a00000000000000000000000000000000000000000000000000000000081526004016108f8906126b9565b60405180910390fd5b7f000000000000000000000000000000000000000000000000000000000000000073ffffffffffffffffffffffffffffffffffffffff166109406110da565b73ffffffffffffffffffffffffffffffffffffffff1614610996576040517f08c379a000000000000000000000000000000000000000000000000000000000815260040161098d9061274b565b60405180910390fd5b61099f82611131565b6109ab8282600161115f565b5050565b60007f000000000000000000000000000000000000000000000000000000000000000073ffffffffffffffffffffffffffffffffffffffff163073ffffffffffffffffffffffffffffffffffffffff1614610a3f576040517f08c379a0000000000000000000000000000000000000000000000000000000008152600401610a36906127dd565b60405180910390fd5b7f360894a13ba1a3210667c828492db98dca3e2076cc3735a920a3ca505d382bbc60001b905090565b7fbeec13769b5f410b0584f69811bfd923818456d5edcf426b0e31cf90eed7a3f6610a9281610efb565b60fb60009054906101000a900473ffffffffffffffffffffffffffffffffffffffff1673ffffffffffffffffffffffffffffffffffffffff1663f7335f116000801b671bc16d674ec80000856040518463ffffffff1660e01b8152600401610afc93929190612838565b600060405180830381600087803b158015610b1657600080fd5b505af1158015610b2a573d6000803e3d6000fd5b505050505050565b7fbeec13769b5f410b0584f69811bfd923818456d5edcf426b0e31cf90eed7a3f681565b60006065600084815260200190815260200160002060000160008373ffffffffffffffffffffffffffffffffffffffff1673ffffffffffffffffffffffffffffffffffffffff16815260200190815260200160002060009054906101000a900460ff16905092915050565b6000801b81565b7fbeec13769b5f410b0584f69811bfd923818456d5edcf426b0e31cf90eed7a3f6610bf281610efb565b60fb60009054906101000a900473ffffffffffffffffffffffffffffffffffffffff1673ffffffffffffffffffffffffffffffffffffffff1663f7335f116000801b85856040518463ffffffff1660e01b8152600401610c5493929190612882565b600060405180830381600087803b158015610c6e57600080fd5b505af1158015610c82573d6000803e3d6000fd5b50505050505050565b60008060019054906101000a900460ff16159050808015610cbc5750600160008054906101000a900460ff1660ff16105b80610ce95750610ccb306112cd565b158015610ce85750600160008054906101000a900460ff1660ff16145b5b610d28576040517f08c379a0000000000000000000000000000000000000000000000000000000008152600401610d1f9061293e565b60405180910390fd5b60016000806101000a81548160ff021916908360ff1602179055508015610d65576001600060016101000a81548160ff0219169083151502179055505b610d6d6112f0565b610d75611341565b610d826000801b85610f0f565b610dac7f189ab7a9244df0848122154315af71fe140f3db0fe014031783b0946b8c9d2e384610f0f565b8160fb60006101000a81548173ffffffffffffffffffffffffffffffffffffffff021916908373ffffffffffffffffffffffffffffffffffffffff1602179055508015610e465760008060016101000a81548160ff0219169083151502179055507f7f26b83ff96e1f2b6a682f133852f6798a09c465da95921460cefb38474024986001604051610e3d91906129a6565b60405180910390a15b50505050565b610e5582610627565b610e5e81610efb565b610e688383610ff8565b505050565b7f189ab7a9244df0848122154315af71fe140f3db0fe014031783b0946b8c9d2e381565b60007f01ffc9a7000000000000000000000000000000000000000000000000000000007bffffffffffffffffffffffffffffffffffffffffffffffffffffffff1916827bffffffffffffffffffffffffffffffffffffffffffffffffffffffff1916149050919050565b610f0c81610f07610ff0565b611392565b50565b610f198282610b56565b610fec5760016065600084815260200190815260200160002060000160008373ffffffffffffffffffffffffffffffffffffffff1673ffffffffffffffffffffffffffffffffffffffff16815260200190815260200160002060006101000a81548160ff021916908315150217905550610f91610ff0565b73ffffffffffffffffffffffffffffffffffffffff168173ffffffffffffffffffffffffffffffffffffffff16837f2f8788117e7eff1d82e926ec794901d17c78024a50270940304540a733656f0d60405160405180910390a45b5050565b600033905090565b6110028282610b56565b156110d65760006065600084815260200190815260200160002060000160008373ffffffffffffffffffffffffffffffffffffffff1673ffffffffffffffffffffffffffffffffffffffff16815260200190815260200160002060006101000a81548160ff02191690831515021790555061107b610ff0565b73ffffffffffffffffffffffffffffffffffffffff168173ffffffffffffffffffffffffffffffffffffffff16837ff6391f5c32d9c69d2a47ea670b442974b53935d1edc7fd64eb21e047a839171b60405160405180910390a45b5050565b60006111087f360894a13ba1a3210667c828492db98dca3e2076cc3735a920a3ca505d382bbc60001b611417565b60000160009054906101000a900473ffffffffffffffffffffffffffffffffffffffff16905090565b7f189ab7a9244df0848122154315af71fe140f3db0fe014031783b0946b8c9d2e361115b81610efb565b5050565b61118b7f4910fdfa16fed3260ed0e7147f7cc6da11a60208b5b9406d12a635614ffd914360001b611421565b60000160009054906101000a900460ff16156111af576111aa8361142b565b6112c8565b8273ffffffffffffffffffffffffffffffffffffffff166352d1902d6040518163ffffffff1660e01b8152600401602060405180830381865afa92505050801561121757506040513d601f19601f8201168201806040525081019061121491906129d6565b60015b611256576040517f08c379a000000000000000000000000000000000000000000000000000000000815260040161124d90612a75565b60405180910390fd5b7f360894a13ba1a3210667c828492db98dca3e2076cc3735a920a3ca505d382bbc60001b81146112bb576040517f08c379a00000000000000000000000000000000000000000000000000000000081526004016112b290612b07565b60405180910390fd5b506112c78383836114e4565b5b505050565b6000808273ffffffffffffffffffffffffffffffffffffffff163b119050919050565b600060019054906101000a900460ff1661133f576040517f08c379a000000000000000000000000000000000000000000000000000000000815260040161133690612b99565b60405180910390fd5b565b600060019054906101000a900460ff16611390576040517f08c379a000000000000000000000000000000000000000000000000000000000815260040161138790612b99565b60405180910390fd5b565b61139c8282610b56565b611413576113a981611510565b6113b78360001c602061153d565b6040516020016113c8929190612c8d565b6040516020818303038152906040526040517f08c379a000000000000000000000000000000000000000000000000000000000815260040161140a9190612cc7565b60405180910390fd5b5050565b6000819050919050565b6000819050919050565b611434816112cd565b611473576040517f08c379a000000000000000000000000000000000000000000000000000000000815260040161146a90612d5b565b60405180910390fd5b806114a07f360894a13ba1a3210667c828492db98dca3e2076cc3735a920a3ca505d382bbc60001b611417565b60000160006101000a81548173ffffffffffffffffffffffffffffffffffffffff021916908373ffffffffffffffffffffffffffffffffffffffff16021790555050565b6114ed83611779565b6000825111806114fa5750805b1561150b5761150983836117c8565b505b505050565b60606115368273ffffffffffffffffffffffffffffffffffffffff16601460ff1661153d565b9050919050565b6060600060028360026115509190612daa565b61155a9190612dec565b67ffffffffffffffff81111561157357611572611b33565b5b6040519080825280601f01601f1916602001820160405280156115a55781602001600182028036833780820191505090505b5090507f3000000000000000000000000000000000000000000000000000000000000000816000815181106115dd576115dc612e20565b5b60200101907effffffffffffffffffffffffffffffffffffffffffffffffffffffffffffff1916908160001a9053507f78000000000000000000000000000000000000000000000000000000000000008160018151811061164157611640612e20565b5b60200101907effffffffffffffffffffffffffffffffffffffffffffffffffffffffffffff1916908160001a905350600060018460026116819190612daa565b61168b9190612dec565b90505b600181111561172b577f3031323334353637383961626364656600000000000000000000000000000000600f8616601081106116cd576116cc612e20565b5b1a60f81b8282815181106116e4576116e3612e20565b5b60200101907effffffffffffffffffffffffffffffffffffffffffffffffffffffffffffff1916908160001a905350600485901c94508061172490612e4f565b905061168e565b506000841461176f576040517f08c379a000000000000000000000000000000000000000000000000000000000815260040161176690612ec4565b60405180910390fd5b8091505092915050565b6117828161142b565b8073ffffffffffffffffffffffffffffffffffffffff167fbc7cd75a20ee27fd9adebab32041f755214dbc6bffa90cc0225b39da2e5c2d3b60405160405180910390a250565b60606117ed8383604051806060016040528060278152602001612faf602791396117f5565b905092915050565b60606000808573ffffffffffffffffffffffffffffffffffffffff168560405161181f9190612f2b565b600060405180830381855af49150503d806000811461185a576040519150601f19603f3d011682016040523d82523d6000602084013e61185f565b606091505b50915091506118708683838761187b565b925050509392505050565b606083156118dd5760008351036118d557611895856112cd565b6118d4576040517f08c379a00000000000000000000000000000000000000000000000000000000081526004016118cb90612f8e565b60405180910390fd5b5b8290506118e8565b6118e783836118f0565b5b949350505050565b6000825111156119035781518083602001fd5b806040517f08c379a00000000000000000000000000000000000000000000000000000000081526004016119379190612cc7565b60405180910390fd5b6000604051905090565b600080fd5b600080fd5b60007fffffffff0000000000000000000000000000000000000000000000000000000082169050919050565b61198981611954565b811461199457600080fd5b50565b6000813590506119a681611980565b92915050565b6000602082840312156119c2576119c161194a565b5b60006119d084828501611997565b91505092915050565b60008115159050919050565b6119ee816119d9565b82525050565b6000602082019050611a0960008301846119e5565b92915050565b600073ffffffffffffffffffffffffffffffffffffffff82169050919050565b6000819050919050565b6000611a54611a4f611a4a84611a0f565b611a2f565b611a0f565b9050919050565b6000611a6682611a39565b9050919050565b6000611a7882611a5b565b9050919050565b611a8881611a6d565b82525050565b6000602082019050611aa36000830184611a7f565b92915050565b6000819050919050565b611abc81611aa9565b8114611ac757600080fd5b50565b600081359050611ad981611ab3565b92915050565b6000611aea82611a0f565b9050919050565b611afa81611adf565b8114611b0557600080fd5b50565b600081359050611b1781611af1565b92915050565b600080fd5b6000601f19601f8301169050919050565b7f4e487b7100000000000000000000000000000000000000000000000000000000600052604160045260246000fd5b611b6b82611b22565b810181811067ffffffffffffffff82111715611b8a57611b89611b33565b5b80604052505050565b6000611b9d611940565b9050611ba98282611b62565b919050565b600067ffffffffffffffff821115611bc957611bc8611b33565b5b602082029050602081019050919050565b600080fd5b600080fd5b600067ffffffffffffffff821115611bff57611bfe611b33565b5b611c0882611b22565b9050602081019050919050565b82818337600083830152505050565b6000611c37611c3284611be4565b611b93565b905082815260208101848484011115611c5357611c52611bdf565b5b611c5e848285611c15565b509392505050565b600082601f830112611c7b57611c7a611b1d565b5b8135611c8b848260208601611c24565b91505092915050565b6000611ca7611ca284611bae565b611b93565b90508083825260208201905060208402830185811115611cca57611cc9611bda565b5b835b81811015611d1157803567ffffffffffffffff811115611cef57611cee611b1d565b5b808601611cfc8982611c66565b85526020850194505050602081019050611ccc565b5050509392505050565b600082601f830112611d3057611d2f611b1d565b5b8135611d40848260208601611c94565b91505092915050565b600067ffffffffffffffff821115611d6457611d63611b33565b5b602082029050602081019050919050565b6000611d88611d8384611d49565b611b93565b90508083825260208201905060208402830185811115611dab57611daa611bda565b5b835b81811015611dd45780611dc08882611aca565b845260208401935050602081019050611dad565b5050509392505050565b600082601f830112611df357611df2611b1d565b5b8135611e03848260208601611d75565b91505092915050565b600080600080600080600060e0888a031215611e2b57611e2a61194a565b5b6000611e398a828b01611aca565b9750506020611e4a8a828b01611b08565b965050604088013567ffffffffffffffff811115611e6b57611e6a61194f565b5b611e778a828b01611d1b565b955050606088013567ffffffffffffffff811115611e9857611e9761194f565b5b611ea48a828b01611d1b565b945050608088013567ffffffffffffffff811115611ec557611ec461194f565b5b611ed18a828b01611d1b565b93505060a088013567ffffffffffffffff811115611ef257611ef161194f565b5b611efe8a828b01611dde565b92505060c088013567ffffffffffffffff811115611f1f57611f1e61194f565b5b611f2b8a828b01611c66565b91505092959891949750929550565b6000819050919050565b611f4d81611f3a565b8114611f5857600080fd5b50565b600081359050611f6a81611f44565b92915050565b600060208284031215611f8657611f8561194a565b5b6000611f9484828501611f5b565b91505092915050565b611fa681611f3a565b82525050565b6000602082019050611fc16000830184611f9d565b92915050565b60008060408385031215611fde57611fdd61194a565b5b6000611fec85828601611f5b565b9250506020611ffd85828601611b08565b9150509250929050565b60006020828403121561201d5761201c61194a565b5b600061202b84828501611b08565b91505092915050565b600067ffffffffffffffff82111561204f5761204e611b33565b5b61205882611b22565b9050602081019050919050565b600061207861207384612034565b611b93565b90508281526020810184848401111561209457612093611bdf565b5b61209f848285611c15565b509392505050565b600082601f8301126120bc576120bb611b1d565b5b81356120cc848260208601612065565b91505092915050565b600080604083850312156120ec576120eb61194a565b5b60006120fa85828601611b08565b925050602083013567ffffffffffffffff81111561211b5761211a61194f565b5b612127858286016120a7565b9150509250929050565b600080604083850312156121485761214761194a565b5b600061215685828601611aca565b925050602061216785828601611b08565b9150509250929050565b600061217c82611adf565b9050919050565b61218c81612171565b811461219757600080fd5b50565b6000813590506121a981612183565b92915050565b6000806000606084860312156121c8576121c761194a565b5b60006121d686828701611b08565b93505060206121e786828701611b08565b92505060406121f88682870161219a565b9150509250925092565b61220b81611aa9565b82525050565b61221a81611adf565b82525050565b600081519050919050565b600082825260208201905092915050565b6000819050602082019050919050565b600081519050919050565b600082825260208201905092915050565b60005b8381101561228657808201518184015260208101905061226b565b60008484015250505050565b600061229d8261224c565b6122a78185612257565b93506122b7818560208601612268565b6122c081611b22565b840191505092915050565b60006122d78383612292565b905092915050565b6000602082019050919050565b60006122f782612220565b612301818561222b565b9350836020820285016123138561223c565b8060005b8581101561234f578484038952815161233085826122cb565b945061233b836122df565b925060208a01995050600181019050612317565b50829750879550505050505092915050565b600081519050919050565b600082825260208201905092915050565b6000819050602082019050919050565b61239681611aa9565b82525050565b60006123a8838361238d565b60208301905092915050565b6000602082019050919050565b60006123cc82612361565b6123d6818561236c565b93506123e18361237d565b8060005b838110156124125781516123f9888261239c565b9750612404836123b4565b9250506001810190506123e5565b5085935050505092915050565b600082825260208201905092915050565b600061243b8261224c565b612445818561241f565b9350612455818560208601612268565b61245e81611b22565b840191505092915050565b60006101008201905061247f600083018b611f9d565b61248c602083018a612202565b6124996040830189612211565b81810360608301526124ab81886122ec565b905081810360808301526124bf81876122ec565b905081810360a08301526124d381866122ec565b905081810360c08301526124e781856123c1565b905081810360e08301526124fb8184612430565b90509998505050505050505050565b6000819050919050565b600061252f61252a6125258461250a565b611a2f565b611aa9565b9050919050565b61253f81612514565b82525050565b50565b600061255560008361241f565b915061256082612545565b600082019050919050565b60006080820190506125806000830186611f9d565b61258d6020830185612536565b61259a6040830184612211565b81810360608301526125ab81612548565b9050949350505050565b7f416363657373436f6e74726f6c3a2063616e206f6e6c792072656e6f756e636560008201527f20726f6c657320666f722073656c660000000000000000000000000000000000602082015250565b6000612611602f8361241f565b915061261c826125b5565b604082019050919050565b6000602082019050818103600083015261264081612604565b9050919050565b7f46756e6374696f6e206d7573742062652063616c6c6564207468726f7567682060008201527f64656c656761746563616c6c0000000000000000000000000000000000000000602082015250565b60006126a3602c8361241f565b91506126ae82612647565b604082019050919050565b600060208201905081810360008301526126d281612696565b9050919050565b7f46756e6374696f6e206d7573742062652063616c6c6564207468726f7567682060008201527f6163746976652070726f78790000000000000000000000000000000000000000602082015250565b6000612735602c8361241f565b9150612740826126d9565b604082019050919050565b6000602082019050818103600083015261276481612728565b9050919050565b7f555550535570677261646561626c653a206d757374206e6f742062652063616c60008201527f6c6564207468726f7567682064656c656761746563616c6c0000000000000000602082015250565b60006127c760388361241f565b91506127d28261276b565b604082019050919050565b600060208201905081810360008301526127f6816127ba565b9050919050565b6000819050919050565b600061282261281d612818846127fd565b611a2f565b611aa9565b9050919050565b61283281612807565b82525050565b600060808201905061284d6000830186611f9d565b61285a6020830185612829565b6128676040830184612211565b818103606083015261287881612548565b9050949350505050565b60006080820190506128976000830186611f9d565b6128a46020830185612202565b6128b16040830184612211565b81810360608301526128c281612548565b9050949350505050565b7f496e697469616c697a61626c653a20636f6e747261637420697320616c72656160008201527f647920696e697469616c697a6564000000000000000000000000000000000000602082015250565b6000612928602e8361241f565b9150612933826128cc565b604082019050919050565b600060208201905081810360008301526129578161291b565b9050919050565b6000819050919050565b600060ff82169050919050565b600061299061298b6129868461295e565b611a2f565b612968565b9050919050565b6129a081612975565b82525050565b60006020820190506129bb6000830184612997565b92915050565b6000815190506129d081611f44565b92915050565b6000602082840312156129ec576129eb61194a565b5b60006129fa848285016129c1565b91505092915050565b7f45524331393637557067726164653a206e657720696d706c656d656e7461746960008201527f6f6e206973206e6f742055555053000000000000000000000000000000000000602082015250565b6000612a5f602e8361241f565b9150612a6a82612a03565b604082019050919050565b60006020820190508181036000830152612a8e81612a52565b9050919050565b7f45524331393637557067726164653a20756e737570706f727465642070726f7860008201527f6961626c65555549440000000000000000000000000000000000000000000000602082015250565b6000612af160298361241f565b9150612afc82612a95565b604082019050919050565b60006020820190508181036000830152612b2081612ae4565b9050919050565b7f496e697469616c697a61626c653a20636f6e7472616374206973206e6f74206960008201527f6e697469616c697a696e67000000000000000000000000000000000000000000602082015250565b6000612b83602b8361241f565b9150612b8e82612b27565b604082019050919050565b60006020820190508181036000830152612bb281612b76565b9050919050565b600081905092915050565b7f416363657373436f6e74726f6c3a206163636f756e7420000000000000000000600082015250565b6000612bfa601783612bb9565b9150612c0582612bc4565b601782019050919050565b6000612c1b8261224c565b612c258185612bb9565b9350612c35818560208601612268565b80840191505092915050565b7f206973206d697373696e6720726f6c6520000000000000000000000000000000600082015250565b6000612c77601183612bb9565b9150612c8282612c41565b601182019050919050565b6000612c9882612bed565b9150612ca48285612c10565b9150612caf82612c6a565b9150612cbb8284612c10565b91508190509392505050565b60006020820190508181036000830152612ce18184612430565b905092915050565b7f455243313936373a206e657720696d706c656d656e746174696f6e206973206e60008201527f6f74206120636f6e747261637400000000000000000000000000000000000000602082015250565b6000612d45602d8361241f565b9150612d5082612ce9565b604082019050919050565b60006020820190508181036000830152612d7481612d38565b9050919050565b7f4e487b7100000000000000000000000000000000000000000000000000000000600052601160045260246000fd5b6000612db582611aa9565b9150612dc083611aa9565b9250828202612dce81611aa9565b91508282048414831517612de557612de4612d7b565b5b5092915050565b6000612df782611aa9565b9150612e0283611aa9565b9250828201905080821115612e1a57612e19612d7b565b5b92915050565b7f4e487b7100000000000000000000000000000000000000000000000000000000600052603260045260246000fd5b6000612e5a82611aa9565b915060008203612e6d57612e6c612d7b565b5b600182039050919050565b7f537472696e67733a20686578206c656e67746820696e73756666696369656e74600082015250565b6000612eae60208361241f565b9150612eb982612e78565b602082019050919050565b60006020820190508181036000830152612edd81612ea1565b9050919050565b600081519050919050565b600081905092915050565b6000612f0582612ee4565b612f0f8185612eef565b9350612f1f818560208601612268565b80840191505092915050565b6000612f378284612efa565b915081905092915050565b7f416464726573733a2063616c6c20746f206e6f6e2d636f6e7472616374000000600082015250565b6000612f78601d8361241f565b9150612f8382612f42565b602082019050919050565b60006020820190508181036000830152612fa781612f6b565b905091905056fe416464726573733a206c6f772d6c6576656c2064656c65676174652063616c6c206661696c6564a2646970667358221220938bd8f5acfab0f963a1362e36486b2d6d0f4043a243bc420481d4351d7b629364736f6c63430008140033",
  "devdoc": {
    "events": {
      "AdminChanged(address,address)": {
        "details": "Emitted when the admin account has changed."
      },
      "BeaconUpgraded(address)": {
        "details": "Emitted when the beacon is changed."
      },
      "Initialized(uint8)": {
        "details": "Triggered when the contract has been initialized or reinitialized."
      },
      "RoleAdminChanged(bytes32,bytes32,bytes32)": {
        "details": "Emitted when `newAdminRole` is set as ``role``'s admin role, replacing `previousAdminRole` `DEFAULT_ADMIN_ROLE` is the starting admin for all roles, despite {RoleAdminChanged} not being emitted signaling this. _Available since v3.1._"
      },
      "RoleGranted(bytes32,address,address)": {
        "details": "Emitted when `account` is granted `role`. `sender` is the account that originated the contract call, an admin role bearer except when using {AccessControl-_setupRole}."
      },
      "RoleRevoked(bytes32,address,address)": {
        "details": "Emitted when `account` is revoked `role`. `sender` is the account that originated the contract call:   - if using `revokeRole`, it is the admin role bearer   - if using `renounceRole`, it is the role bearer (i.e. `account`)"
      },
      "Upgraded(address)": {
        "details": "Emitted when the implementation is upgraded."
      }
    },
    "kind": "dev",
    "methods": {
      "constructor": {
        "custom:oz-upgrades-unsafe-allow": "constructor"
      },
      "getRoleAdmin(bytes32)": {
        "details": "Returns the admin role that controls `role`. See {grantRole} and {revokeRole}. To change a role's admin, use {_setRoleAdmin}."
      },
      "grantRole(bytes32,address)": {
        "details": "Grants `role` to `account`. If `account` had not been already granted `role`, emits a {RoleGranted} event. Requirements: - the caller must have ``role``'s admin role. May emit a {RoleGranted} event."
      },
      "hasRole(bytes32,address)": {
        "details": "Returns `true` if `account` has been granted `role`."
      },
      "proxiableUUID()": {
        "details": "Implementation of the ERC1822 {proxiableUUID} function. This returns the storage slot used by the implementation. It is used to validate the implementation's compatibility when performing an upgrade. IMPORTANT: A proxy pointing at a proxiable contract should not be considered proxiable itself, because this risks bricking a proxy that upgrades to it, by delegating to itself until out of gas. Thus it is critical that this function revert if invoked through a proxy. This is guaranteed by the `notDelegated` modifier."
      },
      "renounceRole(bytes32,address)": {
        "details": "Revokes `role` from the calling account. Roles are often managed via {grantRole} and {revokeRole}: this function's purpose is to provide a mechanism for accounts to lose their privileges if they are compromised (such as when a trusted device is misplaced). If the calling account had been revoked `role`, emits a {RoleRevoked} event. Requirements: - the caller must be `account`. May emit a {RoleRevoked} event."
      },
      "revokeRole(bytes32,address)": {
        "details": "Revokes `role` from `account`. If `account` had been granted `role`, emits a {RoleRevoked} event. Requirements: - the caller must have ``role``'s admin role. May emit a {RoleRevoked} event."
      },
      "supportsInterface(bytes4)": {
        "details": "See {IERC165-supportsInterface}."
      },
      "upgradeTo(address)": {
        "custom:oz-upgrades-unsafe-allow-reachable": "delegatecall",
        "details": "Upgrade the implementation of the proxy to `newImplementation`. Calls {_authorizeUpgrade}. Emits an {Upgraded} event."
      },
      "upgradeToAndCall(address,bytes)": {
        "custom:oz-upgrades-unsafe-allow-reachable": "delegatecall",
        "details": "Upgrade the implementation of the proxy to `newImplementation`, and subsequently execute the function call encoded in `data`. Calls {_authorizeUpgrade}. Emits an {Upgraded} event."
      }
    },
    "version": 1
  },
  "userdoc": {
    "kind": "user",
    "methods": {},
    "version": 1
  },
  "storageLayout": {
    "storage": [
      {
        "astId": 782,
        "contract": "contracts/X2EarnApp.sol:X2EarnApp",
        "label": "_initialized",
        "offset": 0,
        "slot": "0",
        "type": "t_uint8"
      },
      {
        "astId": 785,
        "contract": "contracts/X2EarnApp.sol:X2EarnApp",
        "label": "_initializing",
        "offset": 1,
        "slot": "0",
        "type": "t_bool"
      },
      {
        "astId": 1461,
        "contract": "contracts/X2EarnApp.sol:X2EarnApp",
        "label": "__gap",
        "offset": 0,
        "slot": "1",
        "type": "t_array(t_uint256)50_storage"
      },
      {
        "astId": 1845,
        "contract": "contracts/X2EarnApp.sol:X2EarnApp",
        "label": "__gap",
        "offset": 0,
        "slot": "51",
        "type": "t_array(t_uint256)50_storage"
      },
      {
        "astId": 28,
        "contract": "contracts/X2EarnApp.sol:X2EarnApp",
        "label": "_roles",
        "offset": 0,
        "slot": "101",
        "type": "t_mapping(t_bytes32,t_struct(RoleData)23_storage)"
      },
      {
        "astId": 335,
        "contract": "contracts/X2EarnApp.sol:X2EarnApp",
        "label": "__gap",
        "offset": 0,
        "slot": "102",
        "type": "t_array(t_uint256)49_storage"
      },
      {
        "astId": 764,
        "contract": "contracts/X2EarnApp.sol:X2EarnApp",
        "label": "__gap",
        "offset": 0,
        "slot": "151",
        "type": "t_array(t_uint256)50_storage"
      },
      {
        "astId": 1080,
        "contract": "contracts/X2EarnApp.sol:X2EarnApp",
        "label": "__gap",
        "offset": 0,
        "slot": "201",
        "type": "t_array(t_uint256)50_storage"
      },
      {
        "astId": 2854,
        "contract": "contracts/X2EarnApp.sol:X2EarnApp",
        "label": "rewardsPool",
        "offset": 0,
        "slot": "251",
        "type": "t_contract(IX2EarnRewardsPool)3149"
      }
    ],
    "types": {
      "t_address": {
        "encoding": "inplace",
        "label": "address",
        "numberOfBytes": "20"
      },
      "t_array(t_uint256)49_storage": {
        "base": "t_uint256",
        "encoding": "inplace",
        "label": "uint256[49]",
        "numberOfBytes": "1568"
      },
      "t_array(t_uint256)50_storage": {
        "base": "t_uint256",
        "encoding": "inplace",
        "label": "uint256[50]",
        "numberOfBytes": "1600"
      },
      "t_bool": {
        "encoding": "inplace",
        "label": "bool",
        "numberOfBytes": "1"
      },
      "t_bytes32": {
        "encoding": "inplace",
        "label": "bytes32",
        "numberOfBytes": "32"
      },
      "t_contract(IX2EarnRewardsPool)3149": {
        "encoding": "inplace",
        "label": "contract IX2EarnRewardsPool",
        "numberOfBytes": "20"
      },
      "t_mapping(t_address,t_bool)": {
        "encoding": "mapping",
        "key": "t_address",
        "label": "mapping(address => bool)",
        "numberOfBytes": "32",
        "value": "t_bool"
      },
      "t_mapping(t_bytes32,t_struct(RoleData)23_storage)": {
        "encoding": "mapping",
        "key": "t_bytes32",
        "label": "mapping(bytes32 => struct AccessControlUpgradeable.RoleData)",
        "numberOfBytes": "32",
        "value": "t_struct(RoleData)23_storage"
      },
      "t_struct(RoleData)23_storage": {
        "encoding": "inplace",
        "label": "struct AccessControlUpgradeable.RoleData",
        "members": [
          {
            "astId": 20,
            "contract": "contracts/X2EarnApp.sol:X2EarnApp",
            "label": "members",
            "offset": 0,
            "slot": "0",
            "type": "t_mapping(t_address,t_bool)"
          },
          {
            "astId": 22,
            "contract": "contracts/X2EarnApp.sol:X2EarnApp",
            "label": "adminRole",
            "offset": 0,
            "slot": "1",
            "type": "t_bytes32"
          }
        ],
        "numberOfBytes": "64"
      },
      "t_uint256": {
        "encoding": "inplace",
        "label": "uint256",
        "numberOfBytes": "32"
      },
      "t_uint8": {
        "encoding": "inplace",
        "label": "uint8",
        "numberOfBytes": "1"
      }
    }
  }
}