{
  "address": "0xb034d6f0eB4a4F8175a916A8DAd5296F42f3a47d",
  "abi": [
    {
      "inputs": [
        {
          "internalType": "contract B3TRMock",
          "name": "_b3tr",
          "type": "address"
        }
      ],
      "stateMutability": "nonpayable",
      "type": "constructor"
    },
    {
      "anonymous": false,
      "inputs": [
        {
          "indexed": false,
          "internalType": "uint256",
          "name": "amount",
          "type": "uint256"
        },
        {
          "indexed": true,
          "internalType": "bytes32",
          "name": "appId",
          "type": "bytes32"
        },
        {
          "indexed": true,
          "internalType": "address",
          "name": "receiver",
          "type": "address"
        },
        {
          "indexed": false,
          "internalType": "string",
          "name": "proof",
          "type": "string"
        },
        {
          "indexed": true,
          "internalType": "address",
          "name": "distributor",
          "type": "address"
        }
      ],
      "name": "RewardDistributed",
      "type": "event"
    },
    {
      "inputs": [],
      "name": "b3tr",
      "outputs": [
        {
          "internalType": "contract B3TRMock",
          "name": "",
          "type": "address"
        }
      ],
      "stateMutability": "view",
      "type": "function"
    },
    {
      "inputs": [
        {
          "internalType": "string[]",
          "name": "proofTypes",
          "type": "string[]"
        },
        {
          "internalType": "string[]",
          "name": "proofValues",
          "type": "string[]"
        },
        {
          "internalType": "string[]",
          "name": "impactCodes",
          "type": "string[]"
        },
        {
          "internalType": "uint256[]",
          "name": "impactValues",
          "type": "uint256[]"
        },
        {
          "internalType": "string",
          "name": "description",
          "type": "string"
        }
      ],
      "name": "buildProof",
      "outputs": [
        {
          "internalType": "string",
          "name": "",
          "type": "string"
        }
      ],
      "stateMutability": "view",
      "type": "function"
    },
    {
      "inputs": [
        {
          "internalType": "bytes32",
          "name": "appId",
          "type": "bytes32"
        },
        {
          "internalType": "uint256",
          "name": "amount",
          "type": "uint256"
        },
        {
          "internalType": "address",
          "name": "receiver",
          "type": "address"
        },
        {
          "internalType": "string",
          "name": "",
          "type": "string"
        }
      ],
      "name": "distributeReward",
      "outputs": [],
      "stateMutability": "nonpayable",
      "type": "function"
    },
    {
      "inputs": [
        {
          "internalType": "bytes32",
          "name": "appId",
          "type": "bytes32"
        },
        {
          "internalType": "uint256",
          "name": "amount",
          "type": "uint256"
        },
        {
          "internalType": "address",
          "name": "receiver",
          "type": "address"
        },
        {
          "internalType": "string[]",
          "name": "proofTypes",
          "type": "string[]"
        },
        {
          "internalType": "string[]",
          "name": "proofValues",
          "type": "string[]"
        },
        {
          "internalType": "string[]",
          "name": "impactCodes",
          "type": "string[]"
        },
        {
          "internalType": "uint256[]",
          "name": "impactValues",
          "type": "uint256[]"
        },
        {
          "internalType": "string",
          "name": "description",
          "type": "string"
        }
      ],
      "name": "distributeRewardWithProof",
      "outputs": [],
      "stateMutability": "nonpayable",
      "type": "function"
    }
  ],
  "transactionHash": "0x41f40fc89fc0ba0c47535d805c4cf99c398f880a643de7449b778cbcc882af6b",
  "args": [
    "0x8A233149455A458b735Fa82367482601d81c6D6E"
  ],
  "numDeployments": 1,
  "solcInputHash": "544c2e7f5e3fde76be0c9ebfdbae2382",
  "bytecode": "0x60806040523480156200001157600080fd5b5060405162001b4a38038062001b4a8339818101604052810190620000379190620000fc565b806000806101000a81548173ffffffffffffffffffffffffffffffffffffffff021916908373ffffffffffffffffffffffffffffffffffffffff160217905550506200012e565b600080fd5b600073ffffffffffffffffffffffffffffffffffffffff82169050919050565b6000620000b08262000083565b9050919050565b6000620000c482620000a3565b9050919050565b620000d681620000b7565b8114620000e257600080fd5b50565b600081519050620000f681620000cb565b92915050565b6000602082840312156200011557620001146200007e565b5b60006200012584828501620000e5565b91505092915050565b611a0c806200013e6000396000f3fe608060405234801561001057600080fd5b506004361061004c5760003560e01c80634879ed0814610051578063582a486a146100815780637b9245321461009f578063f7335f11146100bb575b600080fd5b61006b60048036038101906100669190610d79565b6100d7565b6040516100789190610eff565b60405180910390f35b61008961022a565b6040516100969190610fa0565b60405180910390f35b6100b960048036038101906100b4919061102f565b61024e565b005b6100d560048036038101906100d09190611171565b610273565b005b606060008087511180156100ec575060008651115b90506000808651118015610101575060008551115b9050600080855111905082158015610117575081155b1561013657604051806020016040528060008152509350505050610221565b60006040516020016101479061124b565b60405160208183030381529060405290508115610183578086604051602001610171929190611370565b60405160208183030381529060405290505b83156101bd5760006101958b8b6103d6565b905081816040516020016101aa9291906113f6565b6040516020818303038152906040529150505b82156101f75760006101cf898961051c565b905081816040516020016101e4929190611471565b6040516020818303038152906040529150505b8060405160200161020891906114ec565b6040516020818303038152906040529050809450505050505b95945050505050565b60008054906101000a900473ffffffffffffffffffffffffffffffffffffffff1681565b61025988888861066a565b610269888888888888888861079b565b5050505050505050565b61027e84848461066a565b6103d0848484600067ffffffffffffffff81111561029f5761029e610a6a565b5b6040519080825280602002602001820160405280156102d257816020015b60608152602001906001900390816102bd5790505b50600067ffffffffffffffff8111156102ee576102ed610a6a565b5b60405190808252806020026020018201604052801561032157816020015b606081526020019060019003908161030c5790505b50600067ffffffffffffffff81111561033d5761033c610a6a565b5b60405190808252806020026020018201604052801561037057816020015b606081526020019060019003908161035b5790505b50600067ffffffffffffffff81111561038c5761038b610a6a565b5b6040519080825280602002602001820160405280156103ba5781602001602082028036833780820191505090505b506040518060200160405280600081525061079b565b50505050565b6060815183511461041c576040517f08c379a000000000000000000000000000000000000000000000000000000000815260040161041390611580565b60405180910390fd5b600060405160200161042d906115ec565b604051602081830303815290604052905060005b84518110156104ef578185828151811061045e5761045d611601565b5b602002602001015185838151811061047957610478611601565b5b60200260200101516040516020016104939392919061167c565b6040516020818303038152906040529150600185516104b29190611708565b8110156104dc57816040516020016104ca9190611788565b60405160208183030381529060405291505b80806104e7906117aa565b915050610441565b508060405160200161050191906114ec565b60405160208183030381529060405290508091505092915050565b60608151835114610562576040517f08c379a000000000000000000000000000000000000000000000000000000000815260040161055990611864565b60405180910390fd5b6000604051602001610573906115ec565b604051602081830303815290604052905060005b835181101561063d57818582815181106105a4576105a3611601565b5b60200260200101516105cf8684815181106105c2576105c1611601565b5b602002602001015161081f565b6040516020016105e193929190611884565b6040516020818303038152906040529150600184516106009190611708565b81101561062a57816040516020016106189190611788565b60405160208183030381529060405291505b8080610635906117aa565b915050610587565b508060405160200161064f91906114ec565b60405160208183030381529060405290508091505092915050565b60008054906101000a900473ffffffffffffffffffffffffffffffffffffffff1673ffffffffffffffffffffffffffffffffffffffff166340c10f1930846040518363ffffffff1660e01b81526004016106c59291906118e9565b600060405180830381600087803b1580156106df57600080fd5b505af11580156106f3573d6000803e3d6000fd5b5050505060008054906101000a900473ffffffffffffffffffffffffffffffffffffffff1673ffffffffffffffffffffffffffffffffffffffff1663a9059cbb82846040518363ffffffff1660e01b81526004016107529291906118e9565b6020604051808303816000875af1158015610771573d6000803e3d6000fd5b505050506040513d601f19601f82011682018060405250810190610795919061194a565b50505050565b60006107aa86868686866100d7565b90503373ffffffffffffffffffffffffffffffffffffffff168773ffffffffffffffffffffffffffffffffffffffff168a7f4811710b0c25cc7e05baf214b3a939cf893f1cbff4d0b219e680f069a4f204a28b8560405161080c929190611977565b60405180910390a4505050505050505050565b60606000600161082e846108ed565b01905060008167ffffffffffffffff81111561084d5761084c610a6a565b5b6040519080825280601f01601f19166020018201604052801561087f5781602001600182028036833780820191505090505b509050600082602001820190505b6001156108e2578080600190039150507f3031323334353637383961626364656600000000000000000000000000000000600a86061a8153600a85816108d6576108d56119a7565b5b0494506000850361088d575b819350505050919050565b600080600090507a184f03e93ff9f4daa797ed6e38ed64bf6a1f010000000000000000831061094b577a184f03e93ff9f4daa797ed6e38ed64bf6a1f0100000000000000008381610941576109406119a7565b5b0492506040810190505b6d04ee2d6d415b85acef81000000008310610988576d04ee2d6d415b85acef8100000000838161097e5761097d6119a7565b5b0492506020810190505b662386f26fc1000083106109b757662386f26fc1000083816109ad576109ac6119a7565b5b0492506010810190505b6305f5e10083106109e0576305f5e10083816109d6576109d56119a7565b5b0492506008810190505b6127108310610a055761271083816109fb576109fa6119a7565b5b0492506004810190505b60648310610a285760648381610a1e57610a1d6119a7565b5b0492506002810190505b600a8310610a37576001810190505b80915050919050565b6000604051905090565b600080fd5b600080fd5b600080fd5b6000601f19601f8301169050919050565b7f4e487b7100000000000000000000000000000000000000000000000000000000600052604160045260246000fd5b610aa282610a59565b810181811067ffffffffffffffff82111715610ac157610ac0610a6a565b5b80604052505050565b6000610ad4610a40565b9050610ae08282610a99565b919050565b600067ffffffffffffffff821115610b0057610aff610a6a565b5b602082029050602081019050919050565b600080fd5b600080fd5b600067ffffffffffffffff821115610b3657610b35610a6a565b5b610b3f82610a59565b9050602081019050919050565b82818337600083830152505050565b6000610b6e610b6984610b1b565b610aca565b905082815260208101848484011115610b8a57610b89610b16565b5b610b95848285610b4c565b509392505050565b600082601f830112610bb257610bb1610a54565b5b8135610bc2848260208601610b5b565b91505092915050565b6000610bde610bd984610ae5565b610aca565b90508083825260208201905060208402830185811115610c0157610c00610b11565b5b835b81811015610c4857803567ffffffffffffffff811115610c2657610c25610a54565b5b808601610c338982610b9d565b85526020850194505050602081019050610c03565b5050509392505050565b600082601f830112610c6757610c66610a54565b5b8135610c77848260208601610bcb565b91505092915050565b600067ffffffffffffffff821115610c9b57610c9a610a6a565b5b602082029050602081019050919050565b6000819050919050565b610cbf81610cac565b8114610cca57600080fd5b50565b600081359050610cdc81610cb6565b92915050565b6000610cf5610cf084610c80565b610aca565b90508083825260208201905060208402830185811115610d1857610d17610b11565b5b835b81811015610d415780610d2d8882610ccd565b845260208401935050602081019050610d1a565b5050509392505050565b600082601f830112610d6057610d5f610a54565b5b8135610d70848260208601610ce2565b91505092915050565b600080600080600060a08688031215610d9557610d94610a4a565b5b600086013567ffffffffffffffff811115610db357610db2610a4f565b5b610dbf88828901610c52565b955050602086013567ffffffffffffffff811115610de057610ddf610a4f565b5b610dec88828901610c52565b945050604086013567ffffffffffffffff811115610e0d57610e0c610a4f565b5b610e1988828901610c52565b935050606086013567ffffffffffffffff811115610e3a57610e39610a4f565b5b610e4688828901610d4b565b925050608086013567ffffffffffffffff811115610e6757610e66610a4f565b5b610e7388828901610b9d565b9150509295509295909350565b600081519050919050565b600082825260208201905092915050565b60005b83811015610eba578082015181840152602081019050610e9f565b60008484015250505050565b6000610ed182610e80565b610edb8185610e8b565b9350610eeb818560208601610e9c565b610ef481610a59565b840191505092915050565b60006020820190508181036000830152610f198184610ec6565b905092915050565b600073ffffffffffffffffffffffffffffffffffffffff82169050919050565b6000819050919050565b6000610f66610f61610f5c84610f21565b610f41565b610f21565b9050919050565b6000610f7882610f4b565b9050919050565b6000610f8a82610f6d565b9050919050565b610f9a81610f7f565b82525050565b6000602082019050610fb56000830184610f91565b92915050565b6000819050919050565b610fce81610fbb565b8114610fd957600080fd5b50565b600081359050610feb81610fc5565b92915050565b6000610ffc82610f21565b9050919050565b61100c81610ff1565b811461101757600080fd5b50565b60008135905061102981611003565b92915050565b600080600080600080600080610100898b0312156110505761104f610a4a565b5b600061105e8b828c01610fdc565b985050602061106f8b828c01610ccd565b97505060406110808b828c0161101a565b965050606089013567ffffffffffffffff8111156110a1576110a0610a4f565b5b6110ad8b828c01610c52565b955050608089013567ffffffffffffffff8111156110ce576110cd610a4f565b5b6110da8b828c01610c52565b94505060a089013567ffffffffffffffff8111156110fb576110fa610a4f565b5b6111078b828c01610c52565b93505060c089013567ffffffffffffffff81111561112857611127610a4f565b5b6111348b828c01610d4b565b92505060e089013567ffffffffffffffff81111561115557611154610a4f565b5b6111618b828c01610b9d565b9150509295985092959890939650565b6000806000806080858703121561118b5761118a610a4a565b5b600061119987828801610fdc565b94505060206111aa87828801610ccd565b93505060406111bb8782880161101a565b925050606085013567ffffffffffffffff8111156111dc576111db610a4f565b5b6111e887828801610b9d565b91505092959194509250565b600081905092915050565b7f7b2276657273696f6e223a203200000000000000000000000000000000000000600082015250565b6000611235600d836111f4565b9150611240826111ff565b600d82019050919050565b600061125682611228565b9150819050919050565b600081519050919050565b600081905092915050565b600061128182611260565b61128b818561126b565b935061129b818560208601610e9c565b80840191505092915050565b7f2c226465736372697074696f6e223a2022000000000000000000000000000000600082015250565b60006112dd6011836111f4565b91506112e8826112a7565b601182019050919050565b60006112fe82610e80565b61130881856111f4565b9350611318818560208601610e9c565b80840191505092915050565b7f2200000000000000000000000000000000000000000000000000000000000000600082015250565b600061135a6001836111f4565b915061136582611324565b600182019050919050565b600061137c8285611276565b9150611387826112d0565b915061139382846112f3565b915061139e8261134d565b91508190509392505050565b7f2c2270726f6f66223a2000000000000000000000000000000000000000000000600082015250565b60006113e0600a836111f4565b91506113eb826113aa565b600a82019050919050565b60006114028285611276565b915061140d826113d3565b91506114198284611276565b91508190509392505050565b7f2c22696d70616374223a20000000000000000000000000000000000000000000600082015250565b600061145b600b836111f4565b915061146682611425565b600b82019050919050565b600061147d8285611276565b91506114888261144e565b91506114948284611276565b91508190509392505050565b7f7d00000000000000000000000000000000000000000000000000000000000000600082015250565b60006114d66001836111f4565b91506114e1826114a0565b600182019050919050565b60006114f88284611276565b9150611503826114c9565b915081905092915050565b7f58324561726e52657761726473506f6f6c3a204d69736d61746368656420696e60008201527f707574206c656e6774687320666f722050726f6f660000000000000000000000602082015250565b600061156a603583610e8b565b91506115758261150e565b604082019050919050565b600060208201905081810360008301526115998161155d565b9050919050565b7f7b00000000000000000000000000000000000000000000000000000000000000600082015250565b60006115d66001836111f4565b91506115e1826115a0565b600182019050919050565b60006115f7826115c9565b9150819050919050565b7f4e487b7100000000000000000000000000000000000000000000000000000000600052603260045260246000fd5b7f223a000000000000000000000000000000000000000000000000000000000000600082015250565b60006116666002836111f4565b915061167182611630565b600282019050919050565b60006116888286611276565b91506116938261134d565b915061169f82856112f3565b91506116aa82611659565b91506116b58261134d565b91506116c182846112f3565b91506116cc8261134d565b9150819050949350505050565b7f4e487b7100000000000000000000000000000000000000000000000000000000600052601160045260246000fd5b600061171382610cac565b915061171e83610cac565b9250828203905081811115611736576117356116d9565b5b92915050565b7f2c00000000000000000000000000000000000000000000000000000000000000600082015250565b60006117726001836111f4565b915061177d8261173c565b600182019050919050565b60006117948284611276565b915061179f82611765565b915081905092915050565b60006117b582610cac565b91507fffffffffffffffffffffffffffffffffffffffffffffffffffffffffffffffff82036117e7576117e66116d9565b5b600182019050919050565b7f58324561726e52657761726473506f6f6c3a204d69736d61746368656420696e60008201527f707574206c656e6774687320666f7220496d7061637400000000000000000000602082015250565b600061184e603683610e8b565b9150611859826117f2565b604082019050919050565b6000602082019050818103600083015261187d81611841565b9050919050565b60006118908286611276565b915061189b8261134d565b91506118a782856112f3565b91506118b282611659565b91506118be82846112f3565b9150819050949350505050565b6118d481610ff1565b82525050565b6118e381610cac565b82525050565b60006040820190506118fe60008301856118cb565b61190b60208301846118da565b9392505050565b60008115159050919050565b61192781611912565b811461193257600080fd5b50565b6000815190506119448161191e565b92915050565b6000602082840312156119605761195f610a4a565b5b600061196e84828501611935565b91505092915050565b600060408201905061198c60008301856118da565b818103602083015261199e8184610ec6565b90509392505050565b7f4e487b7100000000000000000000000000000000000000000000000000000000600052601260045260246000fdfea2646970667358221220d090d1d65c3e4196c6d6673ac67d50df320ee920bc8a7ab45ab6f0ac5bbbf1e064736f6c63430008140033",
  "devdoc": {
    "details": "This contract is used by x2Earn apps to reward users that performed sustainable actions. The XAllocationPool contract or other contracts/users can deposit funds into this contract by specifying the app that can access the funds. Admins of x2EarnApps can withdraw funds from the rewards pool, whihch are sent to the team wallet. Reward distributors of a x2Earn app can distribute rewards to users that performed sustainable actions or withdraw funds to the team wallet.",
    "kind": "dev",
    "methods": {
      "buildProof(string[],string[],string[],uint256[],string)": {
        "details": "see {IX2EarnRewardsPool-buildProof}"
      },
      "distributeReward(bytes32,uint256,address,string)": {
        "details": "See {IX2EarnRewardsPool-distributeReward}"
      },
      "distributeRewardWithProof(bytes32,uint256,address,string[],string[],string[],uint256[],string)": {
        "details": "See {IX2EarnRewardsPool-distributeRewardWithProof}"
      }
    },
    "title": "X2EarnRewardsPool",
    "version": 1
  },
  "userdoc": {
    "kind": "user",
    "methods": {},
    "notice": "Mock contract forked from vebetterdao-contracts.",
    "version": 1
  },
  "storageLayout": {
    "storage": [
      {
        "astId": 2620,
        "contract": "contracts/mocks/X2EarnRewardsPool.sol:X2EarnRewardsPoolMock",
        "label": "b3tr",
        "offset": 0,
        "slot": "0",
        "type": "t_contract(B3TRMock)2606"
      }
    ],
    "types": {
      "t_contract(B3TRMock)2606": {
        "encoding": "inplace",
        "label": "contract B3TRMock",
        "numberOfBytes": "20"
      }
    }
  }
}