{
  "address": "0x32887B7127aF73ad5CAB3D6dF6e505f2f61858a3",
  "abi": [
    {
      "inputs": [],
      "stateMutability": "nonpayable",
      "type": "constructor"
    },
    {
      "anonymous": false,
      "inputs": [
        {
          "indexed": false,
          "internalType": "address",
          "name": "previousAdmin",
          "type": "address"
        },
        {
          "indexed": false,
          "internalType": "address",
          "name": "newAdmin",
          "type": "address"
        }
      ],
      "name": "AdminChanged",
      "type": "event"
    },
    {
      "anonymous": false,
      "inputs": [
        {
          "indexed": true,
          "internalType": "address",
          "name": "beacon",
          "type": "address"
        }
      ],
      "name": "BeaconUpgraded",
      "type": "event"
    },
    {
      "anonymous": false,
      "inputs": [
        {
          "indexed": false,
          "internalType": "uint8",
          "name": "version",
          "type": "uint8"
        }
      ],
      "name": "Initialized",
      "type": "event"
    },
    {
      "anonymous": false,
      "inputs": [
        {
          "indexed": true,
          "internalType": "bytes32",
          "name": "role",
          "type": "bytes32"
        },
        {
          "indexed": true,
          "internalType": "bytes32",
          "name": "previousAdminRole",
          "type": "bytes32"
        },
        {
          "indexed": true,
          "internalType": "bytes32",
          "name": "newAdminRole",
          "type": "bytes32"
        }
      ],
      "name": "RoleAdminChanged",
      "type": "event"
    },
    {
      "anonymous": false,
      "inputs": [
        {
          "indexed": true,
          "internalType": "bytes32",
          "name": "role",
          "type": "bytes32"
        },
        {
          "indexed": true,
          "internalType": "address",
          "name": "account",
          "type": "address"
        },
        {
          "indexed": true,
          "internalType": "address",
          "name": "sender",
          "type": "address"
        }
      ],
      "name": "RoleGranted",
      "type": "event"
    },
    {
      "anonymous": false,
      "inputs": [
        {
          "indexed": true,
          "internalType": "bytes32",
          "name": "role",
          "type": "bytes32"
        },
        {
          "indexed": true,
          "internalType": "address",
          "name": "account",
          "type": "address"
        },
        {
          "indexed": true,
          "internalType": "address",
          "name": "sender",
          "type": "address"
        }
      ],
      "name": "RoleRevoked",
      "type": "event"
    },
    {
      "anonymous": false,
      "inputs": [
        {
          "indexed": true,
          "internalType": "address",
          "name": "implementation",
          "type": "address"
        }
      ],
      "name": "Upgraded",
      "type": "event"
    },
    {
      "inputs": [],
      "name": "DEFAULT_ADMIN_ROLE",
      "outputs": [
        {
          "internalType": "bytes32",
          "name": "",
          "type": "bytes32"
        }
      ],
      "stateMutability": "view",
      "type": "function"
    },
    {
      "inputs": [],
      "name": "REWARDER_ROLE",
      "outputs": [
        {
          "internalType": "bytes32",
          "name": "",
          "type": "bytes32"
        }
      ],
      "stateMutability": "view",
      "type": "function"
    },
    {
      "inputs": [],
      "name": "UPGRADER_ROLE",
      "outputs": [
        {
          "internalType": "bytes32",
          "name": "",
          "type": "bytes32"
        }
      ],
      "stateMutability": "view",
      "type": "function"
    },
    {
      "inputs": [
        {
          "internalType": "bytes32",
          "name": "role",
          "type": "bytes32"
        }
      ],
      "name": "getRoleAdmin",
      "outputs": [
        {
          "internalType": "bytes32",
          "name": "",
          "type": "bytes32"
        }
      ],
      "stateMutability": "view",
      "type": "function"
    },
    {
      "inputs": [
        {
          "internalType": "bytes32",
          "name": "role",
          "type": "bytes32"
        },
        {
          "internalType": "address",
          "name": "account",
          "type": "address"
        }
      ],
      "name": "grantRole",
      "outputs": [],
      "stateMutability": "nonpayable",
      "type": "function"
    },
    {
      "inputs": [
        {
          "internalType": "bytes32",
          "name": "role",
          "type": "bytes32"
        },
        {
          "internalType": "address",
          "name": "account",
          "type": "address"
        }
      ],
      "name": "hasRole",
      "outputs": [
        {
          "internalType": "bool",
          "name": "",
          "type": "bool"
        }
      ],
      "stateMutability": "view",
      "type": "function"
    },
    {
      "inputs": [
        {
          "internalType": "address",
          "name": "defaultAdmin",
          "type": "address"
        },
        {
          "internalType": "address",
          "name": "upgrader",
          "type": "address"
        },
        {
          "internalType": "contract IX2EarnRewardsPool",
          "name": "_rewardsPool",
          "type": "address"
        }
      ],
      "name": "initialize",
      "outputs": [],
      "stateMutability": "nonpayable",
      "type": "function"
    },
    {
      "inputs": [],
      "name": "proxiableUUID",
      "outputs": [
        {
          "internalType": "bytes32",
          "name": "",
          "type": "bytes32"
        }
      ],
      "stateMutability": "view",
      "type": "function"
    },
    {
      "inputs": [
        {
          "internalType": "bytes32",
          "name": "role",
          "type": "bytes32"
        },
        {
          "internalType": "address",
          "name": "account",
          "type": "address"
        }
      ],
      "name": "renounceRole",
      "outputs": [],
      "stateMutability": "nonpayable",
      "type": "function"
    },
    {
      "inputs": [
        {
          "internalType": "bytes32",
          "name": "role",
          "type": "bytes32"
        },
        {
          "internalType": "address",
          "name": "account",
          "type": "address"
        }
      ],
      "name": "revokeRole",
      "outputs": [],
      "stateMutability": "nonpayable",
      "type": "function"
    },
    {
      "inputs": [],
      "name": "reward",
      "outputs": [],
      "stateMutability": "nonpayable",
      "type": "function"
    },
    {
      "inputs": [
        {
          "internalType": "address",
          "name": "receiver",
          "type": "address"
        }
      ],
      "name": "rewardTo",
      "outputs": [],
      "stateMutability": "nonpayable",
      "type": "function"
    },
    {
      "inputs": [],
      "name": "rewardsPool",
      "outputs": [
        {
          "internalType": "contract IX2EarnRewardsPool",
          "name": "",
          "type": "address"
        }
      ],
      "stateMutability": "view",
      "type": "function"
    },
    {
      "inputs": [
        {
          "internalType": "bytes4",
          "name": "interfaceId",
          "type": "bytes4"
        }
      ],
      "name": "supportsInterface",
      "outputs": [
        {
          "internalType": "bool",
          "name": "",
          "type": "bool"
        }
      ],
      "stateMutability": "view",
      "type": "function"
    },
    {
      "inputs": [
        {
          "internalType": "address",
          "name": "newImplementation",
          "type": "address"
        }
      ],
      "name": "upgradeTo",
      "outputs": [],
      "stateMutability": "nonpayable",
      "type": "function"
    },
    {
      "inputs": [
        {
          "internalType": "address",
          "name": "newImplementation",
          "type": "address"
        },
        {
          "internalType": "bytes",
          "name": "data",
          "type": "bytes"
        }
      ],
      "name": "upgradeToAndCall",
      "outputs": [],
      "stateMutability": "payable",
      "type": "function"
    }
  ],
  "transactionHash": "0x23fa504cd8eeb6abc88d2a20f3e5e03ed9c6a4ba8ebc3df03a9df43e69967fae",
  "args": [],
  "numDeployments": 1,
  "solcInputHash": "6073c6679a680c11f615967ecd2ae749",
  "bytecode": "0x60a06040523073ffffffffffffffffffffffffffffffffffffffff1660809073ffffffffffffffffffffffffffffffffffffffff168152503480156200004457600080fd5b50620000556200005b60201b60201c565b62000205565b600060019054906101000a900460ff1615620000ae576040517f08c379a0000000000000000000000000000000000000000000000000000000008152600401620000a590620001a8565b60405180910390fd5b60ff801660008054906101000a900460ff1660ff16146200011f5760ff6000806101000a81548160ff021916908360ff1602179055507f7f26b83ff96e1f2b6a682f133852f6798a09c465da95921460cefb384740249860ff604051620001169190620001e8565b60405180910390a15b565b600082825260208201905092915050565b7f496e697469616c697a61626c653a20636f6e747261637420697320696e69746960008201527f616c697a696e6700000000000000000000000000000000000000000000000000602082015250565b60006200019060278362000121565b91506200019d8262000132565b604082019050919050565b60006020820190508181036000830152620001c38162000181565b9050919050565b600060ff82169050919050565b620001e281620001ca565b82525050565b6000602082019050620001ff6000830184620001d7565b92915050565b6080516127666200023d600039600081816105b3015281816106410152818161073b015281816107c9015261087901526127666000f3fe6080604052600436106100f35760003560e01c806352d1902d1161008a578063a217fddf11610059578063a217fddf14610307578063c0c53b8b14610332578063d547741f1461035b578063f72c0d8b14610384576100f3565b806352d1902d1461024b5780637582a2f0146102765780638580cf761461029f57806391d14854146102ca576100f3565b80632f2ff15d116100c65780632f2ff15d146101b457806336568abe146101dd5780633659cfe6146102065780634f1ef2861461022f576100f3565b806301ffc9a7146100f85780630359fea914610135578063228cb73314610160578063248a9ca314610177575b600080fd5b34801561010457600080fd5b5061011f600480360381019061011a91906117af565b6103af565b60405161012c91906117f7565b60405180910390f35b34801561014157600080fd5b5061014a610429565b6040516101579190611891565b60405180910390f35b34801561016c57600080fd5b5061017561044f565b005b34801561018357600080fd5b5061019e600480360381019061019991906118e2565b6104ed565b6040516101ab919061191e565b60405180910390f35b3480156101c057600080fd5b506101db60048036038101906101d69190611977565b61050d565b005b3480156101e957600080fd5b5061020460048036038101906101ff9190611977565b61052e565b005b34801561021257600080fd5b5061022d600480360381019061022891906119b7565b6105b1565b005b61024960048036038101906102449190611b2a565b610739565b005b34801561025757600080fd5b50610260610875565b60405161026d919061191e565b60405180910390f35b34801561028257600080fd5b5061029d600480360381019061029891906119b7565b61092e565b005b3480156102ab57600080fd5b506102b46109f8565b6040516102c1919061191e565b60405180910390f35b3480156102d657600080fd5b506102f160048036038101906102ec9190611977565b610a1c565b6040516102fe91906117f7565b60405180910390f35b34801561031357600080fd5b5061031c610a87565b604051610329919061191e565b60405180910390f35b34801561033e57600080fd5b5061035960048036038101906103549190611bc4565b610a8e565b005b34801561036757600080fd5b50610382600480360381019061037d9190611977565b610c4f565b005b34801561039057600080fd5b50610399610c70565b6040516103a6919061191e565b60405180910390f35b60007f7965db0b000000000000000000000000000000000000000000000000000000007bffffffffffffffffffffffffffffffffffffffffffffffffffffffff1916827bffffffffffffffffffffffffffffffffffffffffffffffffffffffff19161480610422575061042182610c94565b5b9050919050565b60fb60009054906101000a900473ffffffffffffffffffffffffffffffffffffffff1681565b60fb60009054906101000a900473ffffffffffffffffffffffffffffffffffffffff1673ffffffffffffffffffffffffffffffffffffffff1663f7335f116000801b670de0b6b3a7640000336040518463ffffffff1660e01b81526004016104b993929190611ca2565b600060405180830381600087803b1580156104d357600080fd5b505af11580156104e7573d6000803e3d6000fd5b50505050565b600060656000838152602001908152602001600020600101549050919050565b610516826104ed565b61051f81610cfe565b6105298383610d12565b505050565b610536610df3565b73ffffffffffffffffffffffffffffffffffffffff168173ffffffffffffffffffffffffffffffffffffffff16146105a3576040517f08c379a000000000000000000000000000000000000000000000000000000000815260040161059a90611d5e565b60405180910390fd5b6105ad8282610dfb565b5050565b7f000000000000000000000000000000000000000000000000000000000000000073ffffffffffffffffffffffffffffffffffffffff163073ffffffffffffffffffffffffffffffffffffffff160361063f576040517f08c379a000000000000000000000000000000000000000000000000000000000815260040161063690611df0565b60405180910390fd5b7f000000000000000000000000000000000000000000000000000000000000000073ffffffffffffffffffffffffffffffffffffffff1661067e610edd565b73ffffffffffffffffffffffffffffffffffffffff16146106d4576040517f08c379a00000000000000000000000000000000000000000000000000000000081526004016106cb90611e82565b60405180910390fd5b6106dd81610f34565b61073681600067ffffffffffffffff8111156106fc576106fb6119ff565b5b6040519080825280601f01601f19166020018201604052801561072e5781602001600182028036833780820191505090505b506000610f62565b50565b7f000000000000000000000000000000000000000000000000000000000000000073ffffffffffffffffffffffffffffffffffffffff163073ffffffffffffffffffffffffffffffffffffffff16036107c7576040517f08c379a00000000000000000000000000000000000000000000000000000000081526004016107be90611df0565b60405180910390fd5b7f000000000000000000000000000000000000000000000000000000000000000073ffffffffffffffffffffffffffffffffffffffff16610806610edd565b73ffffffffffffffffffffffffffffffffffffffff161461085c576040517f08c379a000000000000000000000000000000000000000000000000000000000815260040161085390611e82565b60405180910390fd5b61086582610f34565b61087182826001610f62565b5050565b60007f000000000000000000000000000000000000000000000000000000000000000073ffffffffffffffffffffffffffffffffffffffff163073ffffffffffffffffffffffffffffffffffffffff1614610905576040517f08c379a00000000000000000000000000000000000000000000000000000000081526004016108fc90611f14565b60405180910390fd5b7f360894a13ba1a3210667c828492db98dca3e2076cc3735a920a3ca505d382bbc60001b905090565b7fbeec13769b5f410b0584f69811bfd923818456d5edcf426b0e31cf90eed7a3f661095881610cfe565b60fb60009054906101000a900473ffffffffffffffffffffffffffffffffffffffff1673ffffffffffffffffffffffffffffffffffffffff1663f7335f116000801b671bc16d674ec80000856040518463ffffffff1660e01b81526004016109c293929190611f6f565b600060405180830381600087803b1580156109dc57600080fd5b505af11580156109f0573d6000803e3d6000fd5b505050505050565b7fbeec13769b5f410b0584f69811bfd923818456d5edcf426b0e31cf90eed7a3f681565b60006065600084815260200190815260200160002060000160008373ffffffffffffffffffffffffffffffffffffffff1673ffffffffffffffffffffffffffffffffffffffff16815260200190815260200160002060009054906101000a900460ff16905092915050565b6000801b81565b60008060019054906101000a900460ff16159050808015610abf5750600160008054906101000a900460ff1660ff16105b80610aec5750610ace306110d0565b158015610aeb5750600160008054906101000a900460ff1660ff16145b5b610b2b576040517f08c379a0000000000000000000000000000000000000000000000000000000008152600401610b229061202b565b60405180910390fd5b60016000806101000a81548160ff021916908360ff1602179055508015610b68576001600060016101000a81548160ff0219169083151502179055505b610b706110f3565b610b78611144565b610b856000801b85610d12565b610baf7f189ab7a9244df0848122154315af71fe140f3db0fe014031783b0946b8c9d2e384610d12565b8160fb60006101000a81548173ffffffffffffffffffffffffffffffffffffffff021916908373ffffffffffffffffffffffffffffffffffffffff1602179055508015610c495760008060016101000a81548160ff0219169083151502179055507f7f26b83ff96e1f2b6a682f133852f6798a09c465da95921460cefb38474024986001604051610c409190612093565b60405180910390a15b50505050565b610c58826104ed565b610c6181610cfe565b610c6b8383610dfb565b505050565b7f189ab7a9244df0848122154315af71fe140f3db0fe014031783b0946b8c9d2e381565b60007f01ffc9a7000000000000000000000000000000000000000000000000000000007bffffffffffffffffffffffffffffffffffffffffffffffffffffffff1916827bffffffffffffffffffffffffffffffffffffffffffffffffffffffff1916149050919050565b610d0f81610d0a610df3565b611195565b50565b610d1c8282610a1c565b610def5760016065600084815260200190815260200160002060000160008373ffffffffffffffffffffffffffffffffffffffff1673ffffffffffffffffffffffffffffffffffffffff16815260200190815260200160002060006101000a81548160ff021916908315150217905550610d94610df3565b73ffffffffffffffffffffffffffffffffffffffff168173ffffffffffffffffffffffffffffffffffffffff16837f2f8788117e7eff1d82e926ec794901d17c78024a50270940304540a733656f0d60405160405180910390a45b5050565b600033905090565b610e058282610a1c565b15610ed95760006065600084815260200190815260200160002060000160008373ffffffffffffffffffffffffffffffffffffffff1673ffffffffffffffffffffffffffffffffffffffff16815260200190815260200160002060006101000a81548160ff021916908315150217905550610e7e610df3565b73ffffffffffffffffffffffffffffffffffffffff168173ffffffffffffffffffffffffffffffffffffffff16837ff6391f5c32d9c69d2a47ea670b442974b53935d1edc7fd64eb21e047a839171b60405160405180910390a45b5050565b6000610f0b7f360894a13ba1a3210667c828492db98dca3e2076cc3735a920a3ca505d382bbc60001b61121a565b60000160009054906101000a900473ffffffffffffffffffffffffffffffffffffffff16905090565b7f189ab7a9244df0848122154315af71fe140f3db0fe014031783b0946b8c9d2e3610f5e81610cfe565b5050565b610f8e7f4910fdfa16fed3260ed0e7147f7cc6da11a60208b5b9406d12a635614ffd914360001b611224565b60000160009054906101000a900460ff1615610fb257610fad8361122e565b6110cb565b8273ffffffffffffffffffffffffffffffffffffffff166352d1902d6040518163ffffffff1660e01b8152600401602060405180830381865afa92505050801561101a57506040513d601f19601f8201168201806040525081019061101791906120c3565b60015b611059576040517f08c379a000000000000000000000000000000000000000000000000000000000815260040161105090612162565b60405180910390fd5b7f360894a13ba1a3210667c828492db98dca3e2076cc3735a920a3ca505d382bbc60001b81146110be576040517f08c379a00000000000000000000000000000000000000000000000000000000081526004016110b5906121f4565b60405180910390fd5b506110ca8383836112e7565b5b505050565b6000808273ffffffffffffffffffffffffffffffffffffffff163b119050919050565b600060019054906101000a900460ff16611142576040517f08c379a000000000000000000000000000000000000000000000000000000000815260040161113990612286565b60405180910390fd5b565b600060019054906101000a900460ff16611193576040517f08c379a000000000000000000000000000000000000000000000000000000000815260040161118a90612286565b60405180910390fd5b565b61119f8282610a1c565b611216576111ac81611313565b6111ba8360001c6020611340565b6040516020016111cb9291906123af565b6040516020818303038152906040526040517f08c379a000000000000000000000000000000000000000000000000000000000815260040161120d9190612422565b60405180910390fd5b5050565b6000819050919050565b6000819050919050565b611237816110d0565b611276576040517f08c379a000000000000000000000000000000000000000000000000000000000815260040161126d906124b6565b60405180910390fd5b806112a37f360894a13ba1a3210667c828492db98dca3e2076cc3735a920a3ca505d382bbc60001b61121a565b60000160006101000a81548173ffffffffffffffffffffffffffffffffffffffff021916908373ffffffffffffffffffffffffffffffffffffffff16021790555050565b6112f08361157c565b6000825111806112fd5750805b1561130e5761130c83836115cb565b505b505050565b60606113398273ffffffffffffffffffffffffffffffffffffffff16601460ff16611340565b9050919050565b6060600060028360026113539190612505565b61135d9190612547565b67ffffffffffffffff811115611376576113756119ff565b5b6040519080825280601f01601f1916602001820160405280156113a85781602001600182028036833780820191505090505b5090507f3000000000000000000000000000000000000000000000000000000000000000816000815181106113e0576113df61257b565b5b60200101907effffffffffffffffffffffffffffffffffffffffffffffffffffffffffffff1916908160001a9053507f7800000000000000000000000000000000000000000000000000000000000000816001815181106114445761144361257b565b5b60200101907effffffffffffffffffffffffffffffffffffffffffffffffffffffffffffff1916908160001a905350600060018460026114849190612505565b61148e9190612547565b90505b600181111561152e577f3031323334353637383961626364656600000000000000000000000000000000600f8616601081106114d0576114cf61257b565b5b1a60f81b8282815181106114e7576114e661257b565b5b60200101907effffffffffffffffffffffffffffffffffffffffffffffffffffffffffffff1916908160001a905350600485901c945080611527906125aa565b9050611491565b5060008414611572576040517f08c379a00000000000000000000000000000000000000000000000000000000081526004016115699061261f565b60405180910390fd5b8091505092915050565b6115858161122e565b8073ffffffffffffffffffffffffffffffffffffffff167fbc7cd75a20ee27fd9adebab32041f755214dbc6bffa90cc0225b39da2e5c2d3b60405160405180910390a250565b60606115f0838360405180606001604052806027815260200161270a602791396115f8565b905092915050565b60606000808573ffffffffffffffffffffffffffffffffffffffff16856040516116229190612686565b600060405180830381855af49150503d806000811461165d576040519150601f19603f3d011682016040523d82523d6000602084013e611662565b606091505b50915091506116738683838761167e565b925050509392505050565b606083156116e05760008351036116d857611698856110d0565b6116d7576040517f08c379a00000000000000000000000000000000000000000000000000000000081526004016116ce906126e9565b60405180910390fd5b5b8290506116eb565b6116ea83836116f3565b5b949350505050565b6000825111156117065781518083602001fd5b806040517f08c379a000000000000000000000000000000000000000000000000000000000815260040161173a9190612422565b60405180910390fd5b6000604051905090565b600080fd5b600080fd5b60007fffffffff0000000000000000000000000000000000000000000000000000000082169050919050565b61178c81611757565b811461179757600080fd5b50565b6000813590506117a981611783565b92915050565b6000602082840312156117c5576117c461174d565b5b60006117d38482850161179a565b91505092915050565b60008115159050919050565b6117f1816117dc565b82525050565b600060208201905061180c60008301846117e8565b92915050565b600073ffffffffffffffffffffffffffffffffffffffff82169050919050565b6000819050919050565b600061185761185261184d84611812565b611832565b611812565b9050919050565b60006118698261183c565b9050919050565b600061187b8261185e565b9050919050565b61188b81611870565b82525050565b60006020820190506118a66000830184611882565b92915050565b6000819050919050565b6118bf816118ac565b81146118ca57600080fd5b50565b6000813590506118dc816118b6565b92915050565b6000602082840312156118f8576118f761174d565b5b6000611906848285016118cd565b91505092915050565b611918816118ac565b82525050565b6000602082019050611933600083018461190f565b92915050565b600061194482611812565b9050919050565b61195481611939565b811461195f57600080fd5b50565b6000813590506119718161194b565b92915050565b6000806040838503121561198e5761198d61174d565b5b600061199c858286016118cd565b92505060206119ad85828601611962565b9150509250929050565b6000602082840312156119cd576119cc61174d565b5b60006119db84828501611962565b91505092915050565b600080fd5b600080fd5b6000601f19601f8301169050919050565b7f4e487b7100000000000000000000000000000000000000000000000000000000600052604160045260246000fd5b611a37826119ee565b810181811067ffffffffffffffff82111715611a5657611a556119ff565b5b80604052505050565b6000611a69611743565b9050611a758282611a2e565b919050565b600067ffffffffffffffff821115611a9557611a946119ff565b5b611a9e826119ee565b9050602081019050919050565b82818337600083830152505050565b6000611acd611ac884611a7a565b611a5f565b905082815260208101848484011115611ae957611ae86119e9565b5b611af4848285611aab565b509392505050565b600082601f830112611b1157611b106119e4565b5b8135611b21848260208601611aba565b91505092915050565b60008060408385031215611b4157611b4061174d565b5b6000611b4f85828601611962565b925050602083013567ffffffffffffffff811115611b7057611b6f611752565b5b611b7c85828601611afc565b9150509250929050565b6000611b9182611939565b9050919050565b611ba181611b86565b8114611bac57600080fd5b50565b600081359050611bbe81611b98565b92915050565b600080600060608486031215611bdd57611bdc61174d565b5b6000611beb86828701611962565b9350506020611bfc86828701611962565b9250506040611c0d86828701611baf565b9150509250925092565b6000819050919050565b6000819050919050565b6000611c46611c41611c3c84611c17565b611832565b611c21565b9050919050565b611c5681611c2b565b82525050565b611c6581611939565b82525050565b600082825260208201905092915050565b50565b6000611c8c600083611c6b565b9150611c9782611c7c565b600082019050919050565b6000608082019050611cb7600083018661190f565b611cc46020830185611c4d565b611cd16040830184611c5c565b8181036060830152611ce281611c7f565b9050949350505050565b7f416363657373436f6e74726f6c3a2063616e206f6e6c792072656e6f756e636560008201527f20726f6c657320666f722073656c660000000000000000000000000000000000602082015250565b6000611d48602f83611c6b565b9150611d5382611cec565b604082019050919050565b60006020820190508181036000830152611d7781611d3b565b9050919050565b7f46756e6374696f6e206d7573742062652063616c6c6564207468726f7567682060008201527f64656c656761746563616c6c0000000000000000000000000000000000000000602082015250565b6000611dda602c83611c6b565b9150611de582611d7e565b604082019050919050565b60006020820190508181036000830152611e0981611dcd565b9050919050565b7f46756e6374696f6e206d7573742062652063616c6c6564207468726f7567682060008201527f6163746976652070726f78790000000000000000000000000000000000000000602082015250565b6000611e6c602c83611c6b565b9150611e7782611e10565b604082019050919050565b60006020820190508181036000830152611e9b81611e5f565b9050919050565b7f555550535570677261646561626c653a206d757374206e6f742062652063616c60008201527f6c6564207468726f7567682064656c656761746563616c6c0000000000000000602082015250565b6000611efe603883611c6b565b9150611f0982611ea2565b604082019050919050565b60006020820190508181036000830152611f2d81611ef1565b9050919050565b6000819050919050565b6000611f59611f54611f4f84611f34565b611832565b611c21565b9050919050565b611f6981611f3e565b82525050565b6000608082019050611f84600083018661190f565b611f916020830185611f60565b611f9e6040830184611c5c565b8181036060830152611faf81611c7f565b9050949350505050565b7f496e697469616c697a61626c653a20636f6e747261637420697320616c72656160008201527f647920696e697469616c697a6564000000000000000000000000000000000000602082015250565b6000612015602e83611c6b565b915061202082611fb9565b604082019050919050565b6000602082019050818103600083015261204481612008565b9050919050565b6000819050919050565b600060ff82169050919050565b600061207d6120786120738461204b565b611832565b612055565b9050919050565b61208d81612062565b82525050565b60006020820190506120a86000830184612084565b92915050565b6000815190506120bd816118b6565b92915050565b6000602082840312156120d9576120d861174d565b5b60006120e7848285016120ae565b91505092915050565b7f45524331393637557067726164653a206e657720696d706c656d656e7461746960008201527f6f6e206973206e6f742055555053000000000000000000000000000000000000602082015250565b600061214c602e83611c6b565b9150612157826120f0565b604082019050919050565b6000602082019050818103600083015261217b8161213f565b9050919050565b7f45524331393637557067726164653a20756e737570706f727465642070726f7860008201527f6961626c65555549440000000000000000000000000000000000000000000000602082015250565b60006121de602983611c6b565b91506121e982612182565b604082019050919050565b6000602082019050818103600083015261220d816121d1565b9050919050565b7f496e697469616c697a61626c653a20636f6e7472616374206973206e6f74206960008201527f6e697469616c697a696e67000000000000000000000000000000000000000000602082015250565b6000612270602b83611c6b565b915061227b82612214565b604082019050919050565b6000602082019050818103600083015261229f81612263565b9050919050565b600081905092915050565b7f416363657373436f6e74726f6c3a206163636f756e7420000000000000000000600082015250565b60006122e76017836122a6565b91506122f2826122b1565b601782019050919050565b600081519050919050565b60005b8381101561232657808201518184015260208101905061230b565b60008484015250505050565b600061233d826122fd565b61234781856122a6565b9350612357818560208601612308565b80840191505092915050565b7f206973206d697373696e6720726f6c6520000000000000000000000000000000600082015250565b60006123996011836122a6565b91506123a482612363565b601182019050919050565b60006123ba826122da565b91506123c68285612332565b91506123d18261238c565b91506123dd8284612332565b91508190509392505050565b60006123f4826122fd565b6123fe8185611c6b565b935061240e818560208601612308565b612417816119ee565b840191505092915050565b6000602082019050818103600083015261243c81846123e9565b905092915050565b7f455243313936373a206e657720696d706c656d656e746174696f6e206973206e60008201527f6f74206120636f6e747261637400000000000000000000000000000000000000602082015250565b60006124a0602d83611c6b565b91506124ab82612444565b604082019050919050565b600060208201905081810360008301526124cf81612493565b9050919050565b7f4e487b7100000000000000000000000000000000000000000000000000000000600052601160045260246000fd5b600061251082611c21565b915061251b83611c21565b925082820261252981611c21565b915082820484148315176125405761253f6124d6565b5b5092915050565b600061255282611c21565b915061255d83611c21565b9250828201905080821115612575576125746124d6565b5b92915050565b7f4e487b7100000000000000000000000000000000000000000000000000000000600052603260045260246000fd5b60006125b582611c21565b9150600082036125c8576125c76124d6565b5b600182039050919050565b7f537472696e67733a20686578206c656e67746820696e73756666696369656e74600082015250565b6000612609602083611c6b565b9150612614826125d3565b602082019050919050565b60006020820190508181036000830152612638816125fc565b9050919050565b600081519050919050565b600081905092915050565b60006126608261263f565b61266a818561264a565b935061267a818560208601612308565b80840191505092915050565b60006126928284612655565b915081905092915050565b7f416464726573733a2063616c6c20746f206e6f6e2d636f6e7472616374000000600082015250565b60006126d3601d83611c6b565b91506126de8261269d565b602082019050919050565b60006020820190508181036000830152612702816126c6565b905091905056fe416464726573733a206c6f772d6c6576656c2064656c65676174652063616c6c206661696c6564a264697066735822122060b2e0b8b5e1c71584c73961da78783123f36afef0cba324de4d9ca34a5922ff64736f6c63430008140033",
  "devdoc": {
    "events": {
      "AdminChanged(address,address)": {
        "details": "Emitted when the admin account has changed."
      },
      "BeaconUpgraded(address)": {
        "details": "Emitted when the beacon is changed."
      },
      "Initialized(uint8)": {
        "details": "Triggered when the contract has been initialized or reinitialized."
      },
      "RoleAdminChanged(bytes32,bytes32,bytes32)": {
        "details": "Emitted when `newAdminRole` is set as ``role``'s admin role, replacing `previousAdminRole` `DEFAULT_ADMIN_ROLE` is the starting admin for all roles, despite {RoleAdminChanged} not being emitted signaling this. _Available since v3.1._"
      },
      "RoleGranted(bytes32,address,address)": {
        "details": "Emitted when `account` is granted `role`. `sender` is the account that originated the contract call, an admin role bearer except when using {AccessControl-_setupRole}."
      },
      "RoleRevoked(bytes32,address,address)": {
        "details": "Emitted when `account` is revoked `role`. `sender` is the account that originated the contract call:   - if using `revokeRole`, it is the admin role bearer   - if using `renounceRole`, it is the role bearer (i.e. `account`)"
      },
      "Upgraded(address)": {
        "details": "Emitted when the implementation is upgraded."
      }
    },
    "kind": "dev",
    "methods": {
      "constructor": {
        "custom:oz-upgrades-unsafe-allow": "constructor"
      },
      "getRoleAdmin(bytes32)": {
        "details": "Returns the admin role that controls `role`. See {grantRole} and {revokeRole}. To change a role's admin, use {_setRoleAdmin}."
      },
      "grantRole(bytes32,address)": {
        "details": "Grants `role` to `account`. If `account` had not been already granted `role`, emits a {RoleGranted} event. Requirements: - the caller must have ``role``'s admin role. May emit a {RoleGranted} event."
      },
      "hasRole(bytes32,address)": {
        "details": "Returns `true` if `account` has been granted `role`."
      },
      "proxiableUUID()": {
        "details": "Implementation of the ERC1822 {proxiableUUID} function. This returns the storage slot used by the implementation. It is used to validate the implementation's compatibility when performing an upgrade. IMPORTANT: A proxy pointing at a proxiable contract should not be considered proxiable itself, because this risks bricking a proxy that upgrades to it, by delegating to itself until out of gas. Thus it is critical that this function revert if invoked through a proxy. This is guaranteed by the `notDelegated` modifier."
      },
      "renounceRole(bytes32,address)": {
        "details": "Revokes `role` from the calling account. Roles are often managed via {grantRole} and {revokeRole}: this function's purpose is to provide a mechanism for accounts to lose their privileges if they are compromised (such as when a trusted device is misplaced). If the calling account had been revoked `role`, emits a {RoleRevoked} event. Requirements: - the caller must be `account`. May emit a {RoleRevoked} event."
      },
      "revokeRole(bytes32,address)": {
        "details": "Revokes `role` from `account`. If `account` had been granted `role`, emits a {RoleRevoked} event. Requirements: - the caller must have ``role``'s admin role. May emit a {RoleRevoked} event."
      },
      "supportsInterface(bytes4)": {
        "details": "See {IERC165-supportsInterface}."
      },
      "upgradeTo(address)": {
        "custom:oz-upgrades-unsafe-allow-reachable": "delegatecall",
        "details": "Upgrade the implementation of the proxy to `newImplementation`. Calls {_authorizeUpgrade}. Emits an {Upgraded} event."
      },
      "upgradeToAndCall(address,bytes)": {
        "custom:oz-upgrades-unsafe-allow-reachable": "delegatecall",
        "details": "Upgrade the implementation of the proxy to `newImplementation`, and subsequently execute the function call encoded in `data`. Calls {_authorizeUpgrade}. Emits an {Upgraded} event."
      }
    },
    "version": 1
  },
  "userdoc": {
    "kind": "user",
    "methods": {},
    "version": 1
  },
  "storageLayout": {
    "storage": [
      {
        "astId": 782,
        "contract": "contracts/X2EarnApp.sol:X2EarnApp",
        "label": "_initialized",
        "offset": 0,
        "slot": "0",
        "type": "t_uint8"
      },
      {
        "astId": 785,
        "contract": "contracts/X2EarnApp.sol:X2EarnApp",
        "label": "_initializing",
        "offset": 1,
        "slot": "0",
        "type": "t_bool"
      },
      {
        "astId": 1461,
        "contract": "contracts/X2EarnApp.sol:X2EarnApp",
        "label": "__gap",
        "offset": 0,
        "slot": "1",
        "type": "t_array(t_uint256)50_storage"
      },
      {
        "astId": 1845,
        "contract": "contracts/X2EarnApp.sol:X2EarnApp",
        "label": "__gap",
        "offset": 0,
        "slot": "51",
        "type": "t_array(t_uint256)50_storage"
      },
      {
        "astId": 28,
        "contract": "contracts/X2EarnApp.sol:X2EarnApp",
        "label": "_roles",
        "offset": 0,
        "slot": "101",
        "type": "t_mapping(t_bytes32,t_struct(RoleData)23_storage)"
      },
      {
        "astId": 335,
        "contract": "contracts/X2EarnApp.sol:X2EarnApp",
        "label": "__gap",
        "offset": 0,
        "slot": "102",
        "type": "t_array(t_uint256)49_storage"
      },
      {
        "astId": 764,
        "contract": "contracts/X2EarnApp.sol:X2EarnApp",
        "label": "__gap",
        "offset": 0,
        "slot": "151",
        "type": "t_array(t_uint256)50_storage"
      },
      {
        "astId": 1080,
        "contract": "contracts/X2EarnApp.sol:X2EarnApp",
        "label": "__gap",
        "offset": 0,
        "slot": "201",
        "type": "t_array(t_uint256)50_storage"
      },
      {
        "astId": 2854,
        "contract": "contracts/X2EarnApp.sol:X2EarnApp",
        "label": "rewardsPool",
        "offset": 0,
        "slot": "251",
        "type": "t_contract(IX2EarnRewardsPool)3085"
      }
    ],
    "types": {
      "t_address": {
        "encoding": "inplace",
        "label": "address",
        "numberOfBytes": "20"
      },
      "t_array(t_uint256)49_storage": {
        "base": "t_uint256",
        "encoding": "inplace",
        "label": "uint256[49]",
        "numberOfBytes": "1568"
      },
      "t_array(t_uint256)50_storage": {
        "base": "t_uint256",
        "encoding": "inplace",
        "label": "uint256[50]",
        "numberOfBytes": "1600"
      },
      "t_bool": {
        "encoding": "inplace",
        "label": "bool",
        "numberOfBytes": "1"
      },
      "t_bytes32": {
        "encoding": "inplace",
        "label": "bytes32",
        "numberOfBytes": "32"
      },
      "t_contract(IX2EarnRewardsPool)3085": {
        "encoding": "inplace",
        "label": "contract IX2EarnRewardsPool",
        "numberOfBytes": "20"
      },
      "t_mapping(t_address,t_bool)": {
        "encoding": "mapping",
        "key": "t_address",
        "label": "mapping(address => bool)",
        "numberOfBytes": "32",
        "value": "t_bool"
      },
      "t_mapping(t_bytes32,t_struct(RoleData)23_storage)": {
        "encoding": "mapping",
        "key": "t_bytes32",
        "label": "mapping(bytes32 => struct AccessControlUpgradeable.RoleData)",
        "numberOfBytes": "32",
        "value": "t_struct(RoleData)23_storage"
      },
      "t_struct(RoleData)23_storage": {
        "encoding": "inplace",
        "label": "struct AccessControlUpgradeable.RoleData",
        "members": [
          {
            "astId": 20,
            "contract": "contracts/X2EarnApp.sol:X2EarnApp",
            "label": "members",
            "offset": 0,
            "slot": "0",
            "type": "t_mapping(t_address,t_bool)"
          },
          {
            "astId": 22,
            "contract": "contracts/X2EarnApp.sol:X2EarnApp",
            "label": "adminRole",
            "offset": 0,
            "slot": "1",
            "type": "t_bytes32"
          }
        ],
        "numberOfBytes": "64"
      },
      "t_uint256": {
        "encoding": "inplace",
        "label": "uint256",
        "numberOfBytes": "32"
      },
      "t_uint8": {
        "encoding": "inplace",
        "label": "uint8",
        "numberOfBytes": "1"
      }
    }
  }
}