{
  "address": "0x98dd6e83Ee66a38E787fB6787740AB92e13914dE",
  "abi": [
    {
      "inputs": [],
      "stateMutability": "nonpayable",
      "type": "constructor"
    },
    {
      "anonymous": false,
      "inputs": [
        {
          "indexed": false,
          "internalType": "address",
          "name": "previousAdmin",
          "type": "address"
        },
        {
          "indexed": false,
          "internalType": "address",
          "name": "newAdmin",
          "type": "address"
        }
      ],
      "name": "AdminChanged",
      "type": "event"
    },
    {
      "anonymous": false,
      "inputs": [
        {
          "indexed": true,
          "internalType": "address",
          "name": "beacon",
          "type": "address"
        }
      ],
      "name": "BeaconUpgraded",
      "type": "event"
    },
    {
      "anonymous": false,
      "inputs": [
        {
          "indexed": false,
          "internalType": "uint8",
          "name": "version",
          "type": "uint8"
        }
      ],
      "name": "Initialized",
      "type": "event"
    },
    {
      "anonymous": false,
      "inputs": [
        {
          "indexed": true,
          "internalType": "bytes32",
          "name": "role",
          "type": "bytes32"
        },
        {
          "indexed": true,
          "internalType": "bytes32",
          "name": "previousAdminRole",
          "type": "bytes32"
        },
        {
          "indexed": true,
          "internalType": "bytes32",
          "name": "newAdminRole",
          "type": "bytes32"
        }
      ],
      "name": "RoleAdminChanged",
      "type": "event"
    },
    {
      "anonymous": false,
      "inputs": [
        {
          "indexed": true,
          "internalType": "bytes32",
          "name": "role",
          "type": "bytes32"
        },
        {
          "indexed": true,
          "internalType": "address",
          "name": "account",
          "type": "address"
        },
        {
          "indexed": true,
          "internalType": "address",
          "name": "sender",
          "type": "address"
        }
      ],
      "name": "RoleGranted",
      "type": "event"
    },
    {
      "anonymous": false,
      "inputs": [
        {
          "indexed": true,
          "internalType": "bytes32",
          "name": "role",
          "type": "bytes32"
        },
        {
          "indexed": true,
          "internalType": "address",
          "name": "account",
          "type": "address"
        },
        {
          "indexed": true,
          "internalType": "address",
          "name": "sender",
          "type": "address"
        }
      ],
      "name": "RoleRevoked",
      "type": "event"
    },
    {
      "anonymous": false,
      "inputs": [
        {
          "indexed": true,
          "internalType": "address",
          "name": "implementation",
          "type": "address"
        }
      ],
      "name": "Upgraded",
      "type": "event"
    },
    {
      "inputs": [],
      "name": "DEFAULT_ADMIN_ROLE",
      "outputs": [
        {
          "internalType": "bytes32",
          "name": "",
          "type": "bytes32"
        }
      ],
      "stateMutability": "view",
      "type": "function"
    },
    {
      "inputs": [],
      "name": "REWARDER_ROLE",
      "outputs": [
        {
          "internalType": "bytes32",
          "name": "",
          "type": "bytes32"
        }
      ],
      "stateMutability": "view",
      "type": "function"
    },
    {
      "inputs": [],
      "name": "UPGRADER_ROLE",
      "outputs": [
        {
          "internalType": "bytes32",
          "name": "",
          "type": "bytes32"
        }
      ],
      "stateMutability": "view",
      "type": "function"
    },
    {
      "inputs": [
        {
          "internalType": "bytes32",
          "name": "role",
          "type": "bytes32"
        }
      ],
      "name": "getRoleAdmin",
      "outputs": [
        {
          "internalType": "bytes32",
          "name": "",
          "type": "bytes32"
        }
      ],
      "stateMutability": "view",
      "type": "function"
    },
    {
      "inputs": [
        {
          "internalType": "bytes32",
          "name": "role",
          "type": "bytes32"
        },
        {
          "internalType": "address",
          "name": "account",
          "type": "address"
        }
      ],
      "name": "grantRole",
      "outputs": [],
      "stateMutability": "nonpayable",
      "type": "function"
    },
    {
      "inputs": [
        {
          "internalType": "bytes32",
          "name": "role",
          "type": "bytes32"
        },
        {
          "internalType": "address",
          "name": "account",
          "type": "address"
        }
      ],
      "name": "hasRole",
      "outputs": [
        {
          "internalType": "bool",
          "name": "",
          "type": "bool"
        }
      ],
      "stateMutability": "view",
      "type": "function"
    },
    {
      "inputs": [
        {
          "internalType": "address",
          "name": "defaultAdmin",
          "type": "address"
        },
        {
          "internalType": "address",
          "name": "upgrader",
          "type": "address"
        },
        {
          "internalType": "contract IX2EarnRewardsPool",
          "name": "_rewardsPool",
          "type": "address"
        }
      ],
      "name": "initialize",
      "outputs": [],
      "stateMutability": "nonpayable",
      "type": "function"
    },
    {
      "inputs": [],
      "name": "proxiableUUID",
      "outputs": [
        {
          "internalType": "bytes32",
          "name": "",
          "type": "bytes32"
        }
      ],
      "stateMutability": "view",
      "type": "function"
    },
    {
      "inputs": [
        {
          "internalType": "bytes32",
          "name": "role",
          "type": "bytes32"
        },
        {
          "internalType": "address",
          "name": "account",
          "type": "address"
        }
      ],
      "name": "renounceRole",
      "outputs": [],
      "stateMutability": "nonpayable",
      "type": "function"
    },
    {
      "inputs": [
        {
          "internalType": "bytes32",
          "name": "role",
          "type": "bytes32"
        },
        {
          "internalType": "address",
          "name": "account",
          "type": "address"
        }
      ],
      "name": "revokeRole",
      "outputs": [],
      "stateMutability": "nonpayable",
      "type": "function"
    },
    {
      "inputs": [],
      "name": "reward",
      "outputs": [],
      "stateMutability": "nonpayable",
      "type": "function"
    },
    {
      "inputs": [
        {
          "internalType": "uint256",
          "name": "amount",
          "type": "uint256"
        },
        {
          "internalType": "address",
          "name": "receiver",
          "type": "address"
        }
      ],
      "name": "rewardAmountTo",
      "outputs": [],
      "stateMutability": "nonpayable",
      "type": "function"
    },
    {
      "inputs": [
        {
          "internalType": "address",
          "name": "receiver",
          "type": "address"
        }
      ],
      "name": "rewardTo",
      "outputs": [],
      "stateMutability": "nonpayable",
      "type": "function"
    },
    {
      "inputs": [],
      "name": "rewardsPool",
      "outputs": [
        {
          "internalType": "contract IX2EarnRewardsPool",
          "name": "",
          "type": "address"
        }
      ],
      "stateMutability": "view",
      "type": "function"
    },
    {
      "inputs": [
        {
          "internalType": "bytes4",
          "name": "interfaceId",
          "type": "bytes4"
        }
      ],
      "name": "supportsInterface",
      "outputs": [
        {
          "internalType": "bool",
          "name": "",
          "type": "bool"
        }
      ],
      "stateMutability": "view",
      "type": "function"
    },
    {
      "inputs": [
        {
          "internalType": "address",
          "name": "newImplementation",
          "type": "address"
        }
      ],
      "name": "upgradeTo",
      "outputs": [],
      "stateMutability": "nonpayable",
      "type": "function"
    },
    {
      "inputs": [
        {
          "internalType": "address",
          "name": "newImplementation",
          "type": "address"
        },
        {
          "internalType": "bytes",
          "name": "data",
          "type": "bytes"
        }
      ],
      "name": "upgradeToAndCall",
      "outputs": [],
      "stateMutability": "payable",
      "type": "function"
    }
  ],
  "transactionHash": "0x7a63a2c4875549259b44fa8d07978a363e2921ea6095e071c81c143a2c3c8604",
  "args": [],
  "numDeployments": 1,
  "solcInputHash": "cf5a73ebb73bbc5908f5d144d70b7548",
  "bytecode": "0x60a06040523073ffffffffffffffffffffffffffffffffffffffff1660809073ffffffffffffffffffffffffffffffffffffffff168152503480156200004457600080fd5b50620000556200005b60201b60201c565b62000205565b600060019054906101000a900460ff1615620000ae576040517f08c379a0000000000000000000000000000000000000000000000000000000008152600401620000a590620001a8565b60405180910390fd5b60ff801660008054906101000a900460ff1660ff16146200011f5760ff6000806101000a81548160ff021916908360ff1602179055507f7f26b83ff96e1f2b6a682f133852f6798a09c465da95921460cefb384740249860ff604051620001169190620001e8565b60405180910390a15b565b600082825260208201905092915050565b7f496e697469616c697a61626c653a20636f6e747261637420697320696e69746960008201527f616c697a696e6700000000000000000000000000000000000000000000000000602082015250565b60006200019060278362000121565b91506200019d8262000132565b604082019050919050565b60006020820190508181036000830152620001c38162000181565b9050919050565b600060ff82169050919050565b620001e281620001ca565b82525050565b6000602082019050620001ff6000830184620001d7565b92915050565b6080516129226200023d600039600081816105e7015281816106750152818161076f015281816107fd01526108ad01526129226000f3fe6080604052600436106100fe5760003560e01c806352d1902d11610095578063a217fddf11610064578063a217fddf14610312578063a6e784e51461033d578063c0c53b8b14610366578063d547741f1461038f578063f72c0d8b146103b8576100fe565b806352d1902d146102565780637582a2f0146102815780638580cf76146102aa57806391d14854146102d5576100fe565b80632f2ff15d116100d15780632f2ff15d146101bf57806336568abe146101e85780633659cfe6146102115780634f1ef2861461023a576100fe565b806301ffc9a7146101035780630359fea914610140578063228cb7331461016b578063248a9ca314610182575b600080fd5b34801561010f57600080fd5b5061012a600480360381019061012591906118a6565b6103e3565b60405161013791906118ee565b60405180910390f35b34801561014c57600080fd5b5061015561045d565b6040516101629190611988565b60405180910390f35b34801561017757600080fd5b50610180610483565b005b34801561018e57600080fd5b506101a960048036038101906101a491906119d9565b610521565b6040516101b69190611a15565b60405180910390f35b3480156101cb57600080fd5b506101e660048036038101906101e19190611a6e565b610541565b005b3480156101f457600080fd5b5061020f600480360381019061020a9190611a6e565b610562565b005b34801561021d57600080fd5b5061023860048036038101906102339190611aae565b6105e5565b005b610254600480360381019061024f9190611c21565b61076d565b005b34801561026257600080fd5b5061026b6108a9565b6040516102789190611a15565b60405180910390f35b34801561028d57600080fd5b506102a860048036038101906102a39190611aae565b610962565b005b3480156102b657600080fd5b506102bf610a2c565b6040516102cc9190611a15565b60405180910390f35b3480156102e157600080fd5b506102fc60048036038101906102f79190611a6e565b610a50565b60405161030991906118ee565b60405180910390f35b34801561031e57600080fd5b50610327610abb565b6040516103349190611a15565b60405180910390f35b34801561034957600080fd5b50610364600480360381019061035f9190611cb3565b610ac2565b005b34801561037257600080fd5b5061038d60048036038101906103889190611d31565b610b85565b005b34801561039b57600080fd5b506103b660048036038101906103b19190611a6e565b610d46565b005b3480156103c457600080fd5b506103cd610d67565b6040516103da9190611a15565b60405180910390f35b60007f7965db0b000000000000000000000000000000000000000000000000000000007bffffffffffffffffffffffffffffffffffffffffffffffffffffffff1916827bffffffffffffffffffffffffffffffffffffffffffffffffffffffff19161480610456575061045582610d8b565b5b9050919050565b60fb60009054906101000a900473ffffffffffffffffffffffffffffffffffffffff1681565b60fb60009054906101000a900473ffffffffffffffffffffffffffffffffffffffff1673ffffffffffffffffffffffffffffffffffffffff1663f7335f116000801b670de0b6b3a7640000336040518463ffffffff1660e01b81526004016104ed93929190611e05565b600060405180830381600087803b15801561050757600080fd5b505af115801561051b573d6000803e3d6000fd5b50505050565b600060656000838152602001908152602001600020600101549050919050565b61054a82610521565b61055381610df5565b61055d8383610e09565b505050565b61056a610eea565b73ffffffffffffffffffffffffffffffffffffffff168173ffffffffffffffffffffffffffffffffffffffff16146105d7576040517f08c379a00000000000000000000000000000000000000000000000000000000081526004016105ce90611ec1565b60405180910390fd5b6105e18282610ef2565b5050565b7f000000000000000000000000000000000000000000000000000000000000000073ffffffffffffffffffffffffffffffffffffffff163073ffffffffffffffffffffffffffffffffffffffff1603610673576040517f08c379a000000000000000000000000000000000000000000000000000000000815260040161066a90611f53565b60405180910390fd5b7f000000000000000000000000000000000000000000000000000000000000000073ffffffffffffffffffffffffffffffffffffffff166106b2610fd4565b73ffffffffffffffffffffffffffffffffffffffff1614610708576040517f08c379a00000000000000000000000000000000000000000000000000000000081526004016106ff90611fe5565b60405180910390fd5b6107118161102b565b61076a81600067ffffffffffffffff8111156107305761072f611af6565b5b6040519080825280601f01601f1916602001820160405280156107625781602001600182028036833780820191505090505b506000611059565b50565b7f000000000000000000000000000000000000000000000000000000000000000073ffffffffffffffffffffffffffffffffffffffff163073ffffffffffffffffffffffffffffffffffffffff16036107fb576040517f08c379a00000000000000000000000000000000000000000000000000000000081526004016107f290611f53565b60405180910390fd5b7f000000000000000000000000000000000000000000000000000000000000000073ffffffffffffffffffffffffffffffffffffffff1661083a610fd4565b73ffffffffffffffffffffffffffffffffffffffff1614610890576040517f08c379a000000000000000000000000000000000000000000000000000000000815260040161088790611fe5565b60405180910390fd5b6108998261102b565b6108a582826001611059565b5050565b60007f000000000000000000000000000000000000000000000000000000000000000073ffffffffffffffffffffffffffffffffffffffff163073ffffffffffffffffffffffffffffffffffffffff1614610939576040517f08c379a000000000000000000000000000000000000000000000000000000000815260040161093090612077565b60405180910390fd5b7f360894a13ba1a3210667c828492db98dca3e2076cc3735a920a3ca505d382bbc60001b905090565b7fbeec13769b5f410b0584f69811bfd923818456d5edcf426b0e31cf90eed7a3f661098c81610df5565b60fb60009054906101000a900473ffffffffffffffffffffffffffffffffffffffff1673ffffffffffffffffffffffffffffffffffffffff1663f7335f116000801b671bc16d674ec80000856040518463ffffffff1660e01b81526004016109f6939291906120d2565b600060405180830381600087803b158015610a1057600080fd5b505af1158015610a24573d6000803e3d6000fd5b505050505050565b7fbeec13769b5f410b0584f69811bfd923818456d5edcf426b0e31cf90eed7a3f681565b60006065600084815260200190815260200160002060000160008373ffffffffffffffffffffffffffffffffffffffff1673ffffffffffffffffffffffffffffffffffffffff16815260200190815260200160002060009054906101000a900460ff16905092915050565b6000801b81565b7fbeec13769b5f410b0584f69811bfd923818456d5edcf426b0e31cf90eed7a3f6610aec81610df5565b60fb60009054906101000a900473ffffffffffffffffffffffffffffffffffffffff1673ffffffffffffffffffffffffffffffffffffffff1663f7335f116000801b85856040518463ffffffff1660e01b8152600401610b4e9392919061212b565b600060405180830381600087803b158015610b6857600080fd5b505af1158015610b7c573d6000803e3d6000fd5b50505050505050565b60008060019054906101000a900460ff16159050808015610bb65750600160008054906101000a900460ff1660ff16105b80610be35750610bc5306111c7565b158015610be25750600160008054906101000a900460ff1660ff16145b5b610c22576040517f08c379a0000000000000000000000000000000000000000000000000000000008152600401610c19906121e7565b60405180910390fd5b60016000806101000a81548160ff021916908360ff1602179055508015610c5f576001600060016101000a81548160ff0219169083151502179055505b610c676111ea565b610c6f61123b565b610c7c6000801b85610e09565b610ca67f189ab7a9244df0848122154315af71fe140f3db0fe014031783b0946b8c9d2e384610e09565b8160fb60006101000a81548173ffffffffffffffffffffffffffffffffffffffff021916908373ffffffffffffffffffffffffffffffffffffffff1602179055508015610d405760008060016101000a81548160ff0219169083151502179055507f7f26b83ff96e1f2b6a682f133852f6798a09c465da95921460cefb38474024986001604051610d37919061224f565b60405180910390a15b50505050565b610d4f82610521565b610d5881610df5565b610d628383610ef2565b505050565b7f189ab7a9244df0848122154315af71fe140f3db0fe014031783b0946b8c9d2e381565b60007f01ffc9a7000000000000000000000000000000000000000000000000000000007bffffffffffffffffffffffffffffffffffffffffffffffffffffffff1916827bffffffffffffffffffffffffffffffffffffffffffffffffffffffff1916149050919050565b610e0681610e01610eea565b61128c565b50565b610e138282610a50565b610ee65760016065600084815260200190815260200160002060000160008373ffffffffffffffffffffffffffffffffffffffff1673ffffffffffffffffffffffffffffffffffffffff16815260200190815260200160002060006101000a81548160ff021916908315150217905550610e8b610eea565b73ffffffffffffffffffffffffffffffffffffffff168173ffffffffffffffffffffffffffffffffffffffff16837f2f8788117e7eff1d82e926ec794901d17c78024a50270940304540a733656f0d60405160405180910390a45b5050565b600033905090565b610efc8282610a50565b15610fd05760006065600084815260200190815260200160002060000160008373ffffffffffffffffffffffffffffffffffffffff1673ffffffffffffffffffffffffffffffffffffffff16815260200190815260200160002060006101000a81548160ff021916908315150217905550610f75610eea565b73ffffffffffffffffffffffffffffffffffffffff168173ffffffffffffffffffffffffffffffffffffffff16837ff6391f5c32d9c69d2a47ea670b442974b53935d1edc7fd64eb21e047a839171b60405160405180910390a45b5050565b60006110027f360894a13ba1a3210667c828492db98dca3e2076cc3735a920a3ca505d382bbc60001b611311565b60000160009054906101000a900473ffffffffffffffffffffffffffffffffffffffff16905090565b7f189ab7a9244df0848122154315af71fe140f3db0fe014031783b0946b8c9d2e361105581610df5565b5050565b6110857f4910fdfa16fed3260ed0e7147f7cc6da11a60208b5b9406d12a635614ffd914360001b61131b565b60000160009054906101000a900460ff16156110a9576110a483611325565b6111c2565b8273ffffffffffffffffffffffffffffffffffffffff166352d1902d6040518163ffffffff1660e01b8152600401602060405180830381865afa92505050801561111157506040513d601f19601f8201168201806040525081019061110e919061227f565b60015b611150576040517f08c379a00000000000000000000000000000000000000000000000000000000081526004016111479061231e565b60405180910390fd5b7f360894a13ba1a3210667c828492db98dca3e2076cc3735a920a3ca505d382bbc60001b81146111b5576040517f08c379a00000000000000000000000000000000000000000000000000000000081526004016111ac906123b0565b60405180910390fd5b506111c18383836113de565b5b505050565b6000808273ffffffffffffffffffffffffffffffffffffffff163b119050919050565b600060019054906101000a900460ff16611239576040517f08c379a000000000000000000000000000000000000000000000000000000000815260040161123090612442565b60405180910390fd5b565b600060019054906101000a900460ff1661128a576040517f08c379a000000000000000000000000000000000000000000000000000000000815260040161128190612442565b60405180910390fd5b565b6112968282610a50565b61130d576112a38161140a565b6112b18360001c6020611437565b6040516020016112c292919061256b565b6040516020818303038152906040526040517f08c379a000000000000000000000000000000000000000000000000000000000815260040161130491906125de565b60405180910390fd5b5050565b6000819050919050565b6000819050919050565b61132e816111c7565b61136d576040517f08c379a000000000000000000000000000000000000000000000000000000000815260040161136490612672565b60405180910390fd5b8061139a7f360894a13ba1a3210667c828492db98dca3e2076cc3735a920a3ca505d382bbc60001b611311565b60000160006101000a81548173ffffffffffffffffffffffffffffffffffffffff021916908373ffffffffffffffffffffffffffffffffffffffff16021790555050565b6113e783611673565b6000825111806113f45750805b156114055761140383836116c2565b505b505050565b60606114308273ffffffffffffffffffffffffffffffffffffffff16601460ff16611437565b9050919050565b60606000600283600261144a91906126c1565b6114549190612703565b67ffffffffffffffff81111561146d5761146c611af6565b5b6040519080825280601f01601f19166020018201604052801561149f5781602001600182028036833780820191505090505b5090507f3000000000000000000000000000000000000000000000000000000000000000816000815181106114d7576114d6612737565b5b60200101907effffffffffffffffffffffffffffffffffffffffffffffffffffffffffffff1916908160001a9053507f78000000000000000000000000000000000000000000000000000000000000008160018151811061153b5761153a612737565b5b60200101907effffffffffffffffffffffffffffffffffffffffffffffffffffffffffffff1916908160001a9053506000600184600261157b91906126c1565b6115859190612703565b90505b6001811115611625577f3031323334353637383961626364656600000000000000000000000000000000600f8616601081106115c7576115c6612737565b5b1a60f81b8282815181106115de576115dd612737565b5b60200101907effffffffffffffffffffffffffffffffffffffffffffffffffffffffffffff1916908160001a905350600485901c94508061161e90612766565b9050611588565b5060008414611669576040517f08c379a0000000000000000000000000000000000000000000000000000000008152600401611660906127db565b60405180910390fd5b8091505092915050565b61167c81611325565b8073ffffffffffffffffffffffffffffffffffffffff167fbc7cd75a20ee27fd9adebab32041f755214dbc6bffa90cc0225b39da2e5c2d3b60405160405180910390a250565b60606116e783836040518060600160405280602781526020016128c6602791396116ef565b905092915050565b60606000808573ffffffffffffffffffffffffffffffffffffffff16856040516117199190612842565b600060405180830381855af49150503d8060008114611754576040519150601f19603f3d011682016040523d82523d6000602084013e611759565b606091505b509150915061176a86838387611775565b925050509392505050565b606083156117d75760008351036117cf5761178f856111c7565b6117ce576040517f08c379a00000000000000000000000000000000000000000000000000000000081526004016117c5906128a5565b60405180910390fd5b5b8290506117e2565b6117e183836117ea565b5b949350505050565b6000825111156117fd5781518083602001fd5b806040517f08c379a000000000000000000000000000000000000000000000000000000000815260040161183191906125de565b60405180910390fd5b6000604051905090565b600080fd5b600080fd5b60007fffffffff0000000000000000000000000000000000000000000000000000000082169050919050565b6118838161184e565b811461188e57600080fd5b50565b6000813590506118a08161187a565b92915050565b6000602082840312156118bc576118bb611844565b5b60006118ca84828501611891565b91505092915050565b60008115159050919050565b6118e8816118d3565b82525050565b600060208201905061190360008301846118df565b92915050565b600073ffffffffffffffffffffffffffffffffffffffff82169050919050565b6000819050919050565b600061194e61194961194484611909565b611929565b611909565b9050919050565b600061196082611933565b9050919050565b600061197282611955565b9050919050565b61198281611967565b82525050565b600060208201905061199d6000830184611979565b92915050565b6000819050919050565b6119b6816119a3565b81146119c157600080fd5b50565b6000813590506119d3816119ad565b92915050565b6000602082840312156119ef576119ee611844565b5b60006119fd848285016119c4565b91505092915050565b611a0f816119a3565b82525050565b6000602082019050611a2a6000830184611a06565b92915050565b6000611a3b82611909565b9050919050565b611a4b81611a30565b8114611a5657600080fd5b50565b600081359050611a6881611a42565b92915050565b60008060408385031215611a8557611a84611844565b5b6000611a93858286016119c4565b9250506020611aa485828601611a59565b9150509250929050565b600060208284031215611ac457611ac3611844565b5b6000611ad284828501611a59565b91505092915050565b600080fd5b600080fd5b6000601f19601f8301169050919050565b7f4e487b7100000000000000000000000000000000000000000000000000000000600052604160045260246000fd5b611b2e82611ae5565b810181811067ffffffffffffffff82111715611b4d57611b4c611af6565b5b80604052505050565b6000611b6061183a565b9050611b6c8282611b25565b919050565b600067ffffffffffffffff821115611b8c57611b8b611af6565b5b611b9582611ae5565b9050602081019050919050565b82818337600083830152505050565b6000611bc4611bbf84611b71565b611b56565b905082815260208101848484011115611be057611bdf611ae0565b5b611beb848285611ba2565b509392505050565b600082601f830112611c0857611c07611adb565b5b8135611c18848260208601611bb1565b91505092915050565b60008060408385031215611c3857611c37611844565b5b6000611c4685828601611a59565b925050602083013567ffffffffffffffff811115611c6757611c66611849565b5b611c7385828601611bf3565b9150509250929050565b6000819050919050565b611c9081611c7d565b8114611c9b57600080fd5b50565b600081359050611cad81611c87565b92915050565b60008060408385031215611cca57611cc9611844565b5b6000611cd885828601611c9e565b9250506020611ce985828601611a59565b9150509250929050565b6000611cfe82611a30565b9050919050565b611d0e81611cf3565b8114611d1957600080fd5b50565b600081359050611d2b81611d05565b92915050565b600080600060608486031215611d4a57611d49611844565b5b6000611d5886828701611a59565b9350506020611d6986828701611a59565b9250506040611d7a86828701611d1c565b9150509250925092565b6000819050919050565b6000611da9611da4611d9f84611d84565b611929565b611c7d565b9050919050565b611db981611d8e565b82525050565b611dc881611a30565b82525050565b600082825260208201905092915050565b50565b6000611def600083611dce565b9150611dfa82611ddf565b600082019050919050565b6000608082019050611e1a6000830186611a06565b611e276020830185611db0565b611e346040830184611dbf565b8181036060830152611e4581611de2565b9050949350505050565b7f416363657373436f6e74726f6c3a2063616e206f6e6c792072656e6f756e636560008201527f20726f6c657320666f722073656c660000000000000000000000000000000000602082015250565b6000611eab602f83611dce565b9150611eb682611e4f565b604082019050919050565b60006020820190508181036000830152611eda81611e9e565b9050919050565b7f46756e6374696f6e206d7573742062652063616c6c6564207468726f7567682060008201527f64656c656761746563616c6c0000000000000000000000000000000000000000602082015250565b6000611f3d602c83611dce565b9150611f4882611ee1565b604082019050919050565b60006020820190508181036000830152611f6c81611f30565b9050919050565b7f46756e6374696f6e206d7573742062652063616c6c6564207468726f7567682060008201527f6163746976652070726f78790000000000000000000000000000000000000000602082015250565b6000611fcf602c83611dce565b9150611fda82611f73565b604082019050919050565b60006020820190508181036000830152611ffe81611fc2565b9050919050565b7f555550535570677261646561626c653a206d757374206e6f742062652063616c60008201527f6c6564207468726f7567682064656c656761746563616c6c0000000000000000602082015250565b6000612061603883611dce565b915061206c82612005565b604082019050919050565b6000602082019050818103600083015261209081612054565b9050919050565b6000819050919050565b60006120bc6120b76120b284612097565b611929565b611c7d565b9050919050565b6120cc816120a1565b82525050565b60006080820190506120e76000830186611a06565b6120f460208301856120c3565b6121016040830184611dbf565b818103606083015261211281611de2565b9050949350505050565b61212581611c7d565b82525050565b60006080820190506121406000830186611a06565b61214d602083018561211c565b61215a6040830184611dbf565b818103606083015261216b81611de2565b9050949350505050565b7f496e697469616c697a61626c653a20636f6e747261637420697320616c72656160008201527f647920696e697469616c697a6564000000000000000000000000000000000000602082015250565b60006121d1602e83611dce565b91506121dc82612175565b604082019050919050565b60006020820190508181036000830152612200816121c4565b9050919050565b6000819050919050565b600060ff82169050919050565b600061223961223461222f84612207565b611929565b612211565b9050919050565b6122498161221e565b82525050565b60006020820190506122646000830184612240565b92915050565b600081519050612279816119ad565b92915050565b60006020828403121561229557612294611844565b5b60006122a38482850161226a565b91505092915050565b7f45524331393637557067726164653a206e657720696d706c656d656e7461746960008201527f6f6e206973206e6f742055555053000000000000000000000000000000000000602082015250565b6000612308602e83611dce565b9150612313826122ac565b604082019050919050565b60006020820190508181036000830152612337816122fb565b9050919050565b7f45524331393637557067726164653a20756e737570706f727465642070726f7860008201527f6961626c65555549440000000000000000000000000000000000000000000000602082015250565b600061239a602983611dce565b91506123a58261233e565b604082019050919050565b600060208201905081810360008301526123c98161238d565b9050919050565b7f496e697469616c697a61626c653a20636f6e7472616374206973206e6f74206960008201527f6e697469616c697a696e67000000000000000000000000000000000000000000602082015250565b600061242c602b83611dce565b9150612437826123d0565b604082019050919050565b6000602082019050818103600083015261245b8161241f565b9050919050565b600081905092915050565b7f416363657373436f6e74726f6c3a206163636f756e7420000000000000000000600082015250565b60006124a3601783612462565b91506124ae8261246d565b601782019050919050565b600081519050919050565b60005b838110156124e25780820151818401526020810190506124c7565b60008484015250505050565b60006124f9826124b9565b6125038185612462565b93506125138185602086016124c4565b80840191505092915050565b7f206973206d697373696e6720726f6c6520000000000000000000000000000000600082015250565b6000612555601183612462565b91506125608261251f565b601182019050919050565b600061257682612496565b915061258282856124ee565b915061258d82612548565b915061259982846124ee565b91508190509392505050565b60006125b0826124b9565b6125ba8185611dce565b93506125ca8185602086016124c4565b6125d381611ae5565b840191505092915050565b600060208201905081810360008301526125f881846125a5565b905092915050565b7f455243313936373a206e657720696d706c656d656e746174696f6e206973206e60008201527f6f74206120636f6e747261637400000000000000000000000000000000000000602082015250565b600061265c602d83611dce565b915061266782612600565b604082019050919050565b6000602082019050818103600083015261268b8161264f565b9050919050565b7f4e487b7100000000000000000000000000000000000000000000000000000000600052601160045260246000fd5b60006126cc82611c7d565b91506126d783611c7d565b92508282026126e581611c7d565b915082820484148315176126fc576126fb612692565b5b5092915050565b600061270e82611c7d565b915061271983611c7d565b925082820190508082111561273157612730612692565b5b92915050565b7f4e487b7100000000000000000000000000000000000000000000000000000000600052603260045260246000fd5b600061277182611c7d565b91506000820361278457612783612692565b5b600182039050919050565b7f537472696e67733a20686578206c656e67746820696e73756666696369656e74600082015250565b60006127c5602083611dce565b91506127d08261278f565b602082019050919050565b600060208201905081810360008301526127f4816127b8565b9050919050565b600081519050919050565b600081905092915050565b600061281c826127fb565b6128268185612806565b93506128368185602086016124c4565b80840191505092915050565b600061284e8284612811565b915081905092915050565b7f416464726573733a2063616c6c20746f206e6f6e2d636f6e7472616374000000600082015250565b600061288f601d83611dce565b915061289a82612859565b602082019050919050565b600060208201905081810360008301526128be81612882565b905091905056fe416464726573733a206c6f772d6c6576656c2064656c65676174652063616c6c206661696c6564a2646970667358221220dffef2405d18d895f1061983010f2f1edd14761e3a4019c84489f2bc6760240c64736f6c63430008140033",
  "devdoc": {
    "events": {
      "AdminChanged(address,address)": {
        "details": "Emitted when the admin account has changed."
      },
      "BeaconUpgraded(address)": {
        "details": "Emitted when the beacon is changed."
      },
      "Initialized(uint8)": {
        "details": "Triggered when the contract has been initialized or reinitialized."
      },
      "RoleAdminChanged(bytes32,bytes32,bytes32)": {
        "details": "Emitted when `newAdminRole` is set as ``role``'s admin role, replacing `previousAdminRole` `DEFAULT_ADMIN_ROLE` is the starting admin for all roles, despite {RoleAdminChanged} not being emitted signaling this. _Available since v3.1._"
      },
      "RoleGranted(bytes32,address,address)": {
        "details": "Emitted when `account` is granted `role`. `sender` is the account that originated the contract call, an admin role bearer except when using {AccessControl-_setupRole}."
      },
      "RoleRevoked(bytes32,address,address)": {
        "details": "Emitted when `account` is revoked `role`. `sender` is the account that originated the contract call:   - if using `revokeRole`, it is the admin role bearer   - if using `renounceRole`, it is the role bearer (i.e. `account`)"
      },
      "Upgraded(address)": {
        "details": "Emitted when the implementation is upgraded."
      }
    },
    "kind": "dev",
    "methods": {
      "constructor": {
        "custom:oz-upgrades-unsafe-allow": "constructor"
      },
      "getRoleAdmin(bytes32)": {
        "details": "Returns the admin role that controls `role`. See {grantRole} and {revokeRole}. To change a role's admin, use {_setRoleAdmin}."
      },
      "grantRole(bytes32,address)": {
        "details": "Grants `role` to `account`. If `account` had not been already granted `role`, emits a {RoleGranted} event. Requirements: - the caller must have ``role``'s admin role. May emit a {RoleGranted} event."
      },
      "hasRole(bytes32,address)": {
        "details": "Returns `true` if `account` has been granted `role`."
      },
      "proxiableUUID()": {
        "details": "Implementation of the ERC1822 {proxiableUUID} function. This returns the storage slot used by the implementation. It is used to validate the implementation's compatibility when performing an upgrade. IMPORTANT: A proxy pointing at a proxiable contract should not be considered proxiable itself, because this risks bricking a proxy that upgrades to it, by delegating to itself until out of gas. Thus it is critical that this function revert if invoked through a proxy. This is guaranteed by the `notDelegated` modifier."
      },
      "renounceRole(bytes32,address)": {
        "details": "Revokes `role` from the calling account. Roles are often managed via {grantRole} and {revokeRole}: this function's purpose is to provide a mechanism for accounts to lose their privileges if they are compromised (such as when a trusted device is misplaced). If the calling account had been revoked `role`, emits a {RoleRevoked} event. Requirements: - the caller must be `account`. May emit a {RoleRevoked} event."
      },
      "revokeRole(bytes32,address)": {
        "details": "Revokes `role` from `account`. If `account` had been granted `role`, emits a {RoleRevoked} event. Requirements: - the caller must have ``role``'s admin role. May emit a {RoleRevoked} event."
      },
      "supportsInterface(bytes4)": {
        "details": "See {IERC165-supportsInterface}."
      },
      "upgradeTo(address)": {
        "custom:oz-upgrades-unsafe-allow-reachable": "delegatecall",
        "details": "Upgrade the implementation of the proxy to `newImplementation`. Calls {_authorizeUpgrade}. Emits an {Upgraded} event."
      },
      "upgradeToAndCall(address,bytes)": {
        "custom:oz-upgrades-unsafe-allow-reachable": "delegatecall",
        "details": "Upgrade the implementation of the proxy to `newImplementation`, and subsequently execute the function call encoded in `data`. Calls {_authorizeUpgrade}. Emits an {Upgraded} event."
      }
    },
    "version": 1
  },
  "userdoc": {
    "kind": "user",
    "methods": {},
    "version": 1
  },
  "storageLayout": {
    "storage": [
      {
        "astId": 782,
        "contract": "contracts/X2EarnApp.sol:X2EarnApp",
        "label": "_initialized",
        "offset": 0,
        "slot": "0",
        "type": "t_uint8"
      },
      {
        "astId": 785,
        "contract": "contracts/X2EarnApp.sol:X2EarnApp",
        "label": "_initializing",
        "offset": 1,
        "slot": "0",
        "type": "t_bool"
      },
      {
        "astId": 1461,
        "contract": "contracts/X2EarnApp.sol:X2EarnApp",
        "label": "__gap",
        "offset": 0,
        "slot": "1",
        "type": "t_array(t_uint256)50_storage"
      },
      {
        "astId": 1845,
        "contract": "contracts/X2EarnApp.sol:X2EarnApp",
        "label": "__gap",
        "offset": 0,
        "slot": "51",
        "type": "t_array(t_uint256)50_storage"
      },
      {
        "astId": 28,
        "contract": "contracts/X2EarnApp.sol:X2EarnApp",
        "label": "_roles",
        "offset": 0,
        "slot": "101",
        "type": "t_mapping(t_bytes32,t_struct(RoleData)23_storage)"
      },
      {
        "astId": 335,
        "contract": "contracts/X2EarnApp.sol:X2EarnApp",
        "label": "__gap",
        "offset": 0,
        "slot": "102",
        "type": "t_array(t_uint256)49_storage"
      },
      {
        "astId": 764,
        "contract": "contracts/X2EarnApp.sol:X2EarnApp",
        "label": "__gap",
        "offset": 0,
        "slot": "151",
        "type": "t_array(t_uint256)50_storage"
      },
      {
        "astId": 1080,
        "contract": "contracts/X2EarnApp.sol:X2EarnApp",
        "label": "__gap",
        "offset": 0,
        "slot": "201",
        "type": "t_array(t_uint256)50_storage"
      },
      {
        "astId": 2854,
        "contract": "contracts/X2EarnApp.sol:X2EarnApp",
        "label": "rewardsPool",
        "offset": 0,
        "slot": "251",
        "type": "t_contract(IX2EarnRewardsPool)3108"
      }
    ],
    "types": {
      "t_address": {
        "encoding": "inplace",
        "label": "address",
        "numberOfBytes": "20"
      },
      "t_array(t_uint256)49_storage": {
        "base": "t_uint256",
        "encoding": "inplace",
        "label": "uint256[49]",
        "numberOfBytes": "1568"
      },
      "t_array(t_uint256)50_storage": {
        "base": "t_uint256",
        "encoding": "inplace",
        "label": "uint256[50]",
        "numberOfBytes": "1600"
      },
      "t_bool": {
        "encoding": "inplace",
        "label": "bool",
        "numberOfBytes": "1"
      },
      "t_bytes32": {
        "encoding": "inplace",
        "label": "bytes32",
        "numberOfBytes": "32"
      },
      "t_contract(IX2EarnRewardsPool)3108": {
        "encoding": "inplace",
        "label": "contract IX2EarnRewardsPool",
        "numberOfBytes": "20"
      },
      "t_mapping(t_address,t_bool)": {
        "encoding": "mapping",
        "key": "t_address",
        "label": "mapping(address => bool)",
        "numberOfBytes": "32",
        "value": "t_bool"
      },
      "t_mapping(t_bytes32,t_struct(RoleData)23_storage)": {
        "encoding": "mapping",
        "key": "t_bytes32",
        "label": "mapping(bytes32 => struct AccessControlUpgradeable.RoleData)",
        "numberOfBytes": "32",
        "value": "t_struct(RoleData)23_storage"
      },
      "t_struct(RoleData)23_storage": {
        "encoding": "inplace",
        "label": "struct AccessControlUpgradeable.RoleData",
        "members": [
          {
            "astId": 20,
            "contract": "contracts/X2EarnApp.sol:X2EarnApp",
            "label": "members",
            "offset": 0,
            "slot": "0",
            "type": "t_mapping(t_address,t_bool)"
          },
          {
            "astId": 22,
            "contract": "contracts/X2EarnApp.sol:X2EarnApp",
            "label": "adminRole",
            "offset": 0,
            "slot": "1",
            "type": "t_bytes32"
          }
        ],
        "numberOfBytes": "64"
      },
      "t_uint256": {
        "encoding": "inplace",
        "label": "uint256",
        "numberOfBytes": "32"
      },
      "t_uint8": {
        "encoding": "inplace",
        "label": "uint8",
        "numberOfBytes": "1"
      }
    }
  }
}